:100000000C94D5060C9419070C9419070C94190735
:100010000C9419070C9419070C9419070C941907E0
:100020000C9419070C9419070C94122A0C94E42AC6
:100030000C9494210C9419070C9419070C9419072B
:100040000C9419070C9419070C9419070C941907B0
:100050000C9419070C9407220C9419070C94190797
:100060000C9419070C9419070C9419070C94190790
:100070000C9419070C9419070C9419070C94190780
:100080000C9419070C9419070C9419070C94190770
:100090000C9419070C9419070C9419070C94190760
:1000A0000C9419070C9419070C94190774087A0812
:1000B0007E088108850889088D08910896089A08A5
:1000C0009E08A208A508A908AD08B108B508BA0895
:1000D0004C174C177F177F17BF172519251925199E
:1000E000E117251988188818F218FA182519201907
:1000F0009518951895189518951895189518951898
:100100009518951895189518951895189518951887
:10011000A518B518BC18C318CD18A119A119B41980
:10012000B419AA19B419B419B419A119A119B0199B
:10013000B419B419B019492B6B2B562C6B2B562CB8
:10014000AD2BD02B562C252C382C00F000201E0077
:100150001F0020002100220023002400250026008B
:1001600027002D002E004C002A002B0014001A003E
:100170000800150017001C0018000C0012001300E6
:100180002F0030003100000002510400160007006B
:1001900009000A000B000D000E000F0033003400B0
:1001A000320028000000E10064001D001B00060072
:1001B000190005001100100036003700380000005B
:1001C000E5000000E000E300E200000000000000A5
:1001D0002C00000000000000E600E7000151E400F0
:1001E00000003500010001000100010001000100D4
:1001F0000100010001000100010001000070010088
:1002000001000100010001000100010001000100E6
:1002100001000100010030703170327000000100F7
:1002200001000100010001000100010001000100C6
:1002300001000100010001000100000001000100B7
:100240003470357036703770387039703A703B7072
:100250000100010000000100000001000100010098
:10026000000000000000010000000000000001008C
:10027000010001000100000035003A003B003C0095
:100280003D003E003F00400041004200430044006A
:10029000450000704C0000000000E000E100650037
:1002A00000000000000052000000460000000000B6
:1002B000000000000100000000000000000000003D
:1002C0004A00500051004F004D00000000000000A7
:1002D000000001000000000000000000000000001D
:1002E0000000A800AA00A900000000000000000013
:1002F0000100000000000000000000007600000087
:1003000000000000000000000000000000000A449F
:10031000454255473A20656E61626C65642E0A005D
:100320000A002530313662003A200025303258006C
:100330000A722F6320303132333435363738394141
:1003400042434445460A0054494D455233206469AE
:100350007361626C65642E0A0054494D4552332026
:10036000656E61626C65642E0A007267626C696713
:1003700068742073657420687376205B454550521D
:100380004F4D5D3A2025752C25752C25750A007278
:1003900067626C6967687420746F67676C653A2080
:1003A0007267626C696768745F636F6E6669672EF7
:1003B000656E61626C65203D2025750A007267627A
:1003C0006C69676874206D6F64653A2025750A0052
:1003D0007267626C696768745F696E6974207267BE
:1003E000626C696768745F636F6E6669672E6D6FB4
:1003F0006465203D20302E20577269746520646545
:100400006661756C742076616C75657320746F20FD
:10041000454550524F4D2E0A007267626C696768FD
:10042000745F696E6974206565636F6E66696720C5
:100430006973206E6F7420656E61626C65642E0A4C
:10044000007267626C696768745F696E69742073B3
:1004500074617274210A007267626C696768745F04
:10046000696E69742063616C6C65642E0A00726742
:10047000626C696768745F636F6E6669672E766128
:100480006C203D2025640A007267626C696768749D
:100490005F636F6E6669672E736174203D2025640B
:1004A0000A007267626C696768745F636F6E666981
:1004B000672E687565203D2025640A007267686CA8
:1004C000696768745F636F6E6669672E6D6F6465D8
:1004D000203D2025640A007267626C696768745F5A
:1004E000636F6E6669672E656E61626C65203D2084
:1004F00025640A007267626C696768745F636F6E77
:10050000666967206570726F6D0A006565636F6E5E
:100510006669675F7570646174655F7267626C6954
:100520006768745F64656661756C740A0064321490
:10053000643214783C1E1E140A05000000000101FC
:10054000010202030405050607090A0B0C0E0F1130
:1005500012141517191B1D1F212325282A2C2F3192
:100560003436393B3E414346494C4F5255585A5D0B
:100570006164676A6D707376797C7F8386898C8FFE
:100580009295989B9EA2A5A7AAADB0B3B6B9BCBEE2
:10059000C1C4C6C9CBCED0D3D5D7DADCDEE0E2E425
:1005A000E6E8EAEBEDEEF0F1F3F4F5F6F8F9FAFA35
:1005B000FBFCFDFDFEFEFEFFFFFFFFFFFFFFFEFE5B
:1005C000FEFDFDFCFBFAFAF9F8F6F5F4F3F1F0EEB6
:1005D000EDEBEAE8E6E4E2E0DEDCDAD7D5D3D0CE34
:1005E000CBC9C6C4C1BEBCB9B6B3B0ADAAA7A5A29B
:1005F0009E9B9895928F8C898683807C7976737088
:100600006D6A6764615D5A5855524F4C4946434183
:100610003E3B393634312F2C2A282523211F1D1B20
:100620001917151412110F0E0C0B0A0907060505F0
:1006300004030202010101000000000000000001AB
:100640000101010101010101020202020202020292
:100650000203030303030303030404040404040563
:100660000505050506060606060707070708080824
:10067000080909090A0A0A0A0B0B0B0C0C0C0D0DD0
:100680000D0E0E0F0F0F1010111111121213131463
:1006900014151516161717181819191A1A1B1C1CD9
:1006A0001D1D1E1F1F202021222223242525262731
:1006B0002728292A2B2B2C2D2E2F2F303132333463
:1006C0003536363738393A3B3C3D3E3F4041424370
:1006D00044464748494A4B4C4D4F5051525355564A
:1006E00057585A5B5C5E5F606263646667696A6CF8
:1006F0006D6E707173747678797B7C7E8081838473
:1007000086888A8B8D8F91929496989A9B9D9FA1B3
:10071000A3A5A7A9ABADAFB1B3B5B7B9BBBDBFC1B9
:10072000C4C6C8CACCCFD1D3D6D8DADCDFE1E4E680
:10073000E8EBEDF0F2F5F7FAFCFF0A00253032584D
:1007400020006B6579626F6172645F7265706F72B1
:10075000743A20000A0025303258006B6579626FC8
:100760006172645F7365745F6C65643A20006465F0
:100770006C5F6B65795F6269743A2063616E2774A0
:100780002064656C3A20253032580A006164645F49
:100790006B65795F6269743A2063616E27742061CA
:1007A00064643A20253032580A003F00433E20005E
:1007B0004C25640A0074696D65725F72656164330B
:1007C0003228293A202530346C580A006B65796D3F
:1007D00061705F636F6E6669672E6E6B726F3A2031
:1007E00025580A006B6579626F6172645F69646C99
:1007F000653A2025580A006B6579626F6172645F03
:1008000070726F746F636F6C3A2025580A00686FBE
:1008100073745F6B6579626F6172645F6C6564733A
:1008200028293A2025580A000A092D20537461749A
:100830007573202D0A004743433A20342E382E3258
:10084000204156522D4C4942433A20312E382E3009
:10085000204156525F415243483A20617672350A30
:10086000004F5054494F4E533A204C554641204575
:10087000585452414B455920434F4E534F4C4520FD
:10088000434F4D4D414E44204E4B524F2034303952
:10089000360A004255494C443A20226572676F641B
:1008A0006F785F657A2D3136313230352D31333303
:1008B0002D676139366230332D6469727479222074
:1008C0002830373A33343A3034204A616E20323798
:1008D0002032303137290A005649443A20307846D0
:1008E0004545442853656E7472617129205049440E
:1008F0003A20307836303630285336302D52474241
:1009000029205645523A203078303030330A00449E
:100910004553433A20514D4B206B6579626F6172AC
:1009200064206669726D7761726520666F7220530C
:10093000656E74726171205336302D5247420A0041
:100940000A092D2056657273696F6E202D0A000A00
:10095000092D20436F6E736F6C65202D0A4553433C
:100960002F713A09717569740A000A092D204D61C9
:10097000676963202D0A443A094465627567204D12
:1009800065737361676520546F67676C650A583AD1
:10099000094D6174726978204465627567204D6FF6
:1009A000646520546F67676C65202D2053686F77EE
:1009B000206B65797072657373657320696E206D45
:1009C000617472697820677269640A4B3A094B65F1
:1009D00079626F61726420446562756720546F6745
:1009E000676C65202D2053686F77206B6579707276
:1009F000657373207265706F72740A4D3A094465AD
:100A0000627567204D6F75736520546F67676C65FD
:100A10000A563A0956657273696F6E0A533A09535A
:100A200074617475730A433A094163746976617439
:100A30006520436F6E736F6C65204D6F64650A4669
:100A4000312D4631303A0953776974636820746FE9
:100A5000204C6179657220302D39202846313020B4
:100A60003D204C30290A302D393A09537769746397
:100A70006820746F204C6179657220302D390A45E9
:100A800053433A0953776974636820746F204C614B
:100A900079657220302028616C7465726E617465AE
:100AA000206B65792031290A47524156453A09534E
:100AB000776974636820746F204C617965722030A7
:100AC0002028616C7465726E617465206B65792095
:100AD00032290A50415553453A094A756D702074C0
:100AE0006F20426F6F746C6F61646572202852656D
:100AF000736574290A4E3A094E4B524F20546F6762
:100B0000676C650A003F004E4B524F3A206F666695
:100B10000A004E4B524F3A206F6E0A000A6D6F75F5
:100B200073653A206F66660A000A6D6F7573653AE1
:100B3000206F6E0A000A6B6579626F6172643A20F9
:100B40006F66660A000A6B6579626F6172643A20AB
:100B50006F6E0A000A6D61747269783A206F66667A
:100B60000A000A6D61747269783A206F6E0A000A91
:100B700064656275673A206F66660A000A6465629A
:100B800075673A206F6E0A000A0A4A756D70696EC1
:100B90006720746F20626F6F746C6F616465722E72
:100BA0002E2E2000433E20006261636B6C696768F3
:100BB0007420737465703A2025750A006261636B56
:100BC0006C6967687420746F67676C653A20257577
:100BD0000A006261636B6C696768742064656372A4
:100BE000656173653A2025750A006261636B6C6903
:100BF00067687420696E6372656173653A20257554
:100C00000A005B735D004B6579626F6172642073EB
:100C1000746172742E0A005B575D005B535D005B6C
:100C2000525D005B445D005B435D00100353003682
:100C30000030002D00520047004200000010035316
:100C40000065006E00740072006100710000000415
:100C500003090409027400040100A0FA0904000059
:100C600001030101000921110100012240000705D3
:100C7000810308000A0904010001030000000921A2
:100C8000110100012236000705820308000A090449
:100C900002000203000000092111010001222200CC
:100CA0000705830320000107050303200001090451
:100CB0000300010300000009211101000122390095
:100CC000070584032000011201100100000008ED57
:100CD000FE606003000102000105010906A1010593
:100CE0000719E029E715002501950875018102051E
:100CF0000819012905950575019102950175039162
:100D0000010507190029F71500250195F8750181DE
:100D100002C00631FF0974A1010975150026FF0004
:100D20009520750881020976150026FF009520752B
:100D3000089102C005010980A10185021601002663
:100D400003001A81002A8300751095018100C005F7
:100D50000C0901A1018503160100269C021A01005D
:100D60002A9C02751095018100C005010906A101A8
:100D7000050719E029E7150025019508750181028D
:100D80009501750881010508190129059505750169
:100D900091029501750391010507190029FF1500BE
:100DA00026FF00950675088100C011241FBECFEFF5
:100DB000DAE0DEBFCDBF04B603FE24C080918E0210
:100DC00090918F02A0919002B09191028730904B48
:100DD000A740B04BB9F410928E0210928F0210927D
:100DE00090021092910214BE84B7877F84BF88E17D
:100DF0000FB6F89480936000109260000FBEE0E0A0
:100E0000F8E3099511E0A0E0B1E0EEE1FAE502C0F7
:100E100005900D92A633B107D9F712E0A6E3B1E031
:100E200001C01D92AE38B107E1F70E9450270C9423
:100E30000D2D0C940000FF93EF93E0913601F0919B
:100E40003701309709F00995EF91FF910895FC0162
:100E50008591803011F0EFDFFBCF0895FF27E0E2AE
:100E600030E247FF0CC0419597FF09C0EDE2609565
:100E7000709580959095611D711D811D911D27FFB5
:100E800002C0219530E350E2AA27660F771F881F22
:100E9000991FAA1FA41710F0A41B63955A95A9F7D0
:100EA000AA3008F0A95FA05DAF93F39561157105B5
:100EB0008105910541F7ED3211F4EF93F395F217A7
:100EC00018F43F93F395FBCF8F91B5DFFA95E1F7D7
:100ED0000895E991F9918591803021F0853219F0DA
:100EE000AADFF9CF089520E0E89455915532C1F377
:100EF000503311F4689455915A3348F4505390F399
:100F0000220F022E220F220F200D250FF4CF0EF4F8
:100F1000219589919991533619F3533729F1533516
:100F200059F1BC0188279927E8945C3621F489910E
:100F3000999168945591543639F446EF7EF077FFD5
:100F40000DC08FEF9FEF0AC055374AE039F0583592
:100F500040E121F0523642E009F00895FF93EF930B
:100F60007DDFEF91FF91B7CFFF93EF93FC0181916C
:100F70008030B9F360DFFBCFFF93EF9368DFF1CFF1
:100F8000DF93CF93CDB7DEB72596A3DFCF91DF9167
:100F900008950E94750C0C94E5090C94760CCF937F
:100FA000DF93EC0161111BC00E945220827280937A
:100FB00038019A81992341F0882311F085E301C01B
:100FC00089E20E94AF1F07C0882311F085E301C0AA
:100FD00089E20E940020DF91CF910C949E20DF9146
:100FE000CF91089581E0089581E008950C94F4076D
:100FF0000E948F192FEF84E39CE0215080409040A5
:10100000E1F700C000000C942C22FF920F931F9375
:10101000CF93DF938C01FC01C081D1818091940139
:10102000811113C08281882349F0CE010E94101FD4
:10103000F82E682FCE010E94B61E04C0CE010E9479
:10104000E41EF82EBE018F2D04C0CE010E94101F99
:10105000BE010E949A0BEC01B8010E94F60788239A
:1010600009F465C1B801CE010E94290C882309F456
:101070005EC1C633F0E7DF0741F4F80182818823BF
:1010800009F455C10E94031052C1C73380E7D80745
:1010900008F0C4C0C53190E7D90708F0A8C0C23035
:1010A000E0E7DE0708F478C0F8018281882309F4BC
:1010B0007FC00E942421811102C00E94FE200E9454
:1010C000372190E090937F0280937E02FE01E350EF
:1010D000F047E231F10520F4EA5AFF4F0C94BF2C9F
:1010E00080917E02816003C080917E028260809345
:1010F0007E024BC080917E028460F9CF80917E0297
:1011000013C080917E028061F2CF80917E02806266
:10111000EECF80917E028064EACF80917E0280686B
:10112000E6CF80917E0284608860E1CF80917E026C
:101130008E7FDDCF80917E028D7FD9CF80917E0220
:101140008B7FD5CF80917E0213C080917E028F7EEF
:10115000CECF80917E028F7DCACF80917E028F7B21
:10116000C6CF80917E028F77C2CF80917E028B7F27
:10117000877FBDCF90917E0297FB882780F921E081
:10118000822780FB97F990937E0280917E020E94D5
:101190003B210E948F19CBC0C115F0E7DF0781F01A
:1011A000C130D047A9F081E080933B0180933C019E
:1011B000C801DF91CF911F910F91FF900C94F2071E
:1011C000F8018281882309F4B2C00E94F807AFC0F9
:1011D000F8018281882309F4AAC08EE093E00E947E
:1011E000270780912C02816080932C02A0C0C43319
:1011F00090E7D90741F4F8018281882309F497C068
:101200000E94821194C0C533D04769F6F8018281EB
:10121000882309F48CC00E94781189C0CA33F0E792
:10122000DF0741F4F8018281882309F480C00E941D
:1012300070107DC0CB3380E7D807D8F4F8018281E5
:10124000C833F0E7DF0731F4882309F470C00E9447
:101250003B106DC0C933D04730F4882309F467C010
:101260000E941C1064C0882309F461C00E945610BB
:101270005EC0CC33E0E7DE0719F5F80182818823F0
:1012800051F010923B010E94C62190933A01809345
:10129000390182E02AC080913B0181110FC0809109
:1012A000390190913A010E94DE21883C910530F489
:1012B00086E20E94DF1586E20E94B21682E01DC01F
:1012C000CC33F0E7DF07E0F0CD33D04709F06BCF48
:1012D000F8018281882361F010923C010E94C621AE
:1012E00090933A018093390180E20E9401171FC058
:1012F00080913C01882359F080E20E94081717C0B2
:10130000F8018281882399F00E948B1010C080918F
:10131000390190913A010E94DE21883C910560F7E5
:1013200087E20E94DF1587E20E94B216E5CF80E0D7
:10133000DF91CF911F910F91FF9008950C94CD07ED
:10134000279A2F988FEF9FEF9093870080938600C6
:101350008AE08093800089E1809381000C941824B6
:101360000E94A0090C94C9072F9881110AC080918E
:101370008000877F8093800010928D0010928C00F7
:101380000895833041F480918000886080938000CC
:101390008FEF9FEF12C09091800098609093800033
:1013A00023E030E0281B3109220F331F8FEF9FEF1E
:1013B00002C0969587952A95E2F790938D008093C9
:1013C0008C00089508950C94E20908950C94E309A3
:1013D0002FE0729FF00111243BE4839FE00DF11D8B
:1013E0001124E60FF11DEE0FFF1FE45BFE4F859108
:1013F00094910E94AC0B811540E5940708F047C01A
:10140000811520E4920708F01BC1883E910520F564
:10141000803E910508F08AC1883A910578F4853AB2
:10142000910508F0A5C08130910509F47FC108F449
:1014300036C18430910508F079C131C18D3B9105E9
:1014400008F4A1C0803C910508F429C1FC01EE0F0D
:10145000FF1FE653F040EEC0811530E2930758F4C9
:10146000811541E0940708F061C1803F910508F4BF
:1014700016C190650895811520E3920708F0DDC03C
:101480009F70880F991F865B9E4FFC01D3C081150A
:1014900035E5930708F043C0811544E5940708F04B
:1014A000E6C0811522E5920708F5811531E593071D
:1014B00008F0C9C0482F437021E030E002C0220F7D
:1014C000331F4A95E2F73C68AC0164E056954795B6
:1014D0006A95E1F74370342B8F708695869540E2CC
:1014E000849FC0011124822B932B0895282F2695C9
:1014F0002695AC01437055278115934508F0A8C087
:1015000030E2239FC001112421E030E002C0220F0D
:10151000331F4A95E2F7822B932B9C680895803302
:1015200040E7940790F4803220E7920708F0AAC0C1
:10153000811536E5930708F49FC09C0130562115AC
:10154000304108F0ACC09F709BC0813320E7920708
:1015500009F49FC008F49AC0823340E7940709F465
:101560009BC08333904709F09AC080E093ED0895C3
:10157000853A910509F496C0863A910509F495C01B
:1015800083E890E40895883A910509F491C0893A76
:10159000910509F490C08A3A910509F48FC08B3AFD
:1015A000910509F48EC08C3A910509F48DC08B3BEE
:1015B000910509F48CC08C3B910509F48BC08D3AE0
:1015C000910509F48AC0803B910509F489C08E3ADF
:1015D000910509F488C08F3A910509F487C0813BD1
:1015E000910509F486C0823B910509F485C0833BCF
:1015F000910509F484C0843B910509F483C0853BBF
:10160000910509F482C0863B910509F481C0873BAE
:10161000910509F480C0883B910509F47FC0893B9E
:10162000910509F47EC08A3B910509F07DC08AE2EC
:1016300096E408958591949108959927906C089562
:101640009F70906A0895982F8827816F906A0895F7
:1016500030E2239FC001112421E030E002C0220FBC
:10166000331F4A95E2F7822B932B9A680895982F9F
:101670008827846F906A08958F719927982F8827FB
:101680009062089580529047946D089580E091EDA6
:10169000089580E090ED089580E092ED089580E057
:1016A00090E0089581E890E4089582E890E4089538
:1016B00082EE94E4089589EE94E408958AEE94E429
:1016C000089585EB94E4089586EB94E4089583EB04
:1016D00094E4089584EB94E4089587EB94E40895EA
:1016E0008CEC94E408958DEC94E4089583E895E4FB
:1016F00008958AE895E4089582E995E4089584E9D7
:1017000095E4089581E296E4089583E296E40895CD
:1017100084E296E4089585E296E4089586E296E4EC
:10172000089587E296E4089580E094E4089580E0C7
:1017300090E008959FE0799FF00111249BE4899F38
:10174000E00DF11D1124E60FF11DEE0FFF1FE45B0C
:10175000FE4F8591949108958238910549F1B0F436
:101760008133910509F459C048F48932910509F48F
:101770004FC08A32910509F455C00895853391050B
:1017800009F441C08933910599F00895833E91058C
:1017900031F138F4803E910591F0823E9105A9F037
:1017A0000895863E910501F1873E910539F108952E
:1017B00020917E0220FD3BC021FD39C0089580911B
:1017C0007E0280FF34C089E341C080917E0282FFA7
:1017D00032C080917E0284FF2CC080E037C08091AF
:1017E0007E0282FD28C0F5CF80917E0283FF25C056
:1017F00080917E0284FDF1CF87EE28C080917E0229
:1018000083FD1BC0F5CF80917E0285FF18C019C0F3
:1018100080917E0285FF15C012C080917E0286FFF6
:1018200012C013C080917E0286FF0FC00CC080EEF4
:101830000DC083EE0BC082EE09C086EE07C085E3C3
:1018400005C089E203C081E301C08AE290E0089507
:101850000895CF93DF93EC01FB018281811102C0D7
:1018600081E040C080914A01811125C0C531D04737
:10187000B9F70E94280C81E080934A010E94C6219A
:10188000909349018093480110923D0110923F01CD
:1018900010923E01109241011092400110924301BA
:1018A000109242011092450110924401109247019A
:1018B0001092460116C080914801909149010E9402
:1018C000DE21883C910560F680913D01E82FF0E033
:1018D000EE0FFF1FE25CFE4FD183C0838F5F8093CA
:1018E0003D0180E0DF91CF91089508950895CF9351
:1018F000DF9385B7806885BF85B7806885BFADE118
:10190000B1E021E030E08D91E82FE295EF70F0E05A
:1019100041A18F70B90102C0660F771F8A95E2F767
:10192000CB01962F9095492341A392A1982B92A386
:1019300071E0A232B70739F7AEE0B1E021E030E064
:101940008D91E82FE295EF70F0E041A18F70B90121
:1019500002C0660F771F8A95E2F7CB01962F90950C
:10196000492341A392A1982B92A371E0AD31B7070F
:1019700039F7EFE5F1E0C5E5D1E0ABE4B1E0119274
:101980001192199219921D921D9281E0E936F80781
:10199000B1F7DF91CF910C94B0094F925F927F9293
:1019A0008F929F92AF92BF92CF92DF92EF92FF926F
:1019B0000F931F93CF93DF930DE111E0CBE4D1E0C0
:1019C000EE24E394F12C99249394BE01A880B9806D
:1019D00019821882D8012D918D01E22FE295EF70C6
:1019E000F0E081A12F70A70102C0440F551F2A9576
:1019F000E2F79A01842B81A382A1842E809488210E
:101A000082A350EA5A95F1F74EE0442E41E0542E5D
:101A100080E090E0D2014D912D01C42EC2943FE0B0
:101A2000C322D12CD60190967C90C880D9804F706B
:101A3000D70102C0AA0FBB1F4A95E2F77A2241F4F0
:101A4000A701082E02C0440F551F0A94E2F702C0F6
:101A500040E050E04C295D295983488301968F303E
:101A60009105C1F681A1882181A382A1822B82A345
:101A70002296FB0180819181A816B90641F09092CF
:101A800069010E94C62190936B0180936A01F1E085
:101A900002321F0709F099CF809169018823B1F0C4
:101AA00080916A0190916B010E94DE21069770F08F
:101AB000EBE4F1E0AFE5B1E0819191918D939D93DD
:101AC00041E0E535F407C1F7109269010E949E09D3
:101AD00081E0DF91CF911F910F91FF90EF90DF9008
:101AE000CF90BF90AF909F908F907F905F904F90DE
:101AF0000895E82FF0E0EE0FFF1FE15AFE4F8081BE
:101B000091810895CF92DF92EF92FF920F931F93EE
:101B1000CF93DF9380E393E00E942707BFE5EB2E8E
:101B2000B1E0FB2EC0E0D0E01BE2C12E13E0D12ECD
:101B300002E213E0DF93CF93DF92CF920E94C007BF
:101B400088E293E00E942707F701819191917F013C
:101B50000E94E4209F938F931F930F930E94C007CE
:101B600080E293E00E94270721968DB79EB70896E2
:101B70000FB6F8949EBF0FBE8DBFC530D105D1F60C
:101B8000DF91CF911F910F91FF90EF90DF90CF9059
:101B9000089531B3242F2095232331B3342B4FB72D
:101BA000F894FC01680F791FE617F70789F0819117
:101BB00098E031BB000000C087FF21BB880F000008
:101BC00000C000C000C021BB00C09A9591F7ECCFC7
:101BD0004FBF089520B3242B20BB9B01220F331F3E
:101BE000260F371FB9010E94C90D87EC90E00197BD
:101BF000F1F700C00000089540E40C94EA0DDF9274
:101C0000EF92FF920F931F93CF93DF93662309F414
:101C10004AC0E42FF0E0AFEFB0E0A61BB109BF016E
:101C2000A69FE001A79FD00DB69FD00D1124FD2FD8
:101C3000DD2E7B01ED1AF1080CE310E0B8010E94E3
:101C4000972CEB01BC01E69EC001E79E900DF69E2D
:101C5000900D1124B8010E94972CC230D105B1F02B
:101C600040F4209779F0219709F58F2FD42E461B49
:101C700020C0C430D10599F068F02597B9F4842FBD
:101C8000861B17C08F2FD62EDF0E13C0862F8F0F07
:101C9000D42E03C0D42ED61A842F4F2F0AC0842FDF
:101CA000462F4F0F06C0842FD42E03C080E0D12CC6
:101CB00040E0E42FF0E0E65CF94F4491ED2DF0E0D8
:101CC000E65CF94F9491E82FF0E0E65CF94FE4917F
:101CD000D90111964C9311979C931296EC93DF9136
:101CE000CF911F910F91FF90EF90DF90089588E0C2
:101CF00090E00C94CD2CAB01BC0188E090E00C94FA
:101D0000EB2C80912C0280FF08C08BE095E09F9324
:101D10008F930E94C0070F900F9083E0809354022E
:101D2000109255028FEF8093560280935702609174
:101D300054027091550280915602909157020C9472
:101D40007B0E80912C0280FF08C084EF94E09F936B
:101D50008F930E94C0070F900F9080912C0280FFFC
:101D60000FC08091540281701F928F9387ED94E091
:101D70009F938F930E94C0070F900F900F900F902A
:101D800080912C0280FF10C08091540286958F7341
:101D90001F928F938CEB94E09F938F930E94C007C8
:101DA0000F900F900F900F9080912C0280FF19C020
:101DB00090915402991F9927991F20915502822FC3
:101DC000880F892B27FB222720F92F938F9382EAF4
:101DD00094E09F938F930E94C0070F900F900F90F5
:101DE0000F9080912C0280FF0EC0809156021F92AE
:101DF0008F9388E894E09F938F930E94C0070F9081
:101E00000F900F900F9080912C0280FF0EC0809158
:101E100057021F928F938EE694E09F938F930E94B8
:101E2000C0070F900F900F900F900895809154026B
:101E300080FF06C06AE070E08CE592E00C94FC0D37
:101E4000EEE5F2E0DF0111971C92DF0112971C9280
:101E50001082339682E0EC37F807A1F7EBCFEEE57E
:101E6000F2E0DF0111978C93DF0112976C934083AE
:101E7000339692E0EC37F907A1F70C94160FCF9246
:101E8000DF92EF92FF920F931F93CF93DF9300D0D7
:101E90001F92CDB7DEB7F82EC92ED62EE42E0091B4
:101EA000540210915502209156023091570200932E
:101EB00058021093590220935A0230935B0280918A
:101EC000540280FF1EC09E012F5F3F4F8F2D0E9446
:101ED000FF0D80915802F0FA87F980935802F6942A
:101EE0002091590220782F29C0FA27F9209359020E
:101EF000D0925A02E0925B024B8169818A810E94F2
:101F00002F0F0F900F900F90DF91CF911F910F9196
:101F1000FF90EF90DF90CF9008950F931F93CF9392
:101F2000DF93C82F192F062FD42F8091540280FFE2
:101F300065C0982F9E77923029F48C2F912F0E94A4
:101F40003F0F1AC0282F26952F739EE3920F9F7381
:101F5000943018F4D09157020FC0265C2F732930AB
:101F600058F4881F8827881F10915502C12FCC0F65
:101F7000C82B17FB112710F980915402C0FB87F979
:101F800080935402C6958091550280788C2B10FB6B
:101F900087F98093550200935602D09357026091BF
:101FA00054027091550280915602909157020E94FE
:101FB0007B0E809157021F928F93809156021F9241
:101FC0008F9390915402991F9927991F2091550240
:101FD000822F880F892B27FB222720F92F938F939D
:101FE0008AE693E09F938F930E94C0078DB79EB7B8
:101FF00008960FB6F8949EBF0FBE8DBFDF91CF91AC
:102000001F910F91089520915402221F2227221F11
:1020100030915502432F440F842F822B37FB992791
:1020200090F90A9668E671E00E94AB2C4091570245
:10203000609156020C948D0F20915402221F22278A
:10204000221F30915502432F440F842F822B37FBE0
:10205000992790F98A3091051CF4825A9E4F01C04D
:102060000A9768E671E00E94AB2C4091570260919C
:1020700056020C948D0F60915602862F90E08F3E91
:10208000910514F46F5E01C06FEF80915402881FB8
:102090008827881F90915502292F220F97FB992797
:1020A00090F940915702822B0C948D0F609156024B
:1020B000862F90E0419714F0615101C060E080915B
:1020C0005402881F8827881F90915502292F220FBC
:1020D00097FB992790F940915702822B0C948D0F12
:1020E00040915702842F90E08F3E910514F44F5E8B
:1020F00001C04FEF80915402881F8827881F90915C
:102100005502292F220F97FB992790F960915602CB
:10211000822B0C948D0F40915702842F90E04197B1
:1021200014F0415101C040E080915402881F88277B
:10213000881F90915502292F220F97FB992790F91C
:1021400060915602822B0C948D0F81E08093810167
:1021500080912C0280FF08C089E593E09F938F93C4
:102160000E94C0070F900F900895109281018091F6
:102170002C0280FF08C087E493E09F938F930E9416
:10218000C0070F900F9008959091540290FF4DC09A
:102190009178811102C0926003C0893120F0906370
:1021A0009093540205C08F73880F892B809354023B
:1021B000609154027091550280915602909157029D
:1021C0000E947B0E8091540286958F731F928F938D
:1021D0008DEB93E09F938F930E94C00780915402F0
:1021E000982F9E770F900F900F900F90923019F4C8
:1021F0000E94B51007C08695825C8F73863110F4FB
:102200000E94A51080915402881F8827881F9091F2
:102210005502292F220F97FB992790F940915702D9
:1022200060915602822B0C948D0F089580912C02A0
:10223000816080932C0287E594E09F938F930E94A6
:10224000C00781E08093820180912C020F900F9053
:1022500080FF08C081E494E09F938F930E94C007A1
:102260000F900F900E942421811110C080912C02A8
:1022700080FF08C089E194E09F938F930E94C0077C
:102280000F900F900E94FE200E94810E0E94770EF8
:1022900060935402709355028093560290935702B4
:1022A0006E77C1F480912C0280FF08C080ED93E02E
:1022B0009F938F930E94C0070F900F900E94810EF2
:1022C0000E94770E609354027093550280935602D9
:1022D000909357020E94A10E81E08093810180912A
:1022E000540280FF04C086958F730C94C410089527
:1022F0008091540286958F738F5F893108F081E059
:102300000C94C41080915402982F909590FB80F902
:10231000809354026091540270915502809156024C
:10232000909157020E947B0E8091540281701F92FF
:102330008F938FE893E09F938F930E94C0078091C3
:1023400054020F900F900F900F9080FF04C086955D
:102350008F730C94C4100E94B5102FEF80E792E0A9
:10236000215080409040E1F700C000000C94160F0F
:10237000CF93C82F80917F01909180010E94DE2130
:10238000EC2FF0E0EA5CFA4FE491F0E08E179F0743
:1023900010F10E94C6219093800180937F01E0910B
:1023A0007E01F0E0E65CFA4F449180915402881F70
:1023B0008827881F90915502292F220F97FB992774
:1023C00090F960915602822B0E943F0F80917E010E
:1023D0008F5F80937E01CF910895CF93C82F809116
:1023E0007C0190917D010E94DE21EC2FF0E0ED5CFC
:1023F000FA4FE491F0E08E179F07E8F00E94C621A3
:1024000090937D0180937C01409157026091560228
:1024100080917A0190917B010E943F0F80917A0117
:1024200090917B01019668E671E00E94972C909351
:102430007B0180937A01CF910895DF92EF92FF9212
:102440000F931F93CF93DF93D82E809178019091B3
:1024500079010E94DE21ED2DE695F0E0ED5CFA4F6A
:10246000E491F0E08E179F07E8F10E94C621909357
:102470007901809378010CE512E0C0E0D0E088E6B5
:10248000E82EFF24F39480917601909177018C0FD0
:102490009D1FB7010E94972C9801409157026091AF
:1024A00056020E94FF0DA4960D5F1F4FC83681E0B3
:1024B000D80749F70E94160F2091760130917701D5
:1024C000D0FE0AC0C9010196BE010E94972C9093CC
:1024D00077018093760106C021503109309377014E
:1024E00020937601DF91CF911F910F91FF90EF9094
:1024F000DF9008958F929F92AF92BF92CF92DF921A
:10250000EF92FF920F931F93CF93DF93C82F80FD1D
:1025100003C09924939402C099249A9480917401E1
:10252000909175010E94DE21C695EC2FF0E0E05DF0
:10253000FA4FE491F0E08E179F0708F469C00E94FB
:10254000C62190937501809374012CE5E22E22E060
:10255000F22E0EE512E0C0E0D0E037E0A32EB12C61
:10256000F80131971082F7011082F801108297E08C
:10257000C92ED12C812C80917301880D87FD865F37
:10258000992787FD9095C817D907E9F4209157023C
:102590002C9DC0012D9D900D1124B5010E94AB2CE6
:1025A000462F80915402881F8827881F90915502DA
:1025B000592F550F97FB992790F997016091560273
:1025C000852B0E94FF0D890CF1E0CF1AD108C114B0
:1025D000D10489F6219683E0E80EF11C0D5F1F4FB0
:1025E000CA30D10509F0BCCF0E94160F809173014B
:1025F00091E0991206C0811102C089E007C08150A4
:1026000005C090E00196BE010E94AB2C809373013F
:10261000DF91CF911F910F91FF90EF90DF90CF90BE
:10262000BF90AF909F908F9008959F92AF92BF926E
:10263000CF92DF92EF92FF920F931F93CF93DF938E
:10264000CDB7DEB76E970FB6F894DEBF0FBECDBF25
:10265000182F80917101909172010E94DE21E12F6B
:10266000F0E0E35DFA4FE491F0E08E179F0708F485
:1026700092C00E94C62190937201809371018E01D5
:102680000F5F1F4F5E0183E0A80EB11CE12CF12CFF
:102690006801F50131971082F8011082F50110826E
:1026A000912C9091000180917001999E800D1124D0
:1026B00087FD04C08A301CF089E001C080E09927C2
:1026C00087FD9095E816F906A1F480915402881FC1
:1026D0008827881F90915502592F550F97FB9927EE
:1026E00090F998014091570260915602852B0E9403
:1026F000FF0D9394F7E09F12D4CF8FEFE81AF80AFA
:102700000D5F1F4FE3E0AE0EB11CFAE0EF16F104CF
:1027100009F0BFCF2EE532E009E010E05AE0E52EE7
:10272000F12CC801B7010E94AB2CD9011197FC0113
:10273000EE0FFF1FE80FF91FEC0DFD1D81818C933B
:10274000D901129780818C938281F90180830F5F78
:102750001F4F2D5F3F4F0331110519F70E94160FD0
:102760009091000180917001913049F48A3F2CF4DE
:1027700089EF809370018FEF08C081500AC08131CA
:102780003CF080E18093700181E08093000103C000
:102790008F5F809370016E960FB6F894DEBF0FBE08
:1027A000CDBFDF91CF911F910F91FF90EF90DF9000
:1027B000CF90BF90AF909F900895CF93DF9380917B
:1027C0006E0190916F010E94DE21883E934028F1B6
:1027D0000E94C62190936F0180936E0180916C01DD
:1027E00090916D0101968170992790936D0180936E
:1027F0006C01CCE5D2E09E014091570260915602F7
:1028000080E090E00E94FF0D239682E0CA37D8074F
:1028100091F7DF91CF910C94160FDF91CF9108952E
:1028200080918101882371F18091540286958F7384
:102830009EE3980F9F73943018F482500C94B81153
:102840009AE3980F9F73933018F486500C94ED110F
:1028500097E3980F9F73963018F489500C941D12CB
:1028600091E3980F9F73963018F48F500C947A125E
:102870009BE2980F9F73933018F485510C941513B5
:102880000C94DD1308959093880180938701089537
:10289000E0918701F0918801309721F00190F0815B
:1028A000E02D099480E00895FF920F931F93CF933A
:1028B000DF938C01E0918701F0918801309799F1C5
:1028C0000280F381E02D099580912C0282FF2BC0BC
:1028D00080FF04C082E497E00E942707E80180E2BD
:1028E000F82E0CE317E080912C0280FF0BC088814A
:1028F0001F928F931F930F930E94C0070F900F900A
:102900000F900F90FA942196F110EDCF80912C0248
:1029100080FF09C08AE397E0DF91CF911F910F916B
:10292000FF900C942707DF91CF911F910F91FF909B
:10293000089520918501309186018217930771F0E7
:102940009093860180938501E0918701F091880141
:10295000309721F00680F781E02D099408952091A9
:102960008301309184018217930771F09093840161
:1029700080938301E0918701F0918801309721F0E5
:102980000084F185E02D0994089508950C94C514F0
:102990000E94BD210E94770C0E944F220E941824A1
:1029A0000C941611CF93C82F80912C0282FF1EC069
:1029B00080FF04C08BE597E00E94270780912C02DE
:1029C00080FF0CC01F92CF9326E537E03F932F93F3
:1029D0000E94C0070F900F900F900F9080912C02D3
:1029E00080FF04C084E597E00E9427078C2FCF91D9
:1029F0000C94E6095F926F927F928F929F92AF92B2
:102A0000BF92CF92DF92EF92FF920F931F93CF93DB
:102A1000DF93CDB7DEB72A970FB6F894DEBF0FBEAF
:102A2000CDBF0E94CD0C9AE8C92E91E0D92E00E0CE
:102A300010E0AA24A394B12C502E802F0E94790D6F
:102A40003C01F601E190F1906F01E826F926E114CE
:102A5000F104B1F40F5F1F4F0530110569F78FEFD7
:102A600089838A831B820E94C6218160782F9D837F
:102A70008C8349815A816B818D810E94B1153AC046
:102A800080912C0281FD0E94820D20E030E0450102
:102A9000022E02C0880C991C0A94E2F7C4018E2110
:102AA0009F21892B09F12E835F826820792081E0A4
:102AB000672809F480E088870E94C6218160782F0A
:102AC0009A8789874E815F8168858A850E94B115C2
:102AD000F801EE0FFF1FE657FE4F80819181882598
:102AE00099259183808306C02F5F3F4F2F3031059A
:102AF00071F6B0CF109189010E9448141817D9F0CF
:102B00000E944814809389012A960FB6F894DEBF7C
:102B10000FBECDBFDF91CF911F910F91FF90EF902E
:102B2000DF90CF90BF90AF909F908F907F906F90ED
:102B30005F900C94D2142A960FB6F894DEBF0FBEA5
:102B4000CDBFDF91CF911F910F91FF90EF90DF905C
:102B5000CF90BF90AF909F908F907F906F905F903D
:102B60000895CF93DF93CDB7DEB72B970FB6F894C8
:102B7000DEBF0FBECDBF4F83588769877A878B87AB
:102B8000DE01119686E0FD0111928A95E9F785E054
:102B9000FE01379601900D928A95E1F749815A819D
:102BA0006B817C818D819E810E94591C2B960FB672
:102BB000F894DEBF0FBECDBFDF91CF910895CF93C4
:102BC000C82F882309F4CCC0823859F40E944814D5
:102BD00081FDC6C089E30E94AF1F0E949E2089E349
:102BE0000CC0833879F40E94481480FDB9C083E595
:102BF0000E94AF1F0E949E2083E50E940020CF917B
:102C00000C949E20843859F40E94481482FDA8C078
:102C100087E40E94AF1F0E949E2087E4EECF8CEFD6
:102C20008C0F813A48F48C2F0E94CC23811198C0DC
:102C30008C2F0E94AF1FE3CF80E28C0F883048F4C6
:102C4000C77081E001C0880FCA95EAF70E9455203D
:102C5000D6CF8BE58C0F833078F4C53A29F0C63A8D
:102C600031F482E890E005C081E890E002C083E89A
:102C700090E0CF910C94991488E58C0F853108F081
:102C80006FC0C83A61F1C93A69F1CA3A71F1CB3AF9
:102C900079F1CC3A81F1CB3B89F1CC3B91F1CD3A42
:102CA00099F1C03BA1F1CE3AA9F1CF3AB1F1C13BC4
:102CB000B9F1C23BC1F1C33BC9F1C43BD1F1C53B42
:102CC000D9F1C63BE1F1C73BE9F1C83BF1F1C93BA2
:102CD000F9F1CA3B09F03FC08AE292E03EC082EEC1
:102CE00090E03BC089EE90E038C08AEE90E035C0BD
:102CF00085EB90E032C086EB90E02FC083EB90E054
:102D00002CC084EB90E029C087EB90E026C08CECCF
:102D100090E023C08DEC90E020C083E891E01DC0DE
:102D20008AE891E01AC082E991E017C084E991E055
:102D300014C081E292E011C083E292E00EC084E20E
:102D400092E00BC085E292E008C086E292E005C006
:102D500087E292E002C080E090E0CF910C94AF1443
:102D6000CF910895882309F44BC0823859F40E940A
:102D7000481481FF45C089E30E94AF1F0E949E2036
:102D800089E30CC0833871F40E94481480FF38C076
:102D900083E50E94AF1F0E949E2083E50E940020D1
:102DA0000C949E20843859F40E94481482FF28C055
:102DB00087E40E94AF1F0E949E2087E4EFCF9CEF24
:102DC000980F913A58F390E2980F983050F487702A
:102DD00091E001C0990F8A95EAF7892F0E945B2044
:102DE000DFCF9BE5980F933020F480E090E00C94C7
:102DF0009914885A853120F480E090E00C94AF1447
:102E00000895882321F00E9455200C949E20089557
:102E1000882321F00E945B200C949E2008958F92BD
:102E20009F92AF92BF92CF92DF92EF92FF920F9359
:102E30001F93CF93DF931F92CDB7DEB74C01A62E21
:102E4000472FFC01E580E2948FE0E822F280FF202A
:102E500021F079830E947220498149830E94A81F32
:102E60004981882381F0FF2071F080E28A0D88304B
:102E700050F082E00E94911F0E94A81FBB24B394CF
:102E8000B826498101C0B12CE42FE295EF70F0E043
:102E9000E859FF4F0C94BF2C842F807F142F1F7094
:102EA000882311F01295107FFF2099F0112309F467
:102EB0008FC180E28A0D883010F0A11004C0812FEC
:102EC0000E94552003C0812F0E9465200E949E20F1
:102ED0007FC18A2D0E94B216112309F4B6C180E287
:102EE0008A0D883010F0A11004C0812F0E945B2051
:102EF00003C0812F0E946B200E949E20A6C1242F18
:102F0000207F842F8F70203211F08295807FAA203D
:102F100021F0F1E0AF16B1F021C0FF2041F0EE202A
:102F200039F191E0E91224C00E9485208EC1EE2083
:102F300021F0E1E0EE1609F488C189830E9488201F
:102F4000898100C1FF2029F0F5E0FE1508F47DC15C
:102F50000FC094E09E1508F478C1F4C0FF2059F02A
:102F6000EE2031F0F401958190FF32C19F7095837E
:102F70000E9401176AC1EE2009F4E4C02FC1242F7A
:102F800026952695237030E02115310521F021305A
:102F9000310561F05AC1FF2021F08A2D942F9370E2
:102FA00002C080E090E00E9499144FC1FF2021F000
:102FB0008A2D942F937002C080E090E00E94AF149D
:102FC00044C1842F837009F04EC0F1103EC12A2DF8
:102FD000229526952770220F220F8A2D8F70C82EDA
:102FE000D12CE12CF12C022E04C0CC0CDD1CEE1CEB
:102FF000FF1C0A94D2F7A4FE10C06FE070E080E0DE
:1030000090E004C0660F771F881F991F2A95D2F79A
:10301000609570958095909503C060E070E0CB015D
:10302000242F26952695237030E02230310569F053
:103030002330310589F06C297D298E299F29213083
:10304000310571F00E94AD1D00C16C297D298E29CA
:103050009F290E94C71DF9C00E94AD1DC701B6017E
:103060000E94931DF2C0FF2019F0842F817001C0CF
:103070008695882309F4E9C02A2D22952695277084
:10308000220F220F8A2D8F70C82ED12CE12CF12C0B
:10309000022E04C0CC0CDD1CEE1CFF1C0A94D2F7DF
:1030A000A4FE10C06FE070E080E090E004C0660F06
:1030B000771F881F991F2A95D2F760957095809584
:1030C000909503C060E070E0CB01242F26952695F3
:1030D000237030E02230310569F02330310589F06A
:1030E0006C297D298E299F292130310571F00E949C
:1030F000811EABC06C297D298E299F290E949B1EB1
:10310000A4C00E94811EC701B6010E94671E9DC017
:103110000A2D10E0F801E05EF109E531F10508F053
:1031200053C0E858FF4F0C94BF2C1A2D1F70842FEA
:103130008F71FF2021F00E94001E812F19CF0E9465
:10314000211E812F0E94081780C0FF2049F0F4E063
:10315000FE1508F47AC0842F8F710E94461E75C038
:1031600085E08E1508F471C0F6CFFF2039F0842F6A
:103170008F710E94001E69C0FF20C9F3842F8F71D8
:103180000E94211E62C0FF2029F0842F8F710E94AF
:10319000EB1D5BC00E94E11D58C0FF2051F0142FB1
:1031A0001F71812F0E94001E63E0812F0E94881FE3
:1031B0004CC081E00E94911F91E09E1508F045C02F
:1031C00082E00E94911F41C0FF2031F0EE2079F291
:1031D0008A2D0E94DF1539C0EE2081F28A2D0E94CF
:1031E000B21633C04F706A2DC4010E94970B0E9423
:1031F000061D2BC0F11029C0942F9F70492F50E05D
:1032000042305105B9F04CF44115510581F041307F
:103210005105D9F40E94582418C04330510569F073
:103220004430510591F48A2D0E94E5240EC00E947D
:1032300029240BC00E94872408C00E94AD2405C029
:103240004F706A2DC4010E94CF07BB20F1F00E948D
:10325000841F80FD1AC0F40112820E947E1F0E940A
:10326000001EC4010E9453190E947E1F0F90DF911F
:10327000CF911F910F91FF90EF90DF90CF90BF9073
:10328000AF909F908F900C94211E0F90DF91CF9163
:103290001F910F91FF90EF90DF90CF90BF90AF9074
:1032A0009F908F9008950F931F93CF93DF93EC011E
:1032B000288139818B819C81892B31F03F3F11F02E
:1032C00080E003C02F3FE1F781E0811113C0CE0100
:1032D0000E940508882371F0688179818A810E94A3
:1032E0005B1F8C010E94B51E0E94881DB801CE0193
:1032F0000E940F17DF91CF911F910F9108950E94A7
:1033000072200E9482200E9444200E949E2080E021
:1033100090E00E94991480E090E00C94AF140E9419
:1033200062200C947F190E94501FE92FE295EF70E4
:10333000F0E03297EE30F105B8F4E357FF4F0C940C
:10334000BF2C803F59F018F4803E70F407C0843FD2
:1033500059F404C0803E10F0813F31F481E00895BB
:1033600093FB882780F9089580E00895CF93DF9339
:1033700000D000D01F92CDB7DEB70F900F900F9006
:103380000F900F90DF91CF910895CF93DF9300D0EE
:1033900000D000D0CDB7DEB726960FB6F894DEBFCA
:1033A0000FBECDBFDF91CF9108951F93CF93DF93D1
:1033B000C091950116E080919601C81799F0D0E070
:1033C0001C9FF0011D9FF00D1124E956FE4F408116
:1033D000518162817381848195810E94C5192196F2
:1033E000C770E9CFDF91CF911F9108954091C70138
:1033F0005091C8016091C9017091CA018091CB01BF
:103400009091CC010C94C519CF938091CC018295F9
:103410008F7009F05FC08091C901882309F45AC0F8
:1034200020919501A09196016091C7017091C8010A
:103430008091CA019091CB0131E06F3F09F030E0FB
:10344000B32FC6E02A1709F445C0009721F07F3F4B
:1034500021F44B2F03C041E001C040E030E040FDCB
:1034600035C0C29FF001C39FF00D1124E956FE4FF5
:10347000418174132BC04081641328C042814111E3
:1034800025C0438154814817590710F44150510910
:10349000481B590B483C5105C8F48091CC018F70F2
:1034A00080618093CC0186E0829FF001839FF00DC4
:1034B0001124E456FE4F80818F708061808387ECF9
:1034C00091E00E945319CF910C94D5192F5F3F4F73
:1034D0002770B8CFCF910895CF92DF92EF92FF92ED
:1034E0000F931F93CF93DF93CDB7DEB762970FB6DD
:1034F000F894DEBF0FBECDBF8C0185E0F801DE0180
:103500001D9601900D928A95E1F7D8014C91119684
:103510005C91119712966C9112971396ED90FC9016
:1035200014977091C701E091C8012091CA013091B0
:10353000CB012115310531F0EF3F31F481E07F3FC0
:1035400019F403C081E001C080E0B82FB170CB2E28
:1035500080FD6CC1D090C901DD2009F4F5C0F09167
:10356000CC01E216F30638F0C701821B930B883CAE
:10357000910548F09BC0209530952E0D3F1D283CAD
:10358000310508F093C08F2F807F09F052C0E513FA
:1035900014C0741312C0D62E61110FC0FF70F061F9
:1035A000F093CC010E94F61987EC91E00E94531928
:1035B0008091CC01F80185836CC1EF2831F05F3F29
:1035C00031F481E04F3F19F403C081E001C080E095
:1035D00080FD03C081E0862701C080E0F82FF170F4
:1035E000FF2E80FF1CC0809195012091960136E04E
:1035F000821709F428C190E0389FF001399FF00D3F
:103600001124E956FE4F7181571306C0708147138C
:1036100003C07281671303C001968770E9CFD62E6D
:10362000662309F436C18091CC0181608093CC017E
:1036300053C0E51308C0741306C0611104C0D8015B
:103640001596FC93AEC04D875E878D859E856A8BEF
:103650000E9493196A89882329F1D62E662311F1D5
:103660002091CC01822F82958F7090E002970CF40C
:1036700060C08091C7019091C80198878F83198697
:10368000FB86EA862C87CE01079651C0E51731F1FB
:103690004D875E878D859E856A8B0E9493196A8906
:1036A00081112EC0C8010E945319A4C08F2F807FA2
:1036B00069F77E2DF98AE88A89890E94B61987EC14
:1036C00091E00E945319E7ECF1E086E0DF011D92E2
:1036D0008A95E9F70E94F619D12CDBC07413D8CF74
:1036E0006111D6CFD8011596FC93C8010E945319D9
:1036F000E7ECF1E086E0DF011D928A95E9F7C9C0A9
:10370000D62E662379F22091CC01822F82958F707C
:1037100090E0029774F08091C7019091C8019A835C
:1037200089831B82FD82EC822E83CE0101960E944A
:10373000531986E0F801A7ECB1E001900D928A954B
:10374000E1F70E94041A6FC0E216F30628F0C701E1
:10375000821B930B9C0104C0209530952E0D3F1DBC
:10376000283C310508F052C0D62E662309F49ACFC2
:10377000E5132CC074132AC08091CC0180FD1DC0BC
:10378000982F92959F70C9F0D80115968C93159734
:103790009F3039F09F5F9295907F8F70892B15969F
:1037A0008C93C8010E94531986E0F801A7ECB1E0A0
:1037B00001900D928A95E1F736C086E0F801A7ECFA
:1037C000B1E001900D928A95E1F763C04D875E8765
:1037D0008D859E850E949319882379F086E0F801F3
:1037E000A7ECB1E001900D928A95E1F70E94041ACE
:1037F0000E94F619DD24D3944CC08091CC018160E5
:103800008093CC01C8010E94531943C07E2DF98AD0
:10381000E88A89890E94B619E7ECF1E086E0DF01C9
:103820001D928A95E9F70E94F61933C0662309F4C0
:1038300039CF4D875E878D859E850E949319882399
:1038400009F430CFCBCF4D875E878D859E850E9452
:10385000501F292F22952F7030E0223031052CF493
:103860009F7041F0811106C00CC0243031052CF44A
:103870009F7049F4805E883020F0C8010E9453197F
:10388000CF2CDC2C06C0D80115969C91907F91F727
:10389000F8CF8D2D62960FB6F894DEBF0FBECDBF68
:1038A000DF91CF911F910F91FF90EF90DF90CF901C
:1038B00008951F93CF93DF93CDB7DEB72C970FB644
:1038C000F894DEBF0FBECDBF4F83588769877A87D4
:1038D0008B879C87CE0107960E946C1A8823C1F0C3
:1038E0002F8138858A859B85892B31F03F3F11F0E8
:1038F00080E003C02F3FE1F781E0811147C04F8195
:10390000588569857A858B859C850E94C5193EC03E
:1039100086E0FE013796DE01119601900D928A95A0
:10392000E1F7FF81E8854A855B854115510531F056
:10393000EF3F31F481E0FF3F19F403C081E001C0A3
:1039400080E080FD23C02091960130E0C9010196FE
:10395000877099276091950170E086179707F1F1BC
:10396000F983EA835D834C8396E0929FD001939F15
:10397000B00D1124A956BE4FFE01319601900D9253
:103980009A95E1F7809396010E94D51916E08091EF
:10399000950190919601891779F1189FC001112422
:1039A00089569E4F0E946C1A882331F1E09195014F
:1039B0001E9FF0011124E956FE4F40815181628122
:1039C0007381848195810E94C5198091950190E051
:1039D00001968770992780939501D9CF0E948F19FE
:1039E0001092960110929501E7ECF1E086E0DF017C
:1039F0001D928A95E9F7CACF2C960FB6F894DEBFD0
:103A00000FBECDBFDF91CF911F910895EF92FF922E
:103A10000F931F93CF93DF939C01009709F471C01C
:103A2000F12CEE24E394E9012196F9018491843785
:103A300040F4843008F056C0813081F0823021F1AA
:103A400060C0853709F449C0C0F19CE7980F9037F2
:103A500008F057C08F770E94B21646C089010E5FEA
:103A60001F4FFE01849190E2980F983050F48770B8
:103A7000FE2D01C0FF0F8A95EAF78F2F0E94752057
:103A800015C00E94DF1514C089010E5F1F4FFE0193
:103A9000849190E2980F983068F48770FE2D01C0F1
:103AA000FF0F8A95EAF78F2F0E947B200E949E20AD
:103AB000E8011AC00E94B216FBCF2E5F3F4FFE01F5
:103AC000C491CC2341F08FE99FE00197F1F700C04A
:103AD0000000C150F6CFE90107C0FE01F490E901F2
:103AE000229602C00E94DF158F2D882341F0EFE956
:103AF000FFE03197F1F700C000008150F6CF9E0142
:103B000092CFDF91CF911F910F91FF90EF90089589
:103B100008956093030270930402809305029093CA
:103B200006020C947F190F931F93009103021091CA
:103B300004022091050230910602062B172B282B38
:103B4000392B009303021093040220930502309353
:103B500006021F910F910C947F190F931F930091F0
:103B600003021091040220910502309106020623FF
:103B70001723282339230093030210930402209370
:103B80000502309306021F910F910C947F190F9339
:103B90001F930091030210910402209105023091BD
:103BA00006020627172728273927009303021093B8
:103BB000040220930502309306021F910F910C948A
:103BC0007F191092FF0110920002109201021092D0
:103BD00002020C947F1941E050E060E070E004C004
:103BE000440F551F661F771F8A95D2F74093FF0138
:103BF0005093000260930102709302020C947F19AB
:103C000041E050E060E070E004C0440F551F661FC3
:103C1000771F8A95D2F78091FF0190910002A091C1
:103C20000102B0910202842B952BA62BB72B809317
:103C3000FF0190930002A0930102B09302020C9442
:103C40007F1941E050E060E070E004C0440F551F70
:103C5000661F771F8A95D2F74095509560957095AD
:103C60008091FF0190910002A0910102B0910202A7
:103C700084239523A623B7238093FF01909300020A
:103C8000A0930102B09302020C947F1941E050E02E
:103C900060E070E004C0440F551F661F771F8A95CF
:103CA000D2F78091FF0190910002A0910102B091A2
:103CB000020284279527A627B7278093FF019093B8
:103CC0000002A0930102B09302020C947F190F939B
:103CD0001F930091FF011091000220910102309189
:103CE0000202062B172B282B392B0093FF01109370
:103CF000000220930102309302021F910F910C9455
:103D00007F190F931F930091FF01109100022091E2
:103D1000010230910202062317232823392300933E
:103D2000FF011093000220930102309302021F91C1
:103D30000F910C947F190F931F930091FF01109125
:103D4000000220910102309102020627172728273E
:103D500039270093FF011093000220930102309352
:103D600002021F910F910C947F1908952FE0929FEA
:103D7000800D1124482F4695469546958770B1E0F1
:103D800001C0BB0F8A95EAF785E0489FA001112486
:103D900043535E4F80E090E070E0FA01E80FF91FB6
:103DA000A0819B01082E02C0369527950A94E2F760
:103DB0002170332721952A272B232A272083019638
:103DC0008530910551F708952FE0929F800D1124C1
:103DD000682F669566956695982F977085E0689F21
:103DE000B001112463537E4F40E050E080E0FB01BE
:103DF000E40FF51F208130E0092E02C0369527958B
:103E00000A94E2F721703327042E01C0220F0A948E
:103E1000EAF7822B4F5F5F4F4530510541F7089518
:103E2000CF92DF92EF92FF920F931F93CF93DF9386
:103E3000EC01C0900302D0900402E0900502F090E3
:103E400006028091FF0190910002A0910102B091C1
:103E50000202C82AD92AEA2AFB2A0FE110E0B70198
:103E6000A601002E04C076956795579547950A944C
:103E7000D2F740FD05C00150110988F780E007C066
:103E8000BE01802F0E94E8090197A9F3802FDF91DE
:103E9000CF911F910F91FF90EF90DF90CF900895F9
:103EA000CF93DF93EC010E94101FBE010E94E8092E
:103EB000DF91CF9108951F93CF93DF93EB01909102
:103EC0009401992321F0CB010E94501F13C0882335
:103ED00049F0CB010E94101F182F682FCE010E94BD
:103EE000B61E04C0CB010E94E41E182FBE01812F14
:103EF0000E94E809DF91CF911F91089580910702F8
:103F00008595859585950895809107028770089518
:103F100098E0899F90011124622B609307020C9412
:103F2000001E409107028095842380930702982FFA
:103F3000977069F450E0282F332727FD30954217FA
:103F4000530729F08595859585950C94211E089534
:103F500090910702977081E009F480E008959091B4
:103F60000D01992361F190917E0297FF28C0982F4F
:103F70009695969596959F3188F4E0910101F09180
:103F80000201E90FF11D877021E030E001C0220F2E
:103F90008A95EAF78181822B8183089590912C0282
:103FA00090FF2DC01F928F938CE897E09F938F9383
:103FB0000E94C0070F900F900F900F9008954091AE
:103FC00001015091020120E030E09FEFFA01E20F81
:103FD000F31F6281681799F09F3F19F4611101C0C6
:103FE000922F2F5F3F4F2E31310581F79F3F39F0E0
:103FF000FA01E90FF11D97FDFA958283089508955E
:1040000090910D01992369F190917E0297FF29C04B
:10401000982F9695969596959F3190F4E091010191
:10402000F0910201E90FF11D877021E030E001C03D
:10403000220F8A95EAF7209581812823218308950C
:1040400090912C0290FF1FC01F928F938EE697E0F5
:104050009F938F930E94C0070F900F900F900F9027
:104060000895409101015091020120E030E0FA01F1
:10407000E20FF31F9281981301C012822F5F3F4F0E
:104080002E313105A1F7089581E090E0E091010122
:10409000F0910201E80FF91F10820196803291051C
:1040A000A9F7089580912B02089590912B02982BE7
:1040B00090932B020895809590912B0298239093D2
:1040C0002B02089510922B02089590912A02982BAA
:1040D00090932A020895809590912A0298239093B4
:1040E0002A02089510922A02089590912902982B8D
:1040F0009093290208958095909129029823909396
:1041000029020895109229020895809308020895C3
:10411000109208020895409101015091020120E09F
:1041200030E080E0FA01E20FF31F918191118F5F7F
:104130002F5F3F4F2F313105A9F70895E09101011D
:10414000F091020180912B028083E0910101F091B6
:104150000201808190912A02892B8083E0910101E4
:10416000F0910201808190912902892B80839091A6
:104170000802992361F0E0910101F0910201808130
:10418000892B80830E948B208111109208028091DC
:104190000101909102010C94541490933701809383
:1041A000360108958295982F9C7C969596958373F9
:1041B00044E0849F90011124922B892F8A7A86955E
:1041C0009575990F892B08951F93CF93DF931F92B5
:1041D000CDB7DEB799830E94D220182F9981892FFD
:1041E0000E94D220212F30E0322F2227A901482B14
:1041F000CA010F90DF91CF911F9108956DEE7EEF70
:1042000080E090E00E94F72C60E082E090E00E9465
:10421000D92C60E083E090E00E94D92C60E084E03B
:1042200090E00E94D92C60E085E090E00E94D92CBB
:1042300060E086E090E00E94D92C40E050E0BA01B6
:1042400088E090E00C94EB2C80E090E00E94D32C6E
:1042500021E08D3E9E4F09F020E0822F089582E0FC
:1042600090E00C94C52C83E090E00C94C52C84E085
:1042700090E00C94C52C682F84E090E00C94D92C2D
:1042800086E090E00C94C52C682F86E090E00C94BA
:10429000D92C80918502843039F110922D0220E4CE
:1042A00088E190E00FB6F894A895809360000FBE67
:1042B0002093600080E00E94B40980E00E94E6093B
:1042C00083B7817F846083BF83B7816083BF789425
:1042D000889583B78E7F83BF88E10FB6F89480936B
:1042E0006000109260000FBE089508950895CF9366
:1042F0000E9475210E94CD0C0E947621C0E08C2F77
:104300000E94790D892B29F4CF5FC530C1F780E079
:1043100001C081E0CF9108950E948F190E94182456
:104320000E9448140C94E6091F920F920FB60F9248
:1043300011248F939F93AF93BF9380912D0281118E
:1043400013C080917A0290917B02A0917C02B0917F
:104350007D024196A11DB11D80937A0290937B024C
:10436000A0937C02B0937D02BF91AF919F918F91FA
:104370000F900FBE0F901F90189582E084BD93E0C0
:1043800095BD9AEF97BD80936E0008952FB7F8946E
:1043900080917A0290917B02A0917C02B0917D0283
:1043A0002FBF08952FB7F89460917A0270917B0225
:1043B00080917C0290917D022FBF0895CF92DF9271
:1043C000EF92FF920F931F932FB7F89440917A02C8
:1043D00050917B0260917C0270917D022FBF6A0137
:1043E0007B01EE24FF248C0120E030E0C016D106D2
:1043F000E206F30610F441505109481B590BCA015B
:104400001F910F91FF90EF90DF90CF9008951F9232
:104410000F920FB60F9211248F939F93AF93BF9378
:1044200080917A0290917B02A0917C02B0917D02F2
:104430000196A11DB11D80937A0290937B02A093F7
:104440007C02B0937D02BF91AF919F918F910F90AD
:104450000FBE0F901F9018950E949729F8942FEF88
:1044600087EA91E6215080409040E1F700C00000CB
:1044700087E090EBDC0180938E0290938F02A093F3
:104480009002B09391022CE088E190E00FB6F8948E
:10449000A895809360000FBE20936000FFCF0E941C
:1044A0002421811102C00E94FE200E942F218093AE
:1044B0002C020E94372190E090937F0280937E022D
:1044C0000E943321682F70E080E090E00C94891DF9
:1044D000CF93C82F1F928F9320EB37E03F932F93FA
:1044E0000E94C00761E070E080E090E004C0660FC9
:1044F000771F881F991FCA95D2F70E94891D0F90B8
:104500000F900F900F90CF910C948F19CF9387320B
:10451000A8F58E3108F02EC1803109F49DC0F8F461
:10452000873009F465C0A8F4863009F029C180916C
:104530002C02817F8E7F80932C028FE499E00E9471
:10454000270784EA9BE00E94270781E080932E02E0
:104550004DC08B30F1F18E3009F46BC011C1863142
:1045600009F4ADC020F4813109F4EDC009C18931ED
:1045700009F48EC08B3109F449C002C1883349F176
:1045800050F4893209F4F8C0853309F4F5C0873254
:1045900009F4F2C0F5C0833409F4EEC028F48A337C
:1045A00008F4EEC08953E9C0883409F0E9C00E94DC
:1045B0008F1988E89BE00E9427072FEF83ED90E397
:1045C000215080409040E1F700C000000E942C2262
:1045D0000DC08AE699E059C08FE69BE00E9427074C
:1045E00080912C02897F877F80932C02C1E0CDC00F
:1045F00080912C02C82FC095C170C0FB80F98093B8
:104600002C02CC2349F38CE79BE0AEC080912C02B6
:1046100081FBCC27C0F991E0C927C0FB81F98093C9
:104620002C02CC2319F082E69BE025C084E59BE0B8
:104630002CC080912C0282FBCC27C0F991E0C927C5
:10464000C0FB82F980932C02CC2319F085E49BE017
:1046500012C085E39BE019C080912C0283FBCC271C
:10466000C0F991E0C927C0FB83F980932C02CC23C9
:1046700051F089E29BE00E94270780912C02816023
:1046800080932C0282C08CE19BE00E942707AECF72
:1046900080E499E00E9427078FE099E00E942707B5
:1046A00088ED98E00E94270783E998E00E94270799
:1046B00081E698E00E94270786E398E0E6CF88E24B
:1046C00098E00E9427070E9448141F928F938EE063
:1046D00098E09F938F930E94C00780910D011F92D5
:1046E0008F9387EF97E09F938F930E94C0078091ED
:1046F00053021F928F9384EE97E09F938F930E94B3
:10470000C00780917E0287FB882780F91F928F93D4
:104710008CEC97E09F938F930E94C0070E94D22158
:104720009F938F937F936F9385EB97E09F938F93E6
:104730000E94C0078DB79EB746960FB6F8949EBFED
:104740000FBE8DBF53CF0E948F1980917E0287FBD1
:10475000CC27C0F991E0C927C0FB87F980937E027E
:10476000CC2329F082E19BE00E9427070EC087E05E
:104770009BE08BCF8D5101C080E00E94682236CF34
:1047800085E09BE00E942707C0E08C2FCF91089521
:1047900080E0089580E00895CF93C82F80912E0285
:1047A000882319F0813049F03BC0E0910101F0917C
:1047B000020180818232B1F507C0E0910101F091E0
:1047C00002018081823249F48C2F0E94C82381111A
:1047D00024C08C2F0E94862221C08C2F0E94CA23C5
:1047E00081111BC0C43189F018F4CB3029F010C0FE
:1047F000C93259F0C83361F48FE499E00E94270769
:104800008CEA97E00E94270708C010922E020CC085
:104810008AEA97E00E94270707C081E0817006C0FE
:1048200010922E0280E002C080E0F8CFCF91089570
:104830000E942421811102C00E94FE200E9440217A
:104840008093800280FF02C0869501C080E00C94B6
:10485000B40920918002322F3695832F90E0039780
:1048600044F491E0930F990F822F8170892B8093EC
:104870008002809180028160809380020E944421A6
:1048800080912C0280FF0FC08091800286951F923C
:104890008F938AEE9BE09F938F930E94C0070F90A7
:1048A0000F900F900F908091800286950C94B40920
:1048B00080918002982F969591F09158990F817070
:1048C000892B809380028E7F91E009F490E08091A3
:1048D000800290FB80F9809380020E9444218091A5
:1048E0002C0280FF0FC08091800286951F928F93CB
:1048F00082ED9BE09F938F930E94C0070F900F90D3
:104900000F900F908091800286950C94B40980914D
:104910008002982F909590FB80F9809380020E94EE
:10492000442180912C0280FF0FC080918002817011
:104930001F928F938CEB9BE09F938F930E94C007F5
:104940000F900F900F900F908091800280FF02C017
:10495000869501C080E00C94B40930918002232F29
:1049600026952F5F2F77822F90E0317004972CF4DB
:10497000220F232B2093800202C03093800280916B
:1049800080028E7F91E009F490E08091800290FB9C
:1049900080F9809380020E94442180912C0280FF44
:1049A0000FC08091800286951F928F9388EA9BE0CA
:1049B0009F938F930E94C0070F900F900F900F90BE
:1049C0008091800286950C94B40920918002922FE8
:1049D00096959827990F822F8170892B809380025A
:1049E0008E7F91E009F490E08091800290FB80F945
:1049F000809380020E9444218091800286950C94CD
:104A0000B40980915202089508959FB7F8941092C6
:104A100031029FBF90918502943009F058C0909167
:104A2000E9009F702091EC0020FF02C020E801C047
:104A300020E0292B93E09093E9009091EB0090FF08
:104A400043C09091EE0097FF3FC090912F029923B1
:104A500021F09091E80095FF37C010922F0296E068
:104A60003091E80035FD15C030918502343061F594
:104A70003091EB0035FD28C0915021F481E0809306
:104A80002F0222C0EFE9FFE03197F1F700C00000EC
:104A9000E7CF8093F1008091E80085FD0AC0809106
:104AA000E80080FFFCCF8091E8008E778093E800DB
:104AB00006C08FB7F89491E0909331028FBF2F70AA
:104AC0002093E90080E008952F702093E9008FEF94
:104AD0000895CF93DF9300D01F92CDB7DEB720911A
:104AE0008502243021F523E029839B838A8382E099
:104AF0008093E9008FEF9091E800815095FD06C00A
:104B000095ED9A95F1F700008111F5CF8091E800BD
:104B100085FF0DC040E050E063E070E0CE010196FB
:104B20000E9405288091E8008E778093E8000F901E
:104B30000F900F90DF91CF910895CF93DF9300D026
:104B40001F92CDB7DEB720918502243029F522E0EF
:104B50002983805891099B838A832093E9008FEFF2
:104B60009091E800815095FD06C095ED9A95F1F77A
:104B700000008111F5CF8091E80085FF0DC040E075
:104B800050E063E070E0CE0101960E94052880911C
:104B9000E8008E778093E8000F900F900F90DF91E0
:104BA000CF910895CF93DF93EC01809185028430FB
:104BB00009F046C090910D019923D9F090917E02A1
:104BC00097FF17C08093E9008FEF9091E800815024
:104BD00095FD06C095E19A95F1F700008111F5CF9A
:104BE0008091E80085FF2CC040E050E060E270E07A
:104BF00017C081E08093E9008FEF9091E800815029
:104C000095FD06C095ED9A95F1F700008111F5CF5D
:104C10008091E80085FF14C040E050E068E070E05B
:104C2000CE010E9405288091E8008E778093E800ED
:104C300080E2FE01A2E3B2E001900D928A95E1F7D5
:104C4000DF91CF91089587E29CE00E942707809131
:104C50008402811109C00E9497290E94F429809141
:104C6000E20084608093E200089583E29CE00E9469
:104C700027071092840208958FE19CE00C94270787
:104C80008BE19CE00C94270787E19CE00E942707BA
:104C90000C948C21809130028F5F8093300262E30C
:104CA0000E948B2C911135C01092300280913102FC
:104CB000882379F180918502843049F58091E9005B
:104CC0008F709091EC0090FF02C090E801C090E0DE
:104CD000982B83E08093E9008091EB0080FF14C063
:104CE0008091EE0087FF10C08091E80085FF03C02F
:104CF0001092F100F9CF8091E80080FF05C080910B
:104D0000E8008E778093E8009F709093E9001092FE
:104D10003102089542E061EC81E00E94112942E0F5
:104D200061EC82E00E94112942E261EC83E00E9482
:104D3000112942E261EC84E00C94112980918702F0
:104D4000833009F455C030F4813071F0823009F4B9
:104D50008EC008958A3009F47AC08B3009F460C09F
:104D6000893009F09CC020C080918602813A09F008
:104D700096C08091E800877F8093E80080918A0246
:104D800090918B02892B21F060E080E090E003C0DD
:104D900060E282E392E070E00E944E288091E80099
:104DA0008B778093E800089580918602813209F024
:104DB00076C080918A0290918B02009719F0039738
:104DC00009F06DC08091E800877F8093E8008091B2
:104DD000E80082FD05C0809185028111F8CF5FC097
:104DE0008091F100809352028091E8008B7753C04C
:104DF00080918602813A09F052C080918A02909196
:104E00008B02892B09F04BC08091E800877F80934B
:104E1000E8008091E80080FFFCCF80910D0136C052
:104E2000809186028132D9F580918A0290918B021D
:104E3000892BA9F58091E800877F8093E8000E9484
:104E400046298091880280930D010C948F198091DE
:104E50008602813221F58091E800877F8093E80007
:104E60000E9446298091890280935302089580917F
:104E70008602813AA1F48091E800877F8093E80060
:104E80008091E80080FFFCCF809153028093F10075
:104E90008091E8008E778093E8000C94462908956D
:104EA00084B7877F84BF88E10FB6F8948093600051
:104EB000109260000FBE80E8809361001092610044
:104EC0000E94C6140E9497290E94F4298091E20052
:104ED00084608093E20085E095E20E94CD20789482
:104EE0000E946E2C0E94C81483E091E00E9443143B
:104EF00086E09CE00E94270780918502853089F436
:104F000082E09CE00E9427070E9449218091830251
:104F1000882391F30E947721882371F30E94EF2761
:104F2000EBCF0E94FA140E941014E6CF292F3327EA
:104F300023303105A9F06CF42130310509F442C069
:104F40002230310509F043C084E790E023E53CE0DE
:104F500042C021323105C9F02232310519F137C082
:104F600099278130910541F08230910541F0892BDC
:104F700071F5EFE4FCE005C0EDE3FCE002C0EBE21C
:104F8000FCE0849190E09F0126C0643000F5E62F9C
:104F9000F0E0EE0FFF1FE25DFE4F2081318189E0DE
:104FA00090E019C0643098F4E62FF0E0DF01AA0F1A
:104FB000BB1FAA5DBE4F2D913C91EE5DFE4F8081DF
:104FC00090E009C082E190E027EC3CE004C080E082
:104FD00090E020E030E0FA0131832083089580E101
:104FE00089BD82E189BD09B400FEFDCF8091D80062
:104FF0008F7D8093D8008091E00082608093E000F4
:105000008091E00081FDFCCF0895CF92DF92EF9276
:10501000FF920F931F93CF93DF937C018B01EA01E3
:105020000E946729811131C0209731F088819981D0
:10503000081B190BE80EF91EC12CD12C0115110506
:1050400019F18091E80085FD14C08091E8008E7709
:105050008093E800209741F0888199818C0D9D1DF7
:105060009983888385E011C00E946729882331F3E2
:105070000CC0F70181917F018093F100015011096B
:10508000FFEFCF1ADF0ADACF80E0DF91CF911F91D7
:105090000F91FF90EF90DF90CF90089520918C02B8
:1050A00030918D022617370748F06115710539F4E4
:1050B0002091E8002E772093E80001C0B901FC019F
:1050C00020E061157105B9F180918502882309F40A
:1050D00040C0853009F43FC08091E80083FD3DC0A9
:1050E0008091E80082FF06C08091E80082FF26C020
:1050F00080E008958091E80080FFE3CF2091F300E5
:105100008091F20090E0922B6115710551F088308A
:10511000910538F421912093F100615071090196B5
:10512000F3CF21E0089709F020E08091E8008E7726
:105130008093E800C6CF2111C7CFD6CF80918502DA
:10514000882339F0853039F08091E80083FFCCCF97
:1051500004C082E0089583E0089581E008952091DD
:105160008C0230918D022617370748F061157105C2
:1051700039F42091E8002E772093E80001C0B901AE
:10518000FC0120E061157105C1F180918502882341
:1051900009F441C0853009F440C08091E80083FDE6
:1051A0003EC08091E80082FF06C08091E80082FF47
:1051B00027C080E008958091E80080FFE3CF209130
:1051C000F3008091F20090E0922B6115710559F087
:1051D0008830910540F424912093F100319661507C
:1051E00071090196F2CF21E0089709F020E0809143
:1051F000E8008E778093E800C5CF2111C6CFD5CFC8
:1052000080918502882339F0853039F08091E8005B
:1052100083FFCBCF04C082E0089583E0089581E04E
:105220000895982F973058F59093E900981739F022
:105230007091EC002091ED005091F00003C0242FFC
:10524000762F50E021FF19C03091EB003E7F309364
:10525000EB003091ED003D7F3093ED003091EB009D
:1052600031603093EB007093EC002093ED0050938D
:10527000F0002091EE0027FF07C09F5FD3CF8F7013
:105280008093E90081E0089580E00895809186028E
:1052900087FD05C08091E80080FF0EC012C080919C
:1052A000E80082FD05C0809185028111F8CF089544
:1052B0008091E8008B7708C0809185028111EACF48
:1052C00008958091E8008E778093E800089580919A
:1052D000E4009091E50045E62091EC0020FF21C01C
:1052E0002091E80020FD21C020918502222389F031
:1052F000253089F02091EB0025FD0FC02091E400BE
:105300003091E5002817390739F3415041F0C901C0
:10531000E3CF82E0089583E0089581E0089584E07A
:1053200008952091E80022FFDFCF80E008950E94D9
:10533000052A0E940D2AE0EEF0E0808181608083E2
:10534000E8EDF0E080818F77808319BCA7EDB0E0B5
:105350008C918E7F8C9380818F7E808310928402CB
:1053600008950F931F93CF93DF930E94052A0E9405
:105370000D2AC8EDD0E088818F7788838881806886
:10538000888388818F7D888319BC10928502109252
:105390008102109283021092820200EE10E0F80166
:1053A00080818B7F808388818160888342E060E098
:1053B00080E00E941129E1EEF0E080818E7F808301
:1053C000E2EEF0E08081816080838081886080836C
:1053D000F80180818E7F8083888180618883DF915E
:1053E000CF911F910F910895E8EDF0E080818F7EBD
:1053F0008083E7EDF0E080818160808384E082BF7C
:1054000081E0809384020C94B129E8EDF0E0808182
:105410008E7F80831092E20008951092DA0010923D
:10542000E10008951F920F920FB60F9211242F934F
:105430003F934F935F936F937F938F939F93AF931C
:10544000BF93EF93FF938091E10082FF0BC08091A7
:10545000E20082FF07C08091E1008B7F8093E10032
:105460000E944A268091DA0080FF1FC08091D800F8
:1054700080FF1BC08091DA008E7F8093DA008091DC
:10548000D90080FF0DC080E189BD82E189BD09B4EA
:1054900000FEFDCF81E0809385020E94232605C097
:1054A00019BC109285020E9435268091E10080FF90
:1054B00019C08091E20080FF15C08091E2008E7FCC
:1054C0008093E2008091E20080618093E20080910D
:1054D000D80080628093D80019BC85E08093850253
:1054E0000E9440268091E10084FF30C08091E2005C
:1054F00084FF2CC080E189BD82E189BD09B400FE32
:10550000FDCF8091D8008F7D8093D8008091E100FD
:105510008F7E8093E1008091E2008F7E8093E20095
:105520008091E20081608093E20080918102882373
:1055300011F084E007C08091E30087FF02C083E0A0
:1055400001C081E0809385020E9444268091E100A1
:1055500083FF29C08091E20083FF25C08091E10094
:10556000877F8093E10082E0809385021092810220
:105570008091E1008E7F8093E1008091E2008E7F38
:105580008093E2008091E20080618093E20042E03B
:1055900060E080E00E9411298091F0008860809393
:1055A000F0000E943C26FF91EF91BF91AF919F9137
:1055B0008F917F916F915F914F913F912F910F90BC
:1055C0000FBE0F901F9018951F920F920FB60F925B
:1055D00011242F933F934F935F936F937F938F93F8
:1055E0009F93AF93BF93CF93EF93FF93C091E90045
:1055F000CF708091EC001092E9008091F000877FDD
:105600008093F00078940E94202B1092E900809102
:10561000F00088608093F000C093E900FF91EF9163
:10562000CF91BF91AF919F918F917F916F915F913A
:105630004F913F912F910F900FBE0F901F90189593
:105640001F93CF93DF93CDB7DEB7AA970FB6F89429
:10565000DEBF0FBECDBFE6E8F2E08091F10081939E
:1056600022E0EE38F207C9F70E949E268091E800FA
:1056700083FF1CC12091860230918702832F90E026
:105680008A30910508F012C1FC01E556FF4F0C94D9
:10569000BF2C203881F0223809F008C180918A029D
:1056A0008F708093E9008091EB0085FB882780F95B
:1056B0001092E90006C080918202909183029111BC
:1056C00082609091E800977F9093E8008093F100CA
:1056D0001092F100C5C0822F8D7F09F0E7C0222310
:1056E00019F0223061F0E2C080918802813009F027
:1056F000DDC0333009F080E08093830228C08091C0
:105700008802811124C020918A022F7009F4CEC032
:105710002093E9008091EB0080FF19C08091EB009D
:10572000333011F4806211C080618093EB0081E01E
:1057300090E0022E01C0880F0A94EAF78093EA00F5
:105740001092EA008091EB0088608093EB00109249
:10575000E9008091E800877F86C02111A7C01091E1
:1057600088021F778091E3008078812B8093E3008B
:105770008091E800877F8093E8000E94462980910D
:10578000E80080FFFCCF8091E30080688093E30015
:10579000112311F083E001C082E08093850286C06E
:1057A0002058223008F082C08091880290918902AE
:1057B0008C3D23E0920779F583E08A838AE289832E
:1057C0004FB7F894DE01139620E03EE051E2E32F5C
:1057D000F0E050935700E49120FF03C0E295EF7092
:1057E0003F5FEF708E2F90E0EA3010F0C79601C057
:1057F000C0968D939D932F5F243149F74FBF8091C1
:10580000E800877F8093E8006AE270E0CE010196AD
:105810000E944E2814C0AE014F5F5F4F60918A0214
:105820000E949627009709F441C02091E800277F45
:105830002093E800BC0189819A810E94AF28809161
:10584000E8008B778093E80031C0203879F58091AB
:10585000E800877F8093E800809181028093F100C7
:105860008091E8008E778093E8000E9446291EC050
:1058700021111CC0909188029230C0F48091E80000
:10588000877F8093E800909381020E94462980914F
:105890008102811104C08091E30087FF02C084E08F
:1058A00001C081E0809385020E948A268091E800F1
:1058B00083FF0AC08091E800877F8093E800809191
:1058C000EB0080628093EB00AA960FB6F894DEBFDF
:1058D0000FBECDBFDF91CF911F910895CF938091DF
:1058E00085028823B1F08091E9008F709091EC00DF
:1058F00090FF02C090E801C090E0C92FC82B109221
:10590000E9008091E80083FD0E94202BCF70C093B6
:10591000E900CF910895991B79E004C0991F96176B
:1059200008F0961B881F7A95C9F780950895AA1BE1
:10593000BB1B51E107C0AA1FBB1FA617B70710F07A
:10594000A61BB70B881F991F5A95A9F780959095AC
:10595000BC01CD01089597FB072E16F4009407D0E3
:1059600077FD09D00E94972C07FC05D03EF4909556
:1059700081959F4F0895709561957F4F0895EE0F23
:10598000FF1F0590F491E02D0994F999FECF92BD87
:1059900081BDF89A992780B50895A6E1B0E044E06A
:1059A00050E00C94FF2CA8E1B0E042E050E00C94F1
:1059B000FF2C262FF999FECF92BD81BDF89A019751
:1059C00000B4021639F01FBA20BD0FB6F894FA9A47
:1059D000F99A0FBE08950396272F0E94DA2C0E9491
:1059E000D92C252F0E94DA2C242F0C94DA2C019626
:1059F000272F0E94DA2C0C94D92CDC01CB01FC015E
:105A0000F999FECF06C0F2BDE1BDF89A319600B417
:0E5A10000D9241505040B8F70895F894FFCF22
:105A1E00FF09020125D22504259D256925019091B6
:105A2E00929395366667F1F0C6333231303534973E
:105A3E009694403622396A0D340D120DD90C650C30
:065A4E007E0C970CB70C62
:00000001FF
