:100000000C94D2060C9416070C9416070C94160741
:100010000C9416070C9416070C9416070C941607EC
:100020000C9416070C9416070C947C290C944E2AF9
:100030000C94FE200C9416070C9416070C941607CB
:100040000C9416070C9416070C9416070C941607BC
:100050000C9416070C9471210C9416070C94160737
:100060000C9416070C9416070C9416070C9416079C
:100070000C9416070C9416070C9416070C9416078C
:100080000C9416070C9416070C9416070C9416077C
:100090000C9416070C9416070C9416070C9416076C
:1000A0000C9416070C9416070C94160759085F0851
:1000B000630866086A086E08720876087B087F087D
:1000C000830887088A088E08920896089A089F086D
:1000D0002F172F1762176217A21708190819081986
:1000E000C41708196B186B18D518DD1808190319EF
:1000F0007818781878187818781878187818781880
:10010000781878187818781878187818781878186F
:10011000881898189F18A618B01884198419971968
:1001200097198D1997199719971984198419931983
:10013000971997199319B32AD52AC02BD52AC02B02
:10014000172B3A2BC02B8F2BA22B00F000201E0068
:100150001F0020002100220023002400250026008B
:1001600027002D002E004C002A002B0014001A003E
:100170000800150017001C0018000C0012001300E6
:100180002F0030003100000002510400160007006B
:1001900009000A000B000D000E000F0033003400B0
:1001A000320028000000E10064001D001B00060072
:1001B000190005001100100036003700380000005B
:1001C000E5000000E000E300E200000000000000A5
:1001D0002C00000000000000E600E7000151E400F0
:1001E00000003500010001000100010001000100D4
:1001F0000100010001000100010001000070010088
:1002000001000100010001000100010001000100E6
:1002100001000100010030703170327000000100F7
:1002200001000100010001000100010001000100C6
:1002300001000100010001000100000001000100B7
:100240003470357036703770387039703A703B7072
:100250000100010000000100000001000100010098
:10026000000000000000010000000000000001008C
:10027000010001000100000035003A003B003C0095
:100280003D003E003F00400041004200430044006A
:10029000450000704C0000000000E000E10000009C
:1002A00000000000000052000000460000000000B6
:1002B000000000000000000000000000000000003E
:1002C0004A00500051004F004D00000000000000A7
:1002D000000000000000000000000000000000001E
:1002E0000000A800AA00A900000000000000000013
:1002F0000000000000000000000000007600000088
:1003000000000000000000000000000000000A449F
:10031000454255473A20656E61626C65642E0A005D
:100320000A002530313662003A200025303258006C
:100330000A722F6320303132333435363738394141
:1003400042434445460A0054494D455233206469AE
:100350007361626C65642E0A0054494D4552332026
:10036000656E61626C65642E0A007267626C696713
:1003700068742073657420687376205B454550521D
:100380004F4D5D3A2025752C25752C25750A007278
:1003900067626C6967687420746F67676C653A2080
:1003A0007267626C696768745F636F6E6669672EF7
:1003B000656E61626C65203D2025750A007267627A
:1003C0006C69676874206D6F64653A2025750A0052
:1003D0007267626C696768745F696E6974207267BE
:1003E000626C696768745F636F6E6669672E6D6FB4
:1003F0006465203D20302E20577269746520646545
:100400006661756C742076616C75657320746F20FD
:10041000454550524F4D2E0A007267626C696768FD
:10042000745F696E6974206565636F6E66696720C5
:100430006973206E6F7420656E61626C65642E0A4C
:10044000007267626C696768745F696E69742073B3
:1004500074617274210A007267626C696768745F04
:10046000696E69742063616C6C65642E0A00726742
:10047000626C696768745F636F6E6669672E766128
:100480006C203D2025640A007267626C696768749D
:100490005F636F6E6669672E736174203D2025640B
:1004A0000A007267626C696768745F636F6E666981
:1004B000672E687565203D2025640A007267686CA8
:1004C000696768745F636F6E6669672E6D6F6465D8
:1004D000203D2025640A007267626C696768745F5A
:1004E000636F6E6669672E656E61626C65203D2084
:1004F00025640A007267626C696768745F636F6E77
:10050000666967206570726F6D0A006565636F6E5E
:100510006669675F7570646174655F7267626C6954
:100520006768745F64656661756C740A0064321490
:10053000643214783C1E1E140A05000000000101FC
:10054000010202030405050607090A0B0C0E0F1130
:1005500012141517191B1D1F212325282A2C2F3192
:100560003436393B3E414346494C4F5255585A5D0B
:100570006164676A6D707376797C7F8386898C8FFE
:100580009295989B9EA2A5A7AAADB0B3B6B9BCBEE2
:10059000C1C4C6C9CBCED0D3D5D7DADCDEE0E2E425
:1005A000E6E8EAEBEDEEF0F1F3F4F5F6F8F9FAFA35
:1005B000FBFCFDFDFEFEFEFFFFFFFFFFFFFFFEFE5B
:1005C000FEFDFDFCFBFAFAF9F8F6F5F4F3F1F0EEB6
:1005D000EDEBEAE8E6E4E2E0DEDCDAD7D5D3D0CE34
:1005E000CBC9C6C4C1BEBCB9B6B3B0ADAAA7A5A29B
:1005F0009E9B9895928F8C898683807C7976737088
:100600006D6A6764615D5A5855524F4C4946434183
:100610003E3B393634312F2C2A282523211F1D1B20
:100620001917151412110F0E0C0B0A0907060505F0
:1006300004030202010101000000000000000001AB
:100640000101010101010101020202020202020292
:100650000203030303030303030404040404040563
:100660000505050506060606060707070708080824
:10067000080909090A0A0A0A0B0B0B0C0C0C0D0DD0
:100680000D0E0E0F0F0F1010111111121213131463
:1006900014151516161717181819191A1A1B1C1CD9
:1006A0001D1D1E1F1F202021222223242525262731
:1006B0002728292A2B2B2C2D2E2F2F303132333463
:1006C0003536363738393A3B3C3D3E3F4041424370
:1006D00044464748494A4B4C4D4F5051525355564A
:1006E00057585A5B5C5E5F606263646667696A6CF8
:1006F0006D6E707173747678797B7C7E8081838473
:1007000086888A8B8D8F91929496989A9B9D9FA1B3
:10071000A3A5A7A9ABADAFB1B3B5B7B9BBBDBFC1B9
:10072000C4C6C8CACCCFD1D3D6D8DADCDFE1E4E680
:10073000E8EBEDF0F2F5F7FAFCFF0A00253032584D
:1007400020006B6579626F6172645F7265706F72B1
:10075000743A20000A0025303258006B6579626FC8
:100760006172645F7365745F6C65643A20006465F0
:100770006C5F6B65795F6269743A2063616E2774A0
:100780002064656C3A20253032580A006164645F49
:100790006B65795F6269743A2063616E27742061CA
:1007A00064643A20253032580A003F00433E20005E
:1007B0004C25640A0074696D65725F72656164330B
:1007C0003228293A202530346C580A006B65796D3F
:1007D00061705F636F6E6669672E6E6B726F3A2031
:1007E00025580A006B6579626F6172645F69646C99
:1007F000653A2025580A006B6579626F6172645F03
:1008000070726F746F636F6C3A2025580A00686FBE
:1008100073745F6B6579626F6172645F6C6564733A
:1008200028293A2025580A000A092D20537461749A
:100830007573202D0A004743433A20342E382E3258
:10084000204156522D4C4942433A20312E382E3009
:10085000204156525F415243483A20617672350A30
:10086000004F5054494F4E533A204C554641204575
:10087000585452414B455920434F4E534F4C4520FD
:10088000434F4D4D414E44204E4B524F2034303952
:10089000360A004255494C443A20226572676F641B
:1008A0006F785F657A2D3136313230352D31323106
:1008B0002D6738663237643022202831313A33339D
:1008C0003A3135204A616E203131203230313729BA
:1008D0000A005649443A2030784645454428536535
:1008E0006E7472617129205049443A203078363054
:1008F0003630285336302D52474229205645523A39
:10090000203078303030330A00444553433A205188
:100910004D4B206B6579626F617264206669726D00
:100920007761726520666F722053656E74726171B3
:10093000205336302D5247420A000A092D205665B1
:100940007273696F6E202D0A000A092D20436F6EA5
:10095000736F6C65202D0A4553432F713A097175E9
:1009600069740A000A092D204D61676963202D0A08
:10097000443A094465627567204D65737361676524
:1009800020546F67676C650A583A094D6174726943
:1009900078204465627567204D6F646520546F67E9
:1009A000676C65202D2053686F77206B65797072B6
:1009B000657373657320696E206D61747269782048
:1009C000677269640A4B3A094B6579626F617264B8
:1009D00020446562756720546F67676C65202D2021
:1009E00053686F77206B65797072657373207265D9
:1009F000706F72740A4D3A094465627567204D6FD5
:100A000075736520546F67676C650A563A095665B9
:100A10007273696F6E0A533A095374617475730A7D
:100A2000433A09416374697661746520436F6E735C
:100A30006F6C65204D6F64650A46312D4631303A42
:100A40000953776974636820746F204C617965720B
:100A500020302D392028463130203D204C30290AC5
:100A6000302D393A0953776974636820746F204CCC
:100A70006179657220302D390A4553433A0953771D
:100A80006974636820746F204C617965722030202E
:100A900028616C7465726E617465206B65792031B4
:100AA000290A47524156453A0953776974636820C9
:100AB000746F204C6179657220302028616C7465F8
:100AC000726E617465206B65792032290A50415538
:100AD00053453A094A756D7020746F20426F6F74E8
:100AE0006C6F6164657220285265736574290A4EC3
:100AF0003A094E4B524F20546F67676C650A003FAE
:100B0000004E4B524F3A206F66660A004E4B524FD2
:100B10003A206F6E0A000A6D6F7573653A206F6632
:100B2000660A000A6D6F7573653A206F6E0A000AD7
:100B30006B6579626F6172643A206F66660A000ABB
:100B40006B6579626F6172643A206F6E0A000A6D9C
:100B500061747269783A206F66660A000A6D617482
:100B60007269783A206F6E0A000A64656275673AA6
:100B7000206F66660A000A64656275673A206F6EC8
:100B80000A000A0A4A756D70696E6720746F2062E8
:100B90006F6F746C6F616465722E2E2E2000433E61
:100BA00020006261636B6C696768742073746570A0
:100BB0003A2025750A006261636B6C69676874206E
:100BC000746F67676C653A2025750A006261636B14
:100BD0006C696768742064656372656173653A2047
:100BE00025750A006261636B6C6967687420696EC1
:100BF0006372656173653A2025750A005B735D0059
:100C00004B6579626F6172642073746172742E0A2D
:100C1000005B575D005B535D005B525D005B445DB4
:100C2000005B435D0010035300360030002D00527E
:100C3000004700420000001003530065006E00747E
:100C400000720061007100000004030904090274CD
:100C500000040100A0FA09040000010301010009D9
:100C600021110100012240000705810308000A0943
:100C700004010001030000000921110100012236D6
:100C8000000705820308000A0904020002030000AD
:100C90000009211101000122220007058303200021
:100CA00001070503032000010904030001030000FC
:100CB00000092111010001223900070584032000E9
:100CC000011201100100000008EDFE606003000148
:100CD00002000105010906A101050719E029E71530
:100CE000002501950875018102050819012905955E
:100CF00005750191029501750391010507190029F8
:100D0000F71500250195F875018102C00631FF092C
:100D100074A1010975150026FF0095207508810250
:100D20000976150026FF00952075089102C005017F
:100D30000980A10185021601002603001A81002AFC
:100D40008300751095018100C0050C0901A1018582
:100D500003160100269C021A01002A9C02751095B8
:100D6000018100C005010906A101050719E029E775
:100D7000150025019508750181029501750881010D
:100D8000050819012905950575019102950175035D
:100D900091010507190029FF150026FF009506752A
:100DA000088100C011241FBECFEFDAE0DEBFCDBF47
:100DB00004B603FE24C080915B0290915C02A09176
:100DC0005D02B0915E028730904BA740B04BB9F402
:100DD00010925B0210925C0210925D0210925E0211
:100DE00014BE84B7877F84BF88E10FB6F8948093E0
:100DF0006000109260000FBEE0E0F8E3099511E09A
:100E0000A0E0B1E0E2EFF8E502C005900D92A63354
:100E1000B107D9F712E0A6E3B1E001C01D92AB35EE
:100E2000B107E1F70E94BA260C94772C0C940000CD
:100E3000FF93EF93E0913601F0913701309709F07D
:100E40000995EF91FF910895FC018591803011F093
:100E5000EFDFFBCF0895FF27E0E230E247FF0CC051
:100E6000419597FF09C0EDE260957095809590954A
:100E7000611D711D811D911D27FF02C0219530E369
:100E800050E2AA27660F771F881F991FAA1FA41771
:100E900010F0A41B63955A95A9F7AA3008F0A95F32
:100EA000A05DAF93F395611571058105910541F73B
:100EB000ED3211F4EF93F395F21718F43F93F39595
:100EC000FBCF8F91B5DFFA95E1F70895E991F9919C
:100ED0008591803021F0853219F0AADFF9CF08958D
:100EE00020E0E89455915532C1F3503311F46894E1
:100EF00055915A3348F4505390F3220F022E220F8B
:100F0000220F200D250FF4CF0EF421958991999190
:100F1000533619F3533729F1533559F1BC0188275A
:100F20009927E8945C3621F48991999168945591B8
:100F3000543639F446EF7EF077FF0DC08FEF9FEF08
:100F40000AC055374AE039F0583540E121F05236B1
:100F500042E009F00895FF93EF937DDFEF91FF9159
:100F6000B7CFFF93EF93FC0181918030B9F360DF3D
:100F7000FBCFFF93EF9368DFF1CFDF93CF93CDB734
:100F8000DEB72596A3DFCF91DF9108950E94580C1C
:100F90000C94C8090C94590CCF93DF93EC016111A8
:100FA0001BC00E94BC1F8272809338019A819923D2
:100FB00041F0882311F085E301C089E20E94191FE6
:100FC00007C0882311F085E301C089E20E946A1FEF
:100FD000DF91CF910C940820DF91CF91089581E0AB
:100FE000089581E008950C94F1070E9472192FEF83
:100FF00084E39CE0215080409040E1F700C0000075
:101000000C9496210F931F93CF93DF938C01FC01D7
:10101000C081D181CE010E94991EBE010E947D0B2C
:10102000EC01B8010E94F307882309F464C1B801F8
:10103000CE010E940C0C882309F45DC1C633F0E791
:10104000DF0741F4F8018281882309F454C10E942A
:10105000E60F51C1C73380E7D80708F0C3C0C531D8
:1010600090E7D90708F0A7C0C230E0E7DE0708F430
:1010700078C0F8018281882309F47FC00E948E2005
:10108000811102C00E9468200E94A12090E09093EC
:101090004C0280934B02FE01E350F047E231F10530
:1010A00020F4EA5AFF4F0C94292C80914B02816066
:1010B00003C080914B02826080934B024BC08091B1
:1010C0004B028460F9CF80914B0213C080914B0298
:1010D0008061F2CF80914B028062EECF80914B0213
:1010E0008064EACF80914B028068E6CF80914B020A
:1010F00084608860E1CF80914B028E7FDDCF80914C
:101100004B028D7FD9CF80914B028B7FD5CF8091C1
:101110004B0213C080914B028F7ECECF80914B0249
:101120008F7DCACF80914B028F7BC6CF80914B02BF
:101130008F77C2CF80914B028B7F877FBDCF9091FD
:101140004B0297FB882780F921E0822780FB97F9E3
:1011500090934B0280914B020E94A5200E9472192D
:10116000CAC0C115F0E7DF0779F0C130D047A1F060
:1011700081E080933B0180933C01C801DF91CF91D6
:101180001F910F910C94EF07F8018281882309F4D5
:10119000B2C00E94F507AFC0F8018281882309F42C
:1011A000AAC08EE093E00E9424078091F90181603B
:1011B0008093F901A0C0C43390E7D90741F4F80146
:1011C0008281882309F497C00E94651194C0C533B9
:1011D000D04771F6F8018281882309F48CC00E94FF
:1011E0005B1189C0CA33F0E7DF0741F4F80182815F
:1011F000882309F480C00E9453107DC0CB3380E760
:10120000D807D8F4F8018281C833F0E7DF0731F45A
:10121000882309F470C00E941E106DC0C933D047E6
:1012200030F4882309F467C00E94FF0F64C088234C
:1012300009F461C00E9439105EC0CC33E0E7DE07DC
:1012400019F5F8018281882351F010923B010E9428
:10125000302190933A018093390182E02AC0809135
:101260003B0181110FC08091390190913A010E9498
:101270004821883C910530F486E20E94C21586E23E
:101280000E94951682E01DC0CC33F0E7DF07E0F046
:10129000CD33D04709F06CCFF8018281882361F00B
:1012A00010923C010E94302190933A0180933901C1
:1012B00080E20E94E4161FC080913C01882359F00F
:1012C00080E20E94EB1617C0F8018281882399F012
:1012D0000E946E1010C08091390190913A010E94D5
:1012E0004821883C910560F787E20E94C21587E299
:1012F0000E949516E5CF80E0DF91CF911F910F916D
:1013000008950C94CA07279A2F988FEF9FEF909318
:101310008700809386008AE08093800089E1809333
:1013200081000C9482230E9483090C94C6072F9895
:1013300081110AC080918000877F80938000109285
:101340008D0010928C000895833041F480918000CC
:101350008860809380008FEF9FEF12C09091800093
:1013600098609093800023E030E0281B3109220F21
:10137000331F8FEF9FEF02C0969587952A95E2F76E
:1013800090938D0080938C00089508950C94C50966
:1013900008950C94C6092FE0729FF00111243BE4DC
:1013A000839FE00DF11D1124E60FF11DEE0FFF1FCD
:1013B000E45BFE4F859194910E948F0B811540E56F
:1013C000940708F047C0811520E4920708F01BC17C
:1013D000883E910520F5803E910508F08AC1883A43
:1013E000910578F4853A910508F0A5C08130910502
:1013F00009F47FC108F436C18430910508F079C141
:1014000031C18D3B910508F4A1C0803C910508F4E1
:1014100029C1FC01EE0FFF1FE653F040EEC081151D
:1014200030E2930758F4811541E0940708F061C158
:10143000803F910508F416C190650895811520E359
:10144000920708F0DDC09F70880F991F865B9E4F42
:10145000FC01D3C0811535E5930708F043C0811521
:1014600044E5940708F0E6C0811522E5920708F5E7
:10147000811531E5930708F0C9C0482F437021E07A
:1014800030E002C0220F331F4A95E2F73C68AC01FE
:1014900064E0569547956A95E1F74370342B8F7059
:1014A0008695869540E2849FC0011124822B932B60
:1014B0000895282F26952695AC0143705527811550
:1014C000934508F0A8C030E2239FC001112421E019
:1014D00030E002C0220F331F4A95E2F7822B932B94
:1014E0009C680895803340E7940790F4803220E7A9
:1014F000920708F0AAC0811536E5930708F49FC04B
:101500009C0130562115304108F0ACC09F709BC043
:10151000813320E7920709F49FC008F49AC0823310
:1015200040E7940709F49BC08333904709F09AC0C1
:1015300080E093ED0895853A910509F496C0863AC6
:10154000910509F495C083E890E40895883A9105DF
:1015500009F491C0893A910509F490C08A3A91053D
:1015600009F48FC08B3A910509F48EC08C3A91052D
:1015700009F48DC08B3B910509F48CC08C3B91051F
:1015800009F48BC08D3A910509F48AC0803B91051E
:1015900009F489C08E3A910509F488C08F3A910503
:1015A00009F487C0813B910509F486C0823B91050F
:1015B00009F485C0833B910509F484C0843B9105FF
:1015C00009F483C0853B910509F482C0863B9105EF
:1015D00009F481C0873B910509F480C0883B9105DF
:1015E00009F47FC0893B910509F47EC08A3B9105CF
:1015F00009F07DC08AE296E408958591949108955A
:101600009927906C08959F70906A0895982F882765
:10161000816F906A089530E2239FC001112421E078
:1016200030E002C0220F331F4A95E2F7822B932B42
:101630009A680895982F8827846F906A08958F710B
:101640009927982F88279062089580529047946D2B
:10165000089580E091ED089580E090ED089580E098
:1016600092ED089580E090E0089581E890E4089577
:1016700082E890E4089582EE94E4089589EE94E47B
:1016800008958AEE94E4089585EB94E4089586EB3A
:1016900094E4089583EB94E4089584EB94E408952E
:1016A00087EB94E408958CEC94E408958DEC94E435
:1016B000089583E895E408958AE895E4089582E919
:1016C00095E4089584E995E4089581E296E4089507
:1016D00083E296E4089584E296E4089585E296E430
:1016E000089586E296E4089587E296E4089580E0FE
:1016F00094E4089580E090E008959FE0799FF001E0
:1017000011249BE4899FE00DF11D1124E60FF11DCA
:10171000EE0FFF1FE45BFE4F859194910895823890
:10172000910549F1B0F48133910509F459C048F4A9
:101730008932910509F44FC08A32910509F455C0E8
:1017400008958533910509F441C08933910599F0D5
:101750000895833E910531F138F4803E910591F072
:10176000823E9105A9F00895863E910501F1873EDC
:10177000910539F1089520914B0220FD3BC021FDD8
:1017800039C0089580914B0280FF34C089E341C085
:1017900080914B0282FF32C080914B0284FF2CC0AB
:1017A00080E037C080914B0282FD28C0F5CF809148
:1017B0004B0283FF25C080914B0284FDF1CF87EE61
:1017C00028C080914B0283FD1BC0F5CF80914B0256
:1017D00085FF18C019C080914B0285FF15C012C04B
:1017E00080914B0286FF12C013C080914B0286FF8E
:1017F0000FC00CC080EE0DC083EE0BC082EE09C09E
:1018000086EE07C085E305C089E203C081E301C01D
:101810008AE290E008950895CF93DF93EC01FB01F5
:101820008281811102C081E040C080914A01811112
:1018300025C0C531D047B9F70E940B0C81E08093D9
:101840004A010E94302190934901809348011092EF
:101850003D0110923F0110923E0110924101109201
:1018600040011092430110924201109245011092E2
:101870004401109247011092460116C08091480120
:10188000909149010E944821883C910560F6809121
:101890003D01E82FF0E0EE0FFF1FE25CFE4FD18329
:1018A000C0838F5F80933D0180E0DF91CF910895E9
:1018B00008950895CF93DF9385B7806885BF85B776
:1018C000806885BFADE1B1E021E030E08D91E82F87
:1018D000E295EF70F0E041A18F70B90102C0660F90
:1018E000771F8A95E2F7CB01962F9095492341A364
:1018F00092A1982B92A371E0A232B70739F7AEE01C
:10190000B1E021E030E08D91E82FE295EF70F0E05A
:1019100041A18F70B90102C0660F771F8A95E2F767
:10192000CB01962F9095492341A392A1982B92A386
:1019300071E0AD31B70739F7EFE5F1E0C5E5D1E08A
:10194000ABE4B1E011921192199219921D921D927D
:1019500081E0E936F807B1F7DF91CF910C94930954
:101960004F925F927F928F929F92AF92BF92CF924F
:10197000DF92EF92FF920F931F93CF93DF930DE1CE
:1019800011E0CBE4D1E0EE24E394F12C992493947C
:10199000BE01A880B98019821882D8012D918D01CD
:1019A000E22FE295EF70F0E081A12F70A70102C055
:1019B000440F551F2A95E2F79A01842B81A382A137
:1019C000842E8094882182A350EA5A95F1F74EE044
:1019D000442E41E0542E80E090E0D2014D912D0143
:1019E000C42EC2943FE0C322D12CD60190967C90A5
:1019F000C880D9804F70D70102C0AA0FBB1F4A957B
:101A0000E2F77A2241F4A701082E02C0440F551FC5
:101A10000A94E2F702C040E050E04C295D29598366
:101A2000488301968F309105C1F681A1882181A359
:101A300082A1822B82A32296FB0180819181A8162C
:101A4000B90641F0909269010E94302190936B0198
:101A500080936A01F1E002321F0709F099CF80916B
:101A600069018823B1F080916A0190916B010E9415
:101A70004821069770F0EBE4F1E0AFE5B1E0819129
:101A800091918D939D9341E0E535F407C1F7109254
:101A900069010E94810981E0DF91CF911F910F912F
:101AA000FF90EF90DF90CF90BF90AF909F908F907E
:101AB0007F905F904F900895E82FF0E0EE0FFF1FAA
:101AC000E15AFE4F808191810895CF92DF92EF928B
:101AD000FF920F931F93CF93DF9380E393E00E94D5
:101AE0002407BFE5EB2EB1E0FB2EC0E0D0E01BE207
:101AF000C12E13E0D12E02E213E0DF93CF93DF92E9
:101B0000CF920E94BD0788E293E00E942407F7016C
:101B1000819191917F010E944E209F938F931F93FB
:101B20000F930E94BD0780E293E00E942407219654
:101B30008DB79EB708960FB6F8949EBF0FBE8DBFA7
:101B4000C530D105D1F6DF91CF911F910F91FF9054
:101B5000EF90DF90CF90089531B3242F2095232369
:101B600031B3342B4FB7F894FC01680F791FE61797
:101B7000F70789F0819198E031BB000000C087FF32
:101B800021BB880F000000C000C000C021BB00C006
:101B90009A9591F7ECCF4FBF089520B3242B20BB2B
:101BA0009B01220F331F260F371FB9010E94AC0D76
:101BB00087EC90E00197F1F700C00000089540E441
:101BC0000C94CD0DDF92EF92FF920F931F93CF9362
:101BD000DF93662309F44AC0E42FF0E0AFEFB0E0F2
:101BE000A61BB109BF01A69FE001A79FD00DB69F1C
:101BF000D00D1124FD2FDD2E7B01ED1AF1080CE331
:101C000010E0B8010E94012CEB01BC01E69EC0016E
:101C1000E79E900DF69E900D1124B8010E94012CB4
:101C2000C230D105B1F040F4209779F0219709F541
:101C30008F2FD42E461B20C0C430D10599F068F0F8
:101C40002597B9F4842F861B17C08F2FD62EDF0E51
:101C500013C0862F8F0FD42E03C0D42ED61A842FF4
:101C60004F2F0AC0842F462F4F0F06C0842FD42E2B
:101C700003C080E0D12C40E0E42FF0E0E65CF94FB7
:101C80004491ED2DF0E0E65CF94F9491E82FF0E0FF
:101C9000E65CF94FE491D90111964C9311979C930E
:101CA0001296EC93DF91CF911F910F91FF90EF90DF
:101CB000DF90089588E090E00C94372CAB01BC01D4
:101CC00088E090E00C94552C8091F90180FF08C0C9
:101CD0008BE095E09F938F930E94BD070F900F902C
:101CE00083E080932102109222028FEF80932302DF
:101CF000809324026091210270912202809123023C
:101D0000909124020C945E0E8091F90180FF08C02E
:101D100084EF94E09F938F930E94BD070F900F90E4
:101D20008091F90180FF0FC08091210281701F9284
:101D30008F9387ED94E09F938F930E94BD070F9040
:101D40000F900F900F908091F90180FF10C080914B
:101D5000210286958F731F928F938CEB94E09F9353
:101D60008F930E94BD070F900F900F900F9080915E
:101D7000F90180FF19C090912102991F9927991F9D
:101D800020912202822F880F892B27FB222720F9FE
:101D90002F938F9382EA94E09F938F930E94BD07C5
:101DA0000F900F900F900F908091F90180FF0EC05F
:101DB000809123021F928F9388E894E09F938F93E2
:101DC0000E94BD070F900F900F900F908091F90126
:101DD00080FF0EC0809124021F928F938EE694E0C4
:101DE0009F938F930E94BD070F900F900F900F90BD
:101DF00008958091210280FF06C06AE070E089E2C8
:101E000092E00C94DF0DEBE2F2E0DF0111971C92FF
:101E1000DF0112971C921082339682E0E934F807B2
:101E2000A1F7EBCFEBE2F2E0DF0111978C93DF013A
:101E300012976C934083339692E0E934F907A1F747
:101E40000C94F90ECF92DF92EF92FF920F931F93B3
:101E5000CF93DF9300D01F92CDB7DEB7F82EC92EF7
:101E6000D62EE42E0091210210912202209123020D
:101E7000309124020093250210932602209327021A
:101E8000309328028091210280FF1EC09E012F5FA7
:101E90003F4F8F2D0E94E20D80912502F0FA87F9C5
:101EA00080932502F6942091260220782F29C0FAEB
:101EB00027F920932602D0922702E09228024B8134
:101EC00069818A810E94120F0F900F900F90DF910D
:101ED000CF911F910F91FF90EF90DF90CF900895D9
:101EE0000F931F93CF93DF93C82F192F062FD42F53
:101EF0008091210280FF65C0982F9E77923029F44F
:101F00008C2F912F0E94220F1AC0282F26952F73F5
:101F10009EE3920F9F73943018F4D09124020FC067
:101F2000265C2F73293058F4881F8827881F10914A
:101F30002202C12FCC0FC82B17FB112710F980915B
:101F40002102C0FB87F980932102C695809122026D
:101F500080788C2B10FB87F9809322020093230258
:101F6000D093240260912102709122028091230279
:101F7000909124020E945E0E809124021F928F9302
:101F8000809123021F928F9390912102991F99278C
:101F9000991F20912202822F880F892B27FB22274D
:101FA00020F92F938F938AE693E09F938F930E945B
:101FB000BD078DB79EB708960FB6F8949EBF0FBEAB
:101FC0008DBFDF91CF911F910F9108952091210234
:101FD000221F2227221F30912202432F440F842FD9
:101FE000822B37FB992790F90A9668E671E00E94E8
:101FF000152C40912402609123020C94700F2091C3
:102000002102221F2227221F30912202432F440F38
:10201000842F822B37FB992790F98A3091051CF485
:10202000825A9E4F01C00A9768E671E00E94152C03
:1020300040912402609123020C94700F609123025E
:10204000862F90E08F3E910514F46F5E01C06FEF14
:1020500080912102881F8827881F90912202292FB2
:10206000220F97FB992790F940912402822B0C9420
:10207000700F60912302862F90E0419714F0615118
:1020800001C060E080912102881F8827881F9091FD
:102090002202292F220F97FB992790F940912402C1
:1020A000822B0C94700F40912402842F90E08F3E7D
:1020B000910514F44F5E01C04FEF80912102881FFB
:1020C0008827881F90912202292F220F97FB99279A
:1020D00090F960912302822B0C94700F409124029E
:1020E000842F90E0419714F0415101C040E080916D
:1020F0002102881F8827881F90912202292F220FF2
:1021000097FB992790F960912302822B0C94700F12
:1021100081E0809381018091F90180FF08C089E509
:1021200093E09F938F930E94BD070F900F900895A7
:10213000109281018091F90180FF08C087E493E04B
:102140009F938F930E94BD070F900F9008959091D9
:10215000210290FF4DC09178811102C0926003C0AE
:10216000893120F090639093210205C08F73880F0E
:10217000892B80932102609121027091220280912B
:102180002302909124020E945E0E80912102869586
:102190008F731F928F938DEB93E09F938F930E9489
:1021A000BD0780912102982F9E770F900F900F907E
:1021B0000F90923019F40E94981007C08695825CA7
:1021C0008F73863110F40E94881080912102881F3D
:1021D0008827881F90912202292F220F97FB992789
:1021E00090F94091240260912302822B0C94700F8D
:1021F00008958091F90181608093F90187E594E069
:102200009F938F930E94BD0781E08093820180910C
:10221000F9010F900F9080FF08C081E494E09F9334
:102220008F930E94BD070F900F900E948E20811106
:1022300010C08091F90180FF08C089E194E09F936C
:102240008F930E94BD070F900F900E9468200E94FC
:10225000640E0E945A0E60932102709322028093B2
:102260002302909324026E77C1F48091F90180FFDC
:1022700008C080ED93E09F938F930E94BD070F905D
:102280000F900E94640E0E945A0E60932102709378
:10229000220280932302909324020E94840E81E004
:1022A000809381018091210280FF04C086958F7305
:1022B0000C94A71008958091210286958F738F5FEB
:1022C000893108F081E00C94A71080912102982FA9
:1022D000909590FB80F9809321026091210270918A
:1022E000220280912302909124020E945E0E80912E
:1022F000210281701F928F938FE893E09F938F93B9
:102300000E94BD07809121020F900F900F900F90B7
:1023100080FF04C086958F730C94A7100E949810BC
:102320002FEF80E792E0215080409040E1F700C01D
:1023300000000C94F90ECF93C82F80917F019091EB
:1023400080010E944821EC2FF0E0EA5CFA4FE49112
:10235000F0E08E179F0710F10E94302190938001CA
:1023600080937F01E0917E01F0E0E65CFA4F4491BA
:1023700080912102881F8827881F90912202292F8F
:10238000220F97FB992790F960912302822B0E94DC
:10239000220F80917E018F5F80937E01CF910895FF
:1023A000CF93C82F80917C0190917D010E9448219C
:1023B000EC2FF0E0ED5CFA4FE491F0E08E179F0710
:1023C000E8F00E94302190937D0180937C01409140
:1023D00024026091230280917A0190917B010E94F6
:1023E000220F80917A0190917B01019668E671E05D
:1023F0000E94012C90937B0180937A01CF910895E4
:10240000DF92EF92FF920F931F93CF93DF93D82E1B
:1024100080917801909179010E944821ED2DE695F7
:10242000F0E0ED5CFA4FE491F0E08E179F07E8F1E1
:102430000E943021909379018093780109E212E0A3
:10244000C0E0D0E088E6E82EFF24F3948091760186
:10245000909177018C0F9D1FB7010E94012C98016C
:1024600040912402609123020E94E20DA4960D5F28
:102470001F4FC83681E0D80749F70E94F90E209116
:10248000760130917701D0FE0AC0C9010196BE01E4
:102490000E94012C909377018093760106C0215011
:1024A00031093093770120937601DF91CF911F910D
:1024B0000F91FF90EF90DF9008958F929F92AF92CF
:1024C000BF92CF92DF92EF92FF920F931F93CF9321
:1024D000DF93C82F80FD03C09924939402C09924F0
:1024E0009A9480917401909175010E944821C6953B
:1024F000EC2FF0E0E05DFA4FE491F0E08E179F07DB
:1025000008F469C00E943021909375018093740192
:1025100029E2E22E22E0F22E0BE212E0C0E0D0E04F
:1025200037E0A32EB12CF80131971082F701108209
:10253000F801108297E0C92ED12C812C8091730173
:10254000880D87FD865F992787FD9095C817D90765
:10255000E9F4209124022C9DC0012D9D900D1124A1
:10256000B5010E94152C462F80912102881F8827D3
:10257000881F90912202592F550F97FB992790F9A8
:10258000970160912302852B0E94E20D890CF1E0F6
:10259000CF1AD108C114D10489F6219683E0E80E40
:1025A000F11C0D5F1F4FCA30D10509F0BCCF0E944E
:1025B000F90E8091730191E0991206C0811102C059
:1025C00089E007C0815005C090E00196BE010E94DD
:1025D000152C80937301DF91CF911F910F91FF9084
:1025E000EF90DF90CF90BF90AF909F908F90089525
:1025F0009F92AF92BF92CF92DF92EF92FF920F9392
:102600001F93CF93DF93CDB7DEB76E970FB6F894D5
:10261000DEBF0FBECDBF182F809171019091720166
:102620000E944821E12FF0E0E35DFA4FE491F0E0F1
:102630008E179F0708F492C00E9430219093720178
:10264000809371018E010F5F1F4F5E0183E0A80E22
:10265000B11CE12CF12C6801F50131971082F801D1
:102660001082F5011082912C9091000180917001EF
:10267000999E800D112487FD04C08A301CF089E0EA
:1026800001C080E0992787FD9095E816F906A1F42E
:1026900080912102881F8827881F90912202592F3C
:1026A000550F97FB992790F998014091240260916A
:1026B0002302852B0E94E20D9394F7E09F12D4CF62
:1026C0008FEFE81AF80A0D5F1F4FE3E0AE0EB11C62
:1026D000FAE0EF16F10409F0BFCF2BE232E009E097
:1026E00010E05AE0E52EF12CC801B7010E94152C2C
:1026F000D9011197FC01EE0FFF1FE80FF91FEC0D38
:10270000FD1D81818C93D901129780818C938281E8
:10271000F90180830F5F1F4F2D5F3F4F033111057C
:1027200019F70E94F90E909100018091700191308B
:1027300049F48A3F2CF489EF809370018FEF08C031
:1027400081500AC081313CF080E18093700181E0CA
:102750008093000103C08F5F809370016E960FB667
:10276000F894DEBF0FBECDBFDF91CF911F910F91C7
:10277000FF90EF90DF90CF90BF90AF909F90089523
:10278000CF93DF9380916E0190916F010E94482159
:10279000883E934028F10E94302190936F018093EE
:1027A0006E0180916C0190916D0101968170992765
:1027B00090936D0180936C01C9E2D2E09E0140913B
:1027C00024026091230280E090E00E94E20D2396B3
:1027D00082E0C734D80791F7DF91CF910C94F90EBE
:1027E000DF91CF91089580918101882371F18091CB
:1027F000210286958F739EE3980F9F73943018F48F
:1028000082500C949B119AE3980F9F73933018F4A5
:1028100086500C94D01197E3980F9F73963018F45C
:1028200089500C94001291E3980F9F73963018F41E
:102830008F500C945D129BE2980F9F73933018F4A5
:1028400085510C94F8120C94C0130895909388014C
:10285000809387010895E0918701F0918801309776
:1028600021F00190F081E02D099480E00895FF921D
:102870000F931F93CF93DF938C01E0918701F09129
:102880008801309799F10280F381E02D09958091BC
:10289000F90182FF2BC080FF04C082E497E00E9410
:1028A0002407E80180E2F82E0CE317E08091F9019B
:1028B00080FF0BC088811F928F931F930F930E94FC
:1028C000BD070F900F900F900F90FA942196F11082
:1028D000EDCF8091F90180FF09C08AE397E0DF9195
:1028E000CF911F910F91FF900C942407DF91CF910E
:1028F0001F910F91FF9008952091850130918601DD
:102900008217930771F09093860180938501E0917F
:102910008701F0918801309721F00680F781E02D42
:1029200009940895209183013091840182179307BF
:1029300071F09093840180938301E0918701F0917D
:102940008801309721F00084F185E02D09940895E5
:1029500008950C94A8140E9427210E945A0C0E94EA
:10296000B9210E9482230C94F910CF93C82F809133
:10297000F90182FF1EC080FF04C08BE597E00E9432
:1029800024078091F90180FF0CC01F92CF9326E5A8
:1029900037E03F932F930E94BD070F900F900F9049
:1029A0000F908091F90180FF04C084E597E00E94B8
:1029B00024078C2FCF910C94C9095F926F927F925C
:1029C0008F929F92AF92BF92CF92DF92EF92FF923F
:1029D0000F931F93CF93DF93CDB7DEB72A970FB630
:1029E000F894DEBF0FBECDBF0E94B00C9AE8C92E8E
:1029F00091E0D92E00E010E0AA24A394B12C502E2F
:102A0000802F0E945C0D3C01F601E190F1906F0176
:102A1000E826F926E114F104B1F40F5F1F4F0530E9
:102A2000110569F78FEF89838A831B820E94302109
:102A30008160782F9D838C8349815A816B818D8140
:102A40000E9494153AC08091F90181FD0E94650DA4
:102A500020E030E04501022E02C0880C991C0A9447
:102A6000E2F7C4018E219F21892B09F12E835F8219
:102A70006820792081E0672809F480E088870E9437
:102A800030218160782F9A8789874E815F816885A0
:102A90008A850E949415F801EE0FFF1FE657FE4F3E
:102AA00080819181882599259183808306C02F5F3D
:102AB0003F4F2F30310571F6B0CF109189010E9440
:102AC0002B141817D9F00E942B14809389012A9691
:102AD0000FB6F894DEBF0FBECDBFDF91CF911F912F
:102AE0000F91FF90EF90DF90CF90BF90AF909F90AD
:102AF0008F907F906F905F900C94B5142A960FB6CC
:102B0000F894DEBF0FBECDBFDF91CF911F910F9123
:102B1000FF90EF90DF90CF90BF90AF909F908F90FD
:102B20007F906F905F900895CF93DF93CDB7DEB71E
:102B30002B970FB6F894DEBF0FBECDBF4F835887DB
:102B400069877A878B87DE01119686E0FD011192F5
:102B50008A95E9F785E0FE01379601900D928A95F6
:102B6000E1F749815A816B817C818D819E810E9430
:102B70003C1C2B960FB6F894DEBF0FBECDBFDF9185
:102B8000CF910895CF93C82F882309F4CCC0823801
:102B900059F40E942B1481FDC6C089E30E94191FBD
:102BA0000E94082089E30CC0833879F40E942B141A
:102BB00080FDB9C083E50E94191F0E94082083E5AB
:102BC0000E946A1FCF910C940820843859F40E9407
:102BD0002B1482FDA8C087E40E94191F0E940820C0
:102BE00087E4EECF8CEF8C0F813A48F48C2F0E9453
:102BF0003623811198C08C2F0E94191FE3CF80E2E9
:102C00008C0F883048F4C77081E001C0880FCA95E6
:102C1000EAF70E94BF1FD6CF8BE58C0F833078F484
:102C2000C53A29F0C63A31F482E890E005C081E85F
:102C300090E002C083E890E0CF910C947C1488E58A
:102C40008C0F853108F06FC0C83A61F1C93A69F15B
:102C5000CA3A71F1CB3A79F1CC3A81F1CB3B89F1A7
:102C6000CC3B91F1CD3A99F1C03BA1F1CE3AA9F11B
:102C7000CF3AB1F1C13BB9F1C23BC1F1C33BC9F19C
:102C8000C43BD1F1C53BD9F1C63BE1F1C73BE9F10A
:102C9000C83BF1F1C93BF9F1CA3B09F03FC08AE2F8
:102CA00092E03EC082EE90E03BC089EE90E038C0FA
:102CB0008AEE90E035C085EB90E032C086EB90E084
:102CC0002FC083EB90E02CC084EB90E029C087EB11
:102CD00090E026C08CEC90E023C08DEC90E020C00A
:102CE00083E891E01DC08AE891E01AC082E991E092
:102CF00017C084E991E014C081E292E011C083E240
:102D000092E00EC084E292E00BC085E292E008C03F
:102D100086E292E005C087E292E002C080E090E0A7
:102D2000CF910C949214CF910895882309F44BC04D
:102D3000823859F40E942B1481FF45C089E30E9418
:102D4000191F0E94082089E30CC0833871F40E9487
:102D50002B1480FF38C083E50E94191F0E940820B1
:102D600083E50E946A1F0C940820843859F40E945D
:102D70002B1482FF28C087E40E94191F0E9408209C
:102D800087E4EFCF9CEF980F913A58F390E2980FB9
:102D9000983050F4877091E001C0990F8A95EAF756
:102DA000892F0E94C51FDFCF9BE5980F933020F439
:102DB00080E090E00C947C14885A853120F480E007
:102DC00090E00C9492140895882321F00E94BF1F74
:102DD0000C9408200895882321F00E94C51F0C94AC
:102DE000082008958F929F92AF92BF92CF92DF9268
:102DF000EF92FF920F931F93CF93DF931F92CDB764
:102E0000DEB74C01A62E472FFC01E580E2948FE04F
:102E1000E822F280FF2021F079830E94DC1F4981A3
:102E200049830E94121F4981882381F0FF2071F09D
:102E300080E28A0D883050F082E00E94FB1E0E94E2
:102E4000121FBB24B394B826498101C0B12CE42FD2
:102E5000E295EF70F0E0E859FF4F0C94292C842F95
:102E6000807F142F1F70882311F01295107FFF2090
:102E700099F0112309F48FC180E28A0D883010F097
:102E8000A11004C0812F0E94BF1F03C0812F0E9488
:102E9000CF1F0E9408207FC18A2D0E949516112302
:102EA00009F4B6C180E28A0D883010F0A11004C088
:102EB000812F0E94C51F03C0812F0E94D51F0E9431
:102EC0000820A6C1242F207F842F8F70203211F07C
:102ED0008295807FAA2021F0F1E0AF16B1F021C0E9
:102EE000FF2041F0EE2039F191E0E91224C00E9468
:102EF000EF1F8EC1EE2021F0E1E0EE1609F488C14B
:102F000089830E94F21F898100C1FF2029F0F5E02A
:102F1000FE1508F47DC10FC094E09E1508F478C139
:102F2000F4C0FF2059F0EE2031F0F401958190FFBC
:102F300032C19F7095830E94E4166AC1EE2009F4A5
:102F4000E4C02FC1242F26952695237030E021154B
:102F5000310521F02130310561F05AC1FF2021F007
:102F60008A2D942F937002C080E090E00E947C1420
:102F70004FC1FF2021F08A2D942F937002C080E072
:102F800090E00E94921444C1842F837009F04EC0D7
:102F9000F1103EC12A2D229526952770220F220F6F
:102FA0008A2D8F70C82ED12CE12CF12C022E04C05A
:102FB000CC0CDD1CEE1CFF1C0A94D2F7A4FE10C042
:102FC0006FE070E080E090E004C0660F771F881F1C
:102FD000991F2A95D2F7609570958095909503C0BA
:102FE00060E070E0CB01242F26952695237030E019
:102FF0002230310569F02330310589F06C297D29B3
:103000008E299F292130310571F00E94901D00C149
:103010006C297D298E299F290E94AA1DF9C00E9432
:10302000901DC701B6010E94761DF2C0FF2019F065
:10303000842F817001C08695882309F4E9C02A2D68
:10304000229526952770220F220F8A2D8F70C82E69
:10305000D12CE12CF12C022E04C0CC0CDD1CEE1C7A
:10306000FF1C0A94D2F7A4FE10C06FE070E080E06D
:1030700090E004C0660F771F881F991F2A95D2F72A
:10308000609570958095909503C060E070E0CB01ED
:10309000242F26952695237030E02230310569F0E3
:1030A0002330310589F06C297D298E299F29213013
:1030B000310571F00E94641EABC06C297D298E29F8
:1030C0009F290E947E1EA4C00E94641EC701B601F3
:1030D0000E944A1E9DC00A2D10E0F801E05EF10931
:1030E000E531F10508F053C0E858FF4F0C94292C46
:1030F0001A2D1F70842F8F71FF2021F00E94E31D75
:10310000812F19CF0E94041E812F0E94EB1680C0D0
:10311000FF2049F0F4E0FE1508F47AC0842F8F7187
:103120000E94291E75C085E08E1508F471C0F6CF87
:10313000FF2039F0842F8F710E94E31D69C0FF20AA
:10314000C9F3842F8F710E94041E62C0FF2029F0F2
:10315000842F8F710E94CE1D5BC00E94C41D58C079
:10316000FF2051F0142F1F71812F0E94E31D63E097
:10317000812F0E94F21E4CC081E00E94FB1E91E054
:103180009E1508F045C082E00E94FB1E41C0FF2052
:1031900031F0EE2079F28A2D0E94C21539C0EE205E
:1031A00081F28A2D0E94951633C04F706A2DC4019A
:1031B0000E947A0B0E94E91C2BC0F11029C0942FA9
:1031C0009F70492F50E042305105B9F04CF4411541
:1031D000510581F041305105D9F40E94C22318C035
:1031E0004330510569F04430510591F48A2D0E9415
:1031F0004F240EC00E9493230BC00E94F12308C0ED
:103200000E94172405C04F706A2DC4010E94CC078C
:10321000BB20F1F00E94EE1E80FD1AC0F401128264
:103220000E94E81E0E94E31DC4010E9436190E94FC
:10323000E81E0F90DF91CF911F910F91FF90EF90BB
:10324000DF90CF90BF90AF909F908F900C94041E12
:103250000F90DF91CF911F910F91FF90EF90DF9032
:10326000CF90BF90AF909F908F9008950F931F9332
:10327000CF93DF93EC01288139818B819C81892B4D
:1032800031F03F3F11F080E003C02F3FE1F781E0D4
:10329000811113C0CE010E940208882371F0688159
:1032A00079818A810E94E41E8C010E94981E0E94EE
:1032B0006B1DB801CE010E94F216DF91CF911F91D4
:1032C0000F9108950E94DC1F0E94EC1F0E94AE1F08
:1032D0000E94082080E090E00E947C1480E090E052
:1032E0000C9492140E94CC1F0C9462190E94D91E57
:1032F000E92FE295EF70F0E03297EE30F105B8F487
:10330000E357FF4F0C94292C803F59F018F4803E6E
:1033100070F407C0843F59F404C0803E10F0813F30
:1033200031F481E0089593FB882780F9089580E0C7
:103330000895CF93DF9300D000D01F92CDB7DEB7B2
:103340000F900F900F900F900F90DF91CF910895F5
:10335000CF93DF9300D000D000D0CDB7DEB7269654
:103360000FB6F894DEBF0FBECDBFDF91CF910895A9
:103370001F93CF93DF93C091940116E08091950144
:10338000C81799F0D0E01C9FF0011D9FF00D11248B
:10339000EA56FE4F4081518162817381848195811B
:1033A0000E94A8192196C770E9CFDF91CF911F9194
:1033B00008954091C6015091C7016091C801709174
:1033C000C9018091CA019091CB010C94A819CF93A7
:1033D0008091CB0182958F7009F05FC08091C80108
:1033E000882309F45AC020919401A091950160911D
:1033F000C6017091C7018091C9019091CA0131E065
:103400006F3F09F030E0B32FC6E02A1709F445C03A
:10341000009721F07F3F21F44B2F03C041E001C012
:1034200040E030E040FD35C0C29FF001C39FF00D89
:103430001124EA56FE4F418174132BC0408164135E
:1034400028C04281411125C0438154814817590742
:1034500010F441505109481B590B483C5105C8F420
:103460008091CB018F7080618093CB0186E0829F39
:10347000F001839FF00D1124E556FE4F80818F707F
:103480008061808386EC91E00E943619CF910C9484
:10349000B8192F5F3F4F2770B8CFCF910895CF92C3
:1034A000DF92EF92FF920F931F93CF93DF93CDB7ED
:1034B000DEB762970FB6F894DEBF0FBECDBF8C01AA
:1034C00085E0F801DE011D9601900D928A95E1F7E5
:1034D000D8014C9111965C91119712966C911297AC
:1034E0001396ED90FC9014977091C601E091C7017E
:1034F0002091C9013091CA012115310531F0EF3F0A
:1035000031F481E07F3F19F403C081E001C080E025
:10351000B82FB170CB2E80FD6CC1D090C801DD20DA
:1035200009F4F5C0F091CB01E216F30638F0C701BB
:10353000821B930B883C910548F09BC020953095E9
:103540002E0D3F1D283C310508F093C08F2F807F42
:1035500009F052C0E51314C0741312C0D62E6111C5
:103560000FC0FF70F061F093CB010E94D91986EC77
:1035700091E00E9436198091CB01F80185836CC1DE
:10358000EF2831F05F3F31F481E04F3F19F403C081
:1035900081E001C080E080FD03C081E0862701C09A
:1035A00080E0F82FF170FF2E80FF1CC08091940105
:1035B0002091950136E0821709F428C190E0389FE8
:1035C000F001399FF00D1124EA56FE4F7181571317
:1035D00006C07081471303C07281671303C0019650
:1035E0008770E9CFD62E662309F436C18091CB01CE
:1035F00081608093CB0153C0E51308C0741306C0EB
:10360000611104C0D8011596FC93AEC04D875E874A
:103610008D859E856A8B0E9476196A89882329F197
:10362000D62E662311F12091CB01822F82958F70C7
:1036300090E002970CF460C08091C6019091C701A0
:1036400098878F831986FB86EA862C87CE0107969A
:1036500051C0E51731F14D875E878D859E856A8B58
:103660000E9476196A8981112EC0C8010E943619FC
:10367000A4C08F2F807F69F77E2DF98AE88A898917
:103680000E94991986EC91E00E943619E6ECF1E06F
:1036900086E0DF011D928A95E9F70E94D919D12CA5
:1036A000DBC07413D8CF6111D6CFD8011596FC9327
:1036B000C8010E943619E6ECF1E086E0DF011D92B8
:1036C0008A95E9F7C9C0D62E662379F22091CB01FD
:1036D000822F82958F7090E0029774F08091C601DE
:1036E0009091C7019A8389831B82FD82EC822E838D
:1036F000CE0101960E94361986E0F801A6ECB1E0F1
:1037000001900D928A95E1F70E94E7196FC0E216C9
:10371000F30628F0C701821B930B9C0104C020957F
:1037200030952E0D3F1D283C310508F052C0D62E95
:10373000662309F49ACFE5132CC074132AC0809134
:10374000CB0180FD1DC0982F92959F70C9F0D801C4
:1037500015968C9315979F3039F09F5F9295907FC7
:103760008F70892B15968C93C8010E94361986E0BC
:10377000F801A6ECB1E001900D928A95E1F736C010
:1037800086E0F801A6ECB1E001900D928A95E1F790
:1037900063C04D875E878D859E850E94761988233C
:1037A00079F086E0F801A6ECB1E001900D928A95DF
:1037B000E1F70E94E7190E94D919DD24D3944CC087
:1037C0008091CB0181608093CB01C8010E943619A2
:1037D00043C07E2DF98AE88A89890E949919E6EC0E
:1037E000F1E086E0DF011D928A95E9F70E94D91980
:1037F00033C0662309F439CF4D875E878D859E855A
:103800000E947619882309F430CFCBCF4D875E878D
:103810008D859E850E94D91E292F22952F7030E01C
:10382000223031052CF49F7041F0811106C00CC08C
:10383000243031052CF49F7049F4805E883020F0EC
:10384000C8010E943619CF2CDC2C06C0D801159671
:103850009C91907F91F7F8CF8D2D62960FB6F894DA
:10386000DEBF0FBECDBFDF91CF911F910F91FF90B3
:10387000EF90DF90CF9008951F93CF93DF93CDB754
:10388000DEB72C970FB6F894DEBF0FBECDBF4F83C7
:10389000588769877A878B879C87CE0107960E9415
:1038A0004F1A8823C1F02F8138858A859B85892B03
:1038B00031F03F3F11F080E003C02F3FE1F781E09E
:1038C000811147C04F81588569857A858B859C8594
:1038D0000E94A8193EC086E0FE013796DE011196CF
:1038E00001900D928A95E1F7FF81E8854A855B8515
:1038F0004115510531F0EF3F31F481E0FF3F19F4FC
:1039000003C081E001C080E080FD23C020919501CB
:1039100030E0C9010196877099276091940170E0A9
:1039200086179707F1F1F983EA835D834C8396E06C
:10393000929FD001939FB00D1124AA56BE4FFE0155
:10394000319601900D929A95E1F7809395010E942E
:10395000B81916E08091940190919501891779F139
:10396000189FC00111248A569E4F0E944F1A882327
:1039700031F1E09194011E9FF0011124EA56FE4FAF
:103980004081518162817381848195810E94A8194F
:103990008091940190E0019687709927809394011B
:1039A000D9CF0E9472191092950110929401E6EC01
:1039B000F1E086E0DF011D928A95E9F7CACF2C96E7
:1039C0000FB6F894DEBF0FBECDBFDF91CF911F9130
:1039D0000895EF92FF920F931F93CF93DF939C0173
:1039E000009709F471C0F12CEE24E394E9012196CB
:1039F000F9018491843740F4843008F056C0813056
:103A000081F0823021F160C0853709F449C0C0F1EE
:103A10009CE7980F903708F057C08F770E94951653
:103A200046C089010E5F1F4FFE01849190E2980FFE
:103A3000983050F48770FE2D01C0FF0F8A95EAF789
:103A40008F2F0E94DF1F15C00E94C21514C089016C
:103A50000E5F1F4FFE01849190E2980F983068F43A
:103A60008770FE2D01C0FF0F8A95EAF78F2F0E9405
:103A7000E51F0E940820E8011AC00E949516FBCF9E
:103A80002E5F3F4FFE01C491CC2341F08FE99FE0B0
:103A90000197F1F700C00000C150F6CFE90107C05F
:103AA000FE01F490E901229602C00E94C2158F2DFA
:103AB000882341F0EFE9FFE03197F1F700C0000003
:103AC0008150F6CF9E0192CFDF91CF911F910F9140
:103AD000FF90EF90089508956093D0017093D10105
:103AE0008093D2019093D3010C9462190F931F938A
:103AF0000091D0011091D1012091D2013091D301D8
:103B0000062B172B282B392B0093D0011093D101B2
:103B10002093D2013093D3011F910F910C9462191D
:103B20000F931F930091D0011091D1012091D201E8
:103B30003091D30106231723282339230093D00182
:103B40001093D1012093D2013093D3011F910F9193
:103B50000C9462190F931F930091D0011091D10121
:103B60002091D2013091D301062717272827392722
:103B70000093D0011093D1012093D2013093D3014F
:103B80001F910F910C9462191092CC011092CD01EB
:103B90001092CE011092CF010C94621941E050E0D6
:103BA00060E070E004C0440F551F661F771F8A95C0
:103BB000D2F74093CC015093CD016093CE01709326
:103BC000CF010C94621941E050E060E070E004C065
:103BD000440F551F661F771F8A95D2F78091CC013D
:103BE0009091CD01A091CE01B091CF01842B952B66
:103BF000A62BB72B8093CC019093CD01A093CE013F
:103C0000B093CF010C94621941E050E060E070E0A5
:103C100004C0440F551F661F771F8A95D2F7409541
:103C20005095609570958091CC019091CD01A091B7
:103C3000CE01B091CF0184239523A623B72380938F
:103C4000CC019093CD01A093CE01B093CF010C9401
:103C5000621941E050E060E070E004C0440F551F7D
:103C6000661F771F8A95D2F78091CC019091CD0184
:103C7000A091CE01B091CF0184279527A627B72721
:103C80008093CC019093CD01A093CE01B093CF014E
:103C90000C9462190F931F930091CC011091CD01E8
:103CA0002091CE013091CF01062B172B282B392BD9
:103CB0000093CC011093CD012093CE013093CF011E
:103CC0001F910F910C9462190F931F930091CC01D7
:103CD0001091CD012091CE013091CF010623172301
:103CE000282339230093CC011093CD012093CE01DA
:103CF0003093CF011F910F910C9462190F931F9372
:103D00000091CC011091CD012091CE013091CF01D5
:103D100006271727282739270093CC011093CD01B8
:103D20002093CE013093CF011F910F910C94621913
:103D30000895CF92DF92EF92FF920F931F93CF934C
:103D4000DF93EC01C090D001D090D101E090D2017E
:103D5000F090D3018091CC019091CD01A091CE0142
:103D6000B091CF01C82AD92AEA2AFB2A0FE110E034
:103D7000B701A601002E04C0769567955795479523
:103D80000A94D2F740FD05C00150110988F780E080
:103D900007C0BE01802F0E94CB090197A9F3802F95
:103DA000DF91CF911F910F91FF90EF90DF90CF9017
:103DB0000895CF93DF93EC010E94991EBE010E94EB
:103DC000CB09DF91CF910895CB010E94D91E0895B0
:103DD0008091D40185958595859508958091D4012C
:103DE0008770089598E0899F90011124622B609359
:103DF000D4010C94E31D4091D401809584238093D9
:103E0000D401982F977069F450E0282F332727FDAD
:103E100030954217530729F08595859585950C9423
:103E2000041E08959091D401977081E009F480E018
:103E3000089590910D01992361F190914B0297FFA4
:103E400028C0982F9695969596959F3188F4E09185
:103E50000101F0910201E90FF11D877021E030E0CE
:103E600001C0220F8A95EAF78181822B8183089510
:103E70009091F90190FF2DC01F928F938CE897E0ED
:103E80009F938F930E94BD070F900F900F900F90FC
:103E90000895409101015091020120E030E09FEF30
:103EA000FA01E20FF31F6281681799F09F3F19F43E
:103EB000611101C0922F2F5F3F4F2E31310581F7E5
:103EC0009F3F39F0FA01E90FF11D97FDFA958283C2
:103ED0000895089590910D01992369F190914B02F5
:103EE00097FF29C0982F9695969596959F3190F4B7
:103EF000E0910101F0910201E90FF11D877021E0CD
:103F000030E001C0220F8A95EAF7209581812823AD
:103F1000218308959091F90190FF1FC01F928F9304
:103F20008EE697E09F938F930E94BD070F900F90AE
:103F30000F900F900895409101015091020120E0EF
:103F400030E0FA01E20FF31F9281981301C0128250
:103F50002F5F3F4F2E313105A1F7089581E090E0AA
:103F6000E0910101F0910201E80FF91F1082019622
:103F700080329105A9F708958091F80108959091F4
:103F8000F801982B9093F801089580959091F8018D
:103F900098239093F80108951092F8010895909154
:103FA000F701982B9093F701089580959091F70170
:103FB00098239093F70108951092F7010895909136
:103FC000F601982B9093F601089580959091F60153
:103FD00098239093F60108951092F6010895809326
:103FE000D50108951092D501089540910101509195
:103FF000020120E030E080E0FA01E20FF31F91813E
:1040000091118F5F2F5F3F4F2F313105A9F7089531
:10401000E0910101F09102018091F8018083E0912B
:104020000101F091020180819091F701892B808339
:10403000E0910101F091020180819091F601892BBC
:1040400080839091D501992361F0E0910101F09175
:1040500002018081892B80830E94F51F81111092BB
:10406000D50180910101909102010C943714909335
:1040700037018093360108958295982F9C7C969500
:104080009695837344E0849F90011124922B892F8D
:104090008A7A86959575990F892B08951F93CF93EA
:1040A000DF931F92CDB7DEB799830E943C20182F73
:1040B0009981892F0E943C20212F30E0322F222726
:1040C000A901482BCA010F90DF91CF911F9108954C
:1040D0006DEE7EEF80E090E00E94612C60E082E077
:1040E00090E00E94432C60E083E090E00E94432C2B
:1040F00060E084E090E00E94432C60E085E090E086
:104100000E94432C60E086E090E00E94432C40E057
:1041100050E0BA0188E090E00C94552C80E090E0EB
:104120000E943D2C21E08D3E9E4F09F020E0822F21
:10413000089582E090E00C942F2C83E090E00C94A2
:104140002F2C84E090E00C942F2C682F84E090E0DA
:104150000C94432C86E090E00C942F2C682F86E082
:1041600090E00C94432C80915202843039F11092EB
:10417000FA0120E488E190E00FB6F894A8958093C6
:1041800060000FBE2093600080E00E94970980E0ED
:104190000E94C90983B7817F846083BF83B7816030
:1041A00083BF7894889583B78E7F83BF88E10FB6ED
:1041B000F89480936000109260000FBE08950895F7
:1041C0000895CF930E94DF200E94B00C0E94E0204F
:1041D000C0E08C2F0E945C0D892B29F4CF5FC53085
:1041E000C1F780E001C081E0CF9108950E9472196B
:1041F0000E9482230E942B140C94C9091F920F92D3
:104200000FB60F9211248F939F93AF93BF9380911A
:10421000FA01811113C08091470290914802A09148
:104220004902B0914A024196A11DB11D80934702F7
:1042300090934802A0934902B0934A02BF91AF9174
:104240009F918F910F900FBE0F901F90189582E055
:1042500084BD93E095BD9AEF97BD80936E0008955D
:104260002FB7F8948091470290914802A09149029B
:10427000B0914A022FBF08952FB7F894609147027A
:10428000709148028091490290914A022FBF08958F
:10429000CF92DF92EF92FF920F931F932FB7F89474
:1042A00040914702509148026091490270914A0240
:1042B0002FBF6A017B01EE24FF248C0120E030E057
:1042C000C016D106E206F30610F441505109481B0E
:1042D000590BCA011F910F91FF90EF90DF90CF9083
:1042E00008951F920F920FB60F9211248F939F93F0
:1042F000AF93BF938091470290914802A0914902E9
:10430000B0914A020196A11DB11D8093470290937E
:104310004802A0934902B0934A02BF91AF919F9186
:104320008F910F900FBE0F901F9018950E9401293A
:10433000F8942FEF87EA91E6215080409040E1F712
:1043400000C0000087E090EBDC0180935B0290935B
:104350005C02A0935D02B0935E022CE088E190E0E5
:104360000FB6F894A895809360000FBE209360006C
:10437000FFCF0E948E20811102C00E9468200E94FF
:1043800099208093F9010E94A12090E090934C0223
:1043900080934B020E949D20682F70E080E090E0A7
:1043A0000C946C1DCF93C82F1F928F9320EB37E096
:1043B0003F932F930E94BD0761E070E080E090E0A2
:1043C00004C0660F771F881F991FCA95D2F70E94F5
:1043D0006C1D0F900F900F900F90CF910C9472194D
:1043E000CF938732A8F58E3108F02EC1803109F4C1
:1043F0009DC0F8F4873009F465C0A8F4863009F050
:1044000029C18091F901817F8E7F8093F90189E430
:1044100099E00E9424078EE99BE00E94240781E036
:104420008093FB014DC08B30F1F18E3009F46BC0ED
:1044300011C1863109F4ADC020F4813109F4EDC019
:1044400009C1893109F48EC08B3109F449C002C118
:10445000883349F150F4893209F4F8C0853309F4FE
:10446000F5C0873209F4F2C0F5C0833409F4EEC018
:1044700028F48A3308F4EEC08953E9C0883409F07F
:10448000E9C00E94721982E89BE00E9424072FEF86
:1044900083ED90E3215080409040E1F700C00000A0
:1044A0000E9496210DC084E699E059C089E69BE000
:1044B0000E9424078091F901897F877F8093F90109
:1044C000C1E0CDC08091F901C82FC095C170C0FB7B
:1044D00080F98093F901CC2349F386E79BE0AEC0D5
:1044E0008091F90181FBCC27C0F991E0C927C0FB7D
:1044F00081F98093F901CC2319F08CE59BE025C06C
:104500008EE49BE02CC08091F90182FBCC27C0F99E
:1045100091E0C927C0FB82F98093F901CC2319F0FF
:104520008FE39BE012C08FE29BE019C08091F901FC
:1045300083FBCC27C0F991E0C927C0FB83F98093A6
:10454000F901CC2351F083E29BE00E942407809183
:10455000F90181608093F90182C086E19BE00E94AD
:104560002407AECF8AE399E00E94240789E099E00E
:104570000E94240782ED98E00E94240783E998E0D6
:104580000E94240781E698E00E94240786E398E0D1
:10459000E6CF88E298E00E9424070E942B141F9225
:1045A0008F938EE098E09F938F930E94BD07809138
:1045B0000D011F928F9387EF97E09F938F930E9437
:1045C000BD07809120021F928F9384EE97E09F9306
:1045D0008F930E94BD0780914B0287FB882780F94B
:1045E0001F928F938CEC97E09F938F930E94BD074F
:1045F0000E943C219F938F937F936F9385EB97E06D
:104600009F938F930E94BD078DB79EB746960FB6B6
:10461000F8949EBF0FBE8DBF53CF0E947219809138
:104620004B0287FBCC27C0F991E0C927C0FB87F973
:1046300080934B02CC2329F08CE09BE00E9424075E
:104640000EC081E09BE08BCF8D5101C080E00E94C5
:10465000D22136CF8FEF9AE00E942407C0E08C2F42
:10466000CF91089580E0089580E00895CF93C82FFA
:104670008091FB01882319F0813049F03BC0E09123
:104680000101F091020180818232B1F507C0E09111
:104690000101F09102018081823249F48C2F0E9445
:1046A0003223811124C08C2F0E94F02121C08C2F35
:1046B0000E94342381111BC0C43189F018F4CB301F
:1046C00029F010C0C93259F0C83361F489E499E087
:1046D0000E9424078CEA97E00E94240708C01092E9
:1046E000FB010CC08AEA97E00E94240707C081E022
:1046F000817006C01092FB0180E002C080E0F8CF1C
:10470000CF9108950E948E20811102C00E946820DE
:104710000E94AA2080934D0280FF02C0869501C0AE
:1047200080E00C94970920914D02322F3695832F0B
:1047300090E0039744F491E0930F990F822F8170DA
:10474000892B80934D0280914D02816080934D02B0
:104750000E94AE208091F90180FF0FC080914D0230
:1047600086951F928F9384EE9BE09F938F930E9478
:10477000BD070F900F900F900F9080914D0286957E
:104780000C94970980914D02982F969591F091582D
:10479000990F8170892B80934D028E7F91E009F4EF
:1047A00090E080914D0290FB80F980934D020E9431
:1047B000AE208091F90180FF0FC080914D02869557
:1047C0001F928F938CEC9BE09F938F930E94BD0769
:1047D0000F900F900F900F9080914D0286950C9442
:1047E000970980914D02982F909590FB80F98093C6
:1047F0004D020E94AE208091F90180FF0FC0809190
:104800004D0281701F928F9386EB9BE09F938F9355
:104810000E94BD070F900F900F900F9080914D0256
:1048200080FF02C0869501C080E00C94970930910A
:104830004D02232F26952F5F2F77822F90E0317026
:1048400004972CF4220F232B20934D0202C03093A7
:104850004D0280914D028E7F91E009F490E08091AD
:104860004D0290FB80F980934D020E94AE20809112
:10487000F90180FF0FC080914D0286951F928F93A2
:1048800082EA9BE09F938F930E94BD070F900F9049
:104890000F900F9080914D0286950C94970920916E
:1048A0004D02922F96959827990F822F8170892B10
:1048B00080934D028E7F91E009F490E080914D024B
:1048C00090FB80F980934D020E94AE2080914D02B2
:1048D00086950C94970980911F02089508959FB7BB
:1048E000F8941092FE019FBF90915202943009F00B
:1048F00058C09091E9009F702091EC0020FF02C009
:1049000020E801C020E0292B93E09093E9009091EA
:10491000EB0090FF43C09091EE0097FF3FC0909155
:10492000FC01992321F09091E80095FF37C0109287
:10493000FC0196E03091E80035FD15C0309152023F
:10494000343061F53091EB0035FD28C0915021F4F1
:1049500081E08093FC0122C0EFE9FFE03197F1F79D
:1049600000C00000E7CF8093F1008091E80085FD52
:104970000AC08091E80080FFFCCF8091E8008E772C
:104980008093E80006C08FB7F89491E09093FE0101
:104990008FBF2F702093E90080E008952F7020933F
:1049A000E9008FEF0895CF93DF9300D01F92CDB72A
:1049B000DEB720915202243021F523E029839B8326
:1049C0008A8382E08093E9008FEF9091E800815024
:1049D00095FD06C095ED9A95F1F700008111F5CF90
:1049E0008091E80085FF0DC040E050E063E070E09A
:1049F000CE0101960E946F278091E8008E77809308
:104A0000E8000F900F900F90DF91CF910895CF9312
:104A1000DF9300D01F92CDB7DEB720915202243031
:104A200029F522E02983805891099B838A8320936A
:104A3000E9008FEF9091E800815095FD06C095ED5B
:104A40009A95F1F700008111F5CF8091E80085FF7C
:104A50000DC040E050E063E070E0CE0101960E949E
:104A60006F278091E8008E778093E8000F900F9079
:104A70000F90DF91CF910895CF93DF93EC01809158
:104A80005202843009F046C090910D019923D9F06B
:104A900090914B0297FF17C08093E9008FEF9091A0
:104AA000E800815095FD06C095E19A95F1F7000068
:104AB0008111F5CF8091E80085FF2CC040E050E0E7
:104AC00060E270E017C081E08093E9008FEF909181
:104AD000E800815095FD06C095ED9A95F1F700002C
:104AE0008111F5CF8091E80085FF14C040E050E0CF
:104AF00068E070E0CE010E946F278091E8008E7719
:104B00008093E80080E2FE01AFEFB1E001900D92EA
:104B10008A95E1F7DF91CF91089581E29CE00E94B0
:104B2000240780915102811109C00E9401290E942D
:104B30005E298091E20084608093E20008958DE117
:104B40009CE00E94240710925102089589E19CE0A4
:104B50000C94240785E19CE00C94240781E19CE0FF
:104B60000E9424070C94F6208091FD018F5F8093B2
:104B7000FD0162E30E94F52B911135C01092FD01F9
:104B80008091FE01882379F180915202843049F5A9
:104B90008091E9008F709091EC0090FF02C090E846
:104BA00001C090E0982B83E08093E9008091EB00B6
:104BB00080FF14C08091EE0087FF10C08091E80054
:104BC00085FF03C01092F100F9CF8091E80080FFCB
:104BD00005C08091E8008E778093E8009F709093E5
:104BE000E9001092FE01089542E061EC81E00E942C
:104BF0007B2842E061EC82E00E947B2842E261EC8B
:104C000083E00E947B2842E261EC84E00C947B28E4
:104C100080915402833009F455C030F4813071F032
:104C2000823009F48EC008958A3009F47AC08B303E
:104C300009F460C0893009F09CC020C08091530203
:104C4000813A09F096C08091E800877F8093E80060
:104C50008091570290915802892B21F060E080E00A
:104C600090E003C060E28FEF91E070E00E94B8270F
:104C70008091E8008B778093E8000895809153023B
:104C8000813209F076C080915702909158020097C6
:104C900019F0039709F06DC08091E800877F809339
:104CA000E8008091E80082FD05C0809152028111E8
:104CB000F8CF5FC08091F10080931F028091E800DF
:104CC0008B7753C080915302813A09F052C0809192
:104CD000570290915802892B09F04BC08091E8004F
:104CE000877F8093E8008091E80080FFFCCF80916F
:104CF0000D0136C0809153028132D9F5809157025F
:104D000090915802892BA9F58091E800877F8093C4
:104D1000E8000E94B0288091550280930D010C9408
:104D2000721980915302813221F58091E800877FCA
:104D30008093E8000E94B028809156028093200260
:104D4000089580915302813AA1F48091E800877F11
:104D50008093E8008091E80080FFFCCF80912002E2
:104D60008093F1008091E8008E778093E8000C94A6
:104D7000B028089584B7877F84BF88E10FB6F89480
:104D800080936000109260000FBE80E88093610005
:104D9000109261000E94A9140E9401290E945E29BC
:104DA0008091E20084608093E2008FE694E20E94AA
:104DB000372078940E94D82B0E94AB1483E091E0B6
:104DC0000E94261480E09CE00E94240780915202F9
:104DD000853089F48CEF9BE00E9424070E94B32069
:104DE00080915002882391F30E94E120882371F37F
:104DF0000E945927EBCF0E94DD140E94F313E6CFE7
:104E0000292F332723303105A9F06CF421303105E7
:104E100009F442C02230310509F043C084E790E034
:104E20002DE43CE042C021323105C9F02232310587
:104E300019F137C099278130910541F082309105F1
:104E400041F0892B71F5E9E4FCE005C0E7E3FCE003
:104E500002C0E5E2FCE0849190E09F0126C064304E
:104E600000F5E62FF0E0EE0FFF1FE25DFE4F208120
:104E7000318189E090E019C0643098F4E62FF0E0C9
:104E8000DF01AA0FBB1FAA5DBE4F2D913C91EE5DC5
:104E9000FE4F808190E009C082E190E021EC3CE08F
:104EA00004C080E090E020E030E0FA01318320830C
:104EB000089580E189BD82E189BD09B400FEFDCF7E
:104EC0008091D8008F7D8093D8008091E00082602F
:104ED0008093E0008091E00081FDFCCF0895CF92A7
:104EE000DF92EF92FF920F931F93CF93DF937C019A
:104EF0008B01EA010E94D128811131C0209731F045
:104F000088819981081B190BE80EF91EC12CD12C40
:104F10000115110519F18091E80085FD14C08091FB
:104F2000E8008E778093E800209741F0888199818E
:104F30008C0D9D1D9983888385E011C00E94D12826
:104F4000882331F30CC0F70181917F018093F10038
:104F500001501109FFEFCF1ADF0ADACF80E0DF91AD
:104F6000CF911F910F91FF90EF90DF90CF90089518
:104F70002091590230915A022617370748F06115DF
:104F8000710539F42091E8002E772093E80001C0E4
:104F9000B901FC0120E061157105B9F1809152025F
:104FA000882309F440C0853009F43FC08091E800AF
:104FB00083FD3DC08091E80082FF06C08091E8003B
:104FC00082FF26C080E008958091E80080FFE3CF53
:104FD0002091F3008091F20090E0922B6115710511
:104FE00051F08830910538F421912093F1006150FF
:104FF00071090196F3CF21E0089709F020E0809134
:10500000E8008E778093E800C6CF2111C7CFD6CFB6
:1050100080915202882339F0853039F08091E80080
:1050200083FFCCCF04C082E0089583E0089581E03F
:1050300008952091590230915A022617370748F0F7
:105040006115710539F42091E8002E772093E8006E
:1050500001C0B901FC0120E061157105C1F1809129
:105060005202882309F441C0853009F440C0809180
:10507000E80083FD3EC08091E80082FF06C0809179
:10508000E80082FF27C080E008958091E80080FF5B
:10509000E3CF2091F3008091F20090E0922B611514
:1050A000710559F08830910540F424912093F10066
:1050B0003196615071090196F2CF21E0089709F00D
:1050C00020E08091E8008E778093E800C5CF211121
:1050D000C6CFD5CF80915202882339F0853039F080
:1050E0008091E80083FFCBCF04C082E0089583E085
:1050F000089581E00895982F973058F59093E9002E
:10510000981739F07091EC002091ED005091F0006B
:1051100003C0242F762F50E021FF19C03091EB00FF
:105120003E7F3093EB003091ED003D7F3093ED00FA
:105130003091EB0031603093EB007093EC002093E2
:10514000ED005093F0002091EE0027FF07C09F5F15
:10515000D3CF8F708093E90081E0089580E00895B7
:105160008091530287FD05C08091E80080FF0EC04A
:1051700012C08091E80082FD05C080915202811129
:10518000F8CF08958091E8008B7708C08091520293
:105190008111EACF08958091E8008E778093E8002E
:1051A00008958091E4009091E50045E62091EC009F
:1051B00020FF21C02091E80020FD21C02091520253
:1051C000222389F0253089F02091EB0025FD0FC0C6
:1051D0002091E4003091E5002817390739F3415058
:1051E00041F0C901E3CF82E0089583E0089581E0B2
:1051F000089584E008952091E80022FFDFCF80E049
:1052000008950E946F290E947729E0EEF0E08081E6
:1052100081608083E8EDF0E080818F77808319BC26
:10522000A7EDB0E08C918E7F8C9380818F7E808300
:105230001092510208950F931F93CF93DF930E9412
:105240006F290E947729C8EDD0E088818F77888305
:1052500088818068888388818F7D888319BC1092BB
:10526000520210924E021092500210924F0200EE23
:1052700010E0F80180818B7F808388818160888342
:1052800042E060E080E00E947B28E1EEF0E0808177
:105290008E7F8083E2EEF0E0808181608083808178
:1052A00088608083F80180818E7F8083888180611F
:1052B0008883DF91CF911F910F910895E8EDF0E081
:1052C00080818F7E8083E7EDF0E080818160808344
:1052D00084E082BF81E0809351020C941B29E8EDA9
:1052E000F0E080818E7F80831092E200089510921A
:1052F000DA001092E10008951F920F920FB60F92FC
:1053000011242F933F934F935F936F937F938F93CA
:105310009F93AF93BF93EF93FF938091E10082FF40
:105320000BC08091E20082FF07C08091E1008B7F7B
:105330008093E1000E94B4258091DA0080FF1FC0B5
:105340008091D80080FF1BC08091DA008E7F80930F
:10535000DA008091D90080FF0DC080E189BD82E133
:1053600089BD09B400FEFDCF81E0809352020E9406
:105370008D2505C019BC109252020E949F25809174
:10538000E10080FF19C08091E20080FF15C080918C
:10539000E2008E7F8093E2008091E2008061809342
:1053A000E2008091D80080628093D80019BC85E02B
:1053B000809352020E94AA258091E10084FF30C0B0
:1053C0008091E20084FF2CC080E189BD82E189BD2B
:1053D00009B400FEFDCF8091D8008F7D8093D80066
:1053E0008091E1008F7E8093E1008091E2008F7ECA
:1053F0008093E2008091E20081608093E2008091DE
:105400004E02882311F084E007C08091E30087FFFB
:1054100002C083E001C081E0809352020E94AE2569
:105420008091E10083FF29C08091E20083FF25C0C5
:105430008091E100877F8093E10082E080935202B7
:1054400010924E028091E1008E7F8093E100809166
:10545000E2008E7F8093E2008091E2008061809381
:10546000E20042E060E080E00E947B288091F00052
:1054700088608093F0000E94A625FF91EF91BF9174
:10548000AF919F918F917F916F915F914F913F91DC
:105490002F910F900FBE0F901F9018951F920F9293
:1054A0000FB60F9211242F933F934F935F936F93F7
:1054B0007F938F939F93AF93BF93CF93EF93FF937C
:1054C000C091E900CF708091EC001092E9008091CA
:1054D000F000877F8093F00078940E948A2A1092CF
:1054E000E9008091F00088608093F000C093E900AB
:1054F000FF91EF91CF91BF91AF919F918F917F914C
:105500006F915F914F913F912F910F900FBE0F9030
:105510001F9018951F93CF93DF93CDB7DEB7AA974F
:105520000FB6F894DEBF0FBECDBFE3E5F2E0809189
:10553000F100819322E0EB35F207C9F70E940826BB
:105540008091E80083FF1CC12091530230915402E6
:10555000832F90E08A30910508F012C1FC01E556D6
:10556000FF4F0C94292C203881F0223809F008C113
:10557000809157028F708093E9008091EB0085FB4A
:10558000882780F91092E90006C080914F0290911F
:105590005002911182609091E800977F9093E8000B
:1055A0008093F1001092F100C5C0822F8D7F09F029
:1055B000E7C0222319F0223061F0E2C08091550249
:1055C000813009F0DDC0333009F080E08093500273
:1055D00028C080915502811124C0209157022F705C
:1055E00009F4CEC02093E9008091EB0080FF19C040
:1055F0008091EB00333011F4806211C080618093A0
:10560000EB0081E090E0022E01C0880F0A94EAF7D7
:105610008093EA001092EA008091EB00886080930A
:10562000EB001092E9008091E800877F86C021118D
:10563000A7C0109155021F778091E3008078812BDD
:105640008093E3008091E800877F8093E8000E94C8
:10565000B0288091E80080FFFCCF8091E300806853
:105660008093E300112311F083E001C082E0809376
:10567000520286C02058223008F082C08091550224
:10568000909156028C3D23E0920779F583E08A835E
:105690008AE289834FB7F894DE01139620E03EE05A
:1056A00051E2E32FF0E050935700E49120FF03C054
:1056B000E295EF703F5FEF708E2F90E0EA3010F0D0
:1056C000C79601C0C0968D939D932F5F243149F7F3
:1056D0004FBF8091E800877F8093E8006AE270E026
:1056E000CE0101960E94B82714C0AE014F5F5F4FF4
:1056F000609157020E940027009709F441C0209151
:10570000E800277F2093E800BC0189819A810E94EC
:1057100019288091E8008B778093E80031C0203809
:1057200079F58091E800877F8093E80080914E02B0
:105730008093F1008091E8008E778093E8000E94CA
:10574000B0281EC021111CC0909155029230C0F4A7
:105750008091E800877F8093E80090934E020E943A
:10576000B02880914E02811104C08091E30087FF30
:1057700002C084E001C081E0809352020E94F425BF
:105780008091E80083FF0AC08091E800877F8093C2
:10579000E8008091EB0080628093EB00AA960FB640
:1057A000F894DEBF0FBECDBFDF91CF911F9108955A
:1057B000CF93809152028823B1F08091E9008F70DD
:1057C0009091EC0090FF02C090E801C090E0C92FDA
:1057D000C82B1092E9008091E80083FD0E948A2A7C
:1057E000CF70C093E900CF910895991B79E004C070
:1057F000991F961708F0961B881F7A95C9F7809510
:105800000895AA1BBB1B51E107C0AA1FBB1FA61707
:10581000B70710F0A61BB70B881F991F5A95A9F759
:1058200080959095BC01CD01089597FB072E16F445
:10583000009407D077FD09D00E94012C07FC05D009
:105840003EF4909581959F4F0895709561957F4F97
:105850000895EE0FFF1F0590F491E02D0994F9993A
:10586000FECF92BD81BDF89A992780B50895A6E133
:10587000B0E044E050E00C94692CA8E1B0E042E0D4
:1058800050E00C94692C262FF999FECF92BD81BD72
:10589000F89A019700B4021639F01FBA20BD0FB66E
:1058A000F894FA9AF99A0FBE08950396272F0E944A
:1058B000442C0E94432C252F0E94442C242F0C940E
:1058C000442C0196272F0E94442C0C94432CDC017D
:1058D000CB01FC01F999FECF06C0F2BDE1BDF89AFB
:1058E000319600B40D9241505040B8F70895F894A5
:0258F000FFCFE8
:1058F200FFD6016B243C256E240725D32401909109
:10590200929395366667F1F0C6333231303534976B
:10591200969440362239640D2E0D0C0DD30C5F0C7B
:06592200780C910CB10CA1
:00000001FF
