:100000000C943A060C947E060C947E060C947E06A4
:100010000C947E060C947E060C947E060C947E0650
:100020000C947E060C947E060C9410260C94E2260A
:100030000C94941D0C947E060C947E060C947E0603
:100040000C947E060C947E060C947E060C947E0620
:100050000C947E060C94071E0C947E060C947E066F
:100060000C947E060C947E060C947E060C947E0600
:100070000C947E060C947E060C947E060C947E06F0
:100080000C947E060C947E060C947E060C947E06E0
:100090000C947E060C947E060C947E060C947E06D0
:1000A0000C947E060C947E060C947E06C107C7074E
:1000B000CB07CE07D207D607DA07DE07E307E70745
:1000C000EB07EF07F207F607FA07FE070208070833
:1000D000C513C513F813F81338149E159E159E15F5
:1000E0005A149E15011501156B1573159E1599155A
:1000F0000E150E150E150E150E150E150E150E15E8
:100100000E150E150E150E150E150E150E150E15D7
:100110001E152E1535153C1546151A161A162D16D0
:100120002D1623162D162D162D161A161A162916EB
:100130002D162D1629164727692754286927542874
:10014000AB27CE2754282328362800F000201E0095
:100150001F0020002100220023002400250026008B
:1001600027002D002E004C002A002B0014001A003E
:100170000800150017001C0018000C0012001300E6
:100180002F0030003100000002510400160007006B
:1001900009000A000B000D000E000F0033003400B0
:1001A000320028000000E10064001D001B00060072
:1001B000190005001100100036003700380000005B
:1001C000E5000000E000E300E200000000000000A5
:1001D0002C00000000000000E600E7000151E400F0
:1001E00000003500010001000100010001000100D4
:1001F0000100010001000100010001000070010088
:1002000001000100010001000100010001000100E6
:1002100001000100010030703170327000000100F7
:1002200001000100010001000100010001000100C6
:1002300001000100010001000100000001000100B7
:100240003470357036703770387039703A703B7072
:100250000100010000000100000001000100010098
:10026000000000000000010000000000000001008C
:10027000010001000100000035003A003B003C0095
:100280003D003E003F00400041004200430044006A
:10029000450000704C000100010001000100010058
:1002A00001000100010052000100010001000100F5
:1002B0000100000001000100010001000100010037
:1002C0004A00500051004D000100010001000100F2
:1002D0000000010001000100010001000100010017
:1002E00001007F008100800001000000010000008B
:1002F00001000100010000000000000001000000FA
:1003000000000000010001000100010000000A449B
:10031000454255473A20656E61626C65642E0A005D
:100320000A002530313662003A200025303258006C
:100330000A722F6320303132333435363738394141
:1003400042434445460A007267626C6967687420DC
:1003500073657420687376205B454550524F4D5D40
:100360003A2025752C25752C25750A007267626C5C
:100370006967687420746F67676C653A207267629A
:100380006C696768745F636F6E6669672E656E611E
:10039000626C65203D2025750A007267626C696792
:1003A0006874206D6F64653A2025750A0072676273
:1003B0006C696768745F696E6974207267626C69E2
:1003C0006768745F636F6E6669672E6D6F64652022
:1003D0003D20302E20577269746520646566617512
:1003E0006C742076616C75657320746F2045455080
:1003F000524F4D2E0A007267626C696768745F69BC
:100400006E6974206565636F6E6669672069732025
:100410006E6F7420656E61626C65642E0A0072678F
:10042000626C696768745F696E6974207374617265
:1004300074210A007267626C696768745F696E692B
:10044000742063616C6C65642E0A007267626C696B
:100450006768745F636F6E6669672E76616C203DB6
:100460002025640A007267626C696768745F636F55
:100470006E6669672E736174203D2025640A0072E0
:1004800067626C696768745F636F6E6669672E6820
:100490007565203D2025640A007267686C6967688D
:1004A000745F636F6E6669672E6D6F6465203D20B3
:1004B00025640A007267626C696768745F636F6EB7
:1004C0006669672E656E61626C65203D2025640A51
:1004D000007267626C696768745F636F6E666967F4
:1004E000206570726F6D0A006565636F6E6669677F
:1004F0005F7570646174655F7267626C6967687468
:100500005F64656661756C740A000000000000019C
:1005100001010101010101010202020202020202C3
:100520000203030303030303030404040404040594
:100530000505050506060606060707070708080855
:10054000080909090A0A0A0A0B0B0B0C0C0C0D0D01
:100550000D0E0E0F0F0F1010111111121213131494
:1005600014151516161717181819191A1A1B1C1C0A
:100570001D1D1E1F1F202021222223242525262762
:100580002728292A2B2B2C2D2E2F2F303132333494
:100590003536363738393A3B3C3D3E3F40414243A1
:1005A00044464748494A4B4C4D4F5051525355567B
:1005B00057585A5B5C5E5F606263646667696A6C29
:1005C0006D6E707173747678797B7C7E80818384A4
:1005D00086888A8B8D8F91929496989A9B9D9FA1E5
:1005E000A3A5A7A9ABADAFB1B3B5B7B9BBBDBFC1EB
:1005F000C4C6C8CACCCFD1D3D6D8DADCDFE1E4E6B2
:10060000E8EBEDF0F2F5F7FAFCFF0A00253032587E
:1006100020006B6579626F6172645F7265706F72E2
:10062000743A20000A0025303258006B6579626FF9
:100630006172645F7365745F6C65643A2000646521
:100640006C5F6B65795F6269743A2063616E2774D1
:100650002064656C3A20253032580A006164645F7A
:100660006B65795F6269743A2063616E27742061FB
:1006700064643A20253032580A003F00433E20008F
:100680004C25640A0074696D65725F72656164333C
:100690003228293A202530346C580A006B65796D70
:1006A00061705F636F6E6669672E6E6B726F3A2062
:1006B00025580A006B6579626F6172645F69646CCA
:1006C000653A2025580A006B6579626F6172645F34
:1006D00070726F746F636F6C3A2025580A00686FF0
:1006E00073745F6B6579626F6172645F6C6564736C
:1006F00028293A2025580A000A092D2053746174CC
:100700007573202D0A004743433A20342E382E3289
:10071000204156522D4C4942433A20312E382E303A
:10072000204156525F415243483A20617672350A61
:10073000004F5054494F4E533A204C5546412045A6
:10074000585452414B455920434F4E534F4C45202E
:10075000434F4D4D414E44204E4B524F2034303983
:10076000360A004255494C443A20226572676F644C
:100770006F785F657A2D3136313230352D31303931
:100780002D6763333564353322202831323A3536CC
:100790003A3434204A616E202035203230313729F6
:1007A0000A005649443A2030784645454428536566
:1007B0006E7472617129205049443A203078363085
:1007C0003630285336302D52474229205645523A6A
:1007D000203078303030330A00444553433A2051BA
:1007E0004D4B206B6579626F617264206669726D32
:1007F0007761726520666F722053656E74726171E5
:10080000205336302D5247420A000A092D205665E2
:100810007273696F6E202D0A000A092D20436F6ED6
:10082000736F6C65202D0A4553432F713A0971751A
:1008300069740A000A092D204D61676963202D0A39
:10084000443A094465627567204D65737361676555
:1008500020546F67676C650A583A094D6174726974
:1008600078204465627567204D6F646520546F671A
:10087000676C65202D2053686F77206B65797072E7
:10088000657373657320696E206D61747269782079
:10089000677269640A4B3A094B6579626F617264E9
:1008A00020446562756720546F67676C65202D2052
:1008B00053686F77206B657970726573732072650A
:1008C000706F72740A4D3A094465627567204D6F06
:1008D00075736520546F67676C650A563A095665EB
:1008E0007273696F6E0A533A095374617475730AAF
:1008F000433A09416374697661746520436F6E738E
:100900006F6C65204D6F64650A46312D4631303A73
:100910000953776974636820746F204C617965723C
:1009200020302D392028463130203D204C30290AF6
:10093000302D393A0953776974636820746F204CFD
:100940006179657220302D390A4553433A0953774E
:100950006974636820746F204C617965722030205F
:1009600028616C7465726E617465206B65792031E5
:10097000290A47524156453A0953776974636820FA
:10098000746F204C6179657220302028616C746529
:10099000726E617465206B65792032290A50415569
:1009A00053453A094A756D7020746F20426F6F7419
:1009B0006C6F6164657220285265736574290A4EF4
:1009C0003A094E4B524F20546F67676C650A003FDF
:1009D000004E4B524F3A206F66660A004E4B524F04
:1009E0003A206F6E0A000A6D6F7573653A206F6664
:1009F000660A000A6D6F7573653A206F6E0A000A09
:100A00006B6579626F6172643A206F66660A000AEC
:100A10006B6579626F6172643A206F6E0A000A6DCD
:100A200061747269783A206F66660A000A6D6174B3
:100A30007269783A206F6E0A000A64656275673AD7
:100A4000206F66660A000A64656275673A206F6EF9
:100A50000A000A0A4A756D70696E6720746F206219
:100A60006F6F746C6F616465722E2E2E2000433E92
:100A700020006261636B6C696768742073746570D1
:100A80003A2025750A006261636B6C69676874209F
:100A9000746F67676C653A2025750A006261636B45
:100AA0006C696768742064656372656173653A2078
:100AB00025750A006261636B6C6967687420696EF2
:100AC0006372656173653A2025750A005B735D008A
:100AD0004B6579626F6172642073746172742E0A5F
:100AE000005B575D005B535D005B525D005B445DE6
:100AF000005B435D0010035300360030002D0052B0
:100B0000004700420000001003530065006E0074AF
:100B100000720061007100000004030904090274FE
:100B200000040100A0FA090400000103010100090A
:100B300021110100012240000705810308000A0974
:100B40000401000103000000092111010001223607
:100B5000000705820308000A0904020002030000DE
:100B60000009211101000122220007058303200052
:100B7000010705030320000109040300010300002D
:100B8000000921110100012239000705840320001A
:100B9000011201100100000008EDFE606003000179
:100BA00002000105010906A101050719E029E71561
:100BB000002501950875018102050819012905958F
:100BC0000575019102950175039101050719002929
:100BD000F71500250195F875018102C00631FF095E
:100BE00074A1010975150026FF0095207508810282
:100BF0000976150026FF00952075089102C00501B1
:100C00000980A10185021601002603001A81002A2D
:100C10008300751095018100C0050C0901A10185B3
:100C200003160100269C021A01002A9C02751095E9
:100C3000018100C005010906A101050719E029E7A6
:100C4000150025019508750181029501750881013E
:100C5000050819012905950575019102950175038E
:100C600091010507190029FF150026FF009506755B
:100C7000088100C011241FBECFEFDAE0DEBFCDBF78
:100C800004B603FE24C08091450290914602A091D3
:100C90004702B09148028730904BA740B04BB9F45F
:100CA000109245021092460210924702109248029A
:100CB00014BE84B7877F84BF88E10FB6F894809311
:100CC0006000109260000FBEE0E0F8E3099511E0CB
:100CD000A0E0B1E0EAE1F2E502C005900D92A63392
:100CE000B107D9F712E0A6E3B1E001C01D92A53427
:100CF000B107E1F70E9450230C940B290C940000DB
:100D0000FF93EF93E0913601F0913701309709F0AE
:100D10000995EF91FF910895FC018591803011F0C4
:100D2000EFDFFBCF0895FF27E0E230E247FF0CC082
:100D3000419597FF09C0EDE260957095809590957B
:100D4000611D711D811D911D27FF02C0219530E39A
:100D500050E2AA27660F771F881F991FAA1FA417A2
:100D600010F0A41B63955A95A9F7AA3008F0A95F63
:100D7000A05DAF93F395611571058105910541F76C
:100D8000ED3211F4EF93F395F21718F43F93F395C6
:100D9000FBCF8F91B5DFFA95E1F70895E991F991CD
:100DA0008591803021F0853219F0AADFF9CF0895BE
:100DB00020E0E89455915532C1F3503311F4689412
:100DC00055915A3348F4505390F3220F022E220FBC
:100DD000220F200D250FF4CF0EF4219589919991C2
:100DE000533619F3533729F1533559F1BC0188278C
:100DF0009927E8945C3621F48991999168945591EA
:100E0000543639F446EF7EF077FF0DC08FEF9FEF39
:100E10000AC055374AE039F0583540E121F05236E2
:100E200042E009F00895FF93EF937DDFEF91FF918A
:100E3000B7CFFF93EF93FC0181918030B9F360DF6E
:100E4000FBCFFF93EF9368DFF1CFDF93CF93CDB765
:100E5000DEB72596A3DFCF91DF9108950E94C00BE6
:100E60000C9430090C94C10BCF93DF93EC0161110A
:100E70001BC00E94521C8272809338019A81992370
:100E800041F0882311F085E301C089E20E94AF1B85
:100E900007C0882311F085E301C089E20E94001C8D
:100EA000DF91CF910C949E1CDF91CF91089581E04A
:100EB000089581E008950C9459070E9408162FEFB9
:100EC00084E39CE0215080409040E1F700C00000A6
:100ED0000C942C1E0F931F93CF93DF938C01FC0176
:100EE000C081D181CE010E942F1BBE010E94E50A64
:100EF000EC01B8010E945B07882309F464C1B801C2
:100F0000CE010E94740B882309F45DC1C633F0E75B
:100F1000DF0741F4F8018281882309F454C10E945B
:100F2000E60F51C1C73380E7D80708F0C3C0C53109
:100F300090E7D90708F0A7C0C230E0E7DE0708F461
:100F400078C0F8018281882309F47FC00E94241DA3
:100F5000811102C00E94FE1C0E94371D90E09093F8
:100F6000360280933502FE01E350F047E231F1058D
:100F700020F4EA5AFF4F0C94BD288091350281601D
:100F800003C0809135028260809335024BC080910E
:100F900035028460F9CF8091350213C0809135020B
:100FA0008061F2CF809135028062EECF8091350270
:100FB0008064EACF809135028068E6CF8091350267
:100FC00084608860E1CF809135028E7FDDCF809193
:100FD00035028D7FD9CF809135028B7FD5CF80911F
:100FE000350213C0809135028F7ECECF80913502BD
:100FF0008F7DCACF809135028F7BC6CF809135021D
:101000008F77C2CF809135028B7F877FBDCF909144
:10101000350297FB882780F921E0822780FB97F92A
:1010200090933502809135020E943B1D0E94081664
:10103000CAC0C115F0E7DF0779F0C130D047A1F091
:1010400081E080933B0180933C01C801DF91CF9107
:101050001F910F910C945707F8018281882309F49E
:10106000B2C00E945D07AFC0F8018281882309F4F5
:10107000AAC08EE093E00E948C068091E30181601B
:101080008093E301A0C0C43390E7D90741F4F8018D
:101090008281882309F497C00E94881094C0C533C8
:1010A000D04771F6F8018281882309F48CC00E9430
:1010B000E30F89C0CA33F0E7DF0741F4F80182810A
:1010C000882309F480C00E9453107DC0CB3380E791
:1010D000D807D8F4F8018281C833F0E7DF0731F48C
:1010E000882309F470C00E941E106DC0C933D04718
:1010F00030F4882309F467C00E94FF0F64C088237E
:1011000009F461C00E9439105EC0CC33E0E7DE070D
:1011100019F5F8018281882351F010923B010E9459
:10112000C61D90933A018093390182E02AC08091D4
:101130003B0181110FC08091390190913A010E94C9
:10114000DE1D883C910530F486E20E94581286E24A
:101150000E942B1382E01DC0CC33F0E7DF07E0F0E4
:10116000CD33D04709F06CCFF8018281882361F03C
:1011700010923C010E94C61D90933A018093390160
:1011800080E20E947A131FC080913C01882359F0AD
:1011900080E20E94811317C0F8018281882399F0B0
:1011A0000E946E1010C08091390190913A010E9406
:1011B000DE1D883C910560F787E20E94581287E2A5
:1011C0000E942B13E5CF80E0DF91CF911F910F910B
:1011D00008950C943207279A2F988FEF9FEF9093E2
:1011E0008700809386008AE08093800089E1809365
:1011F00081000C9418200E94EB080C942E072F9865
:1012000081110AC080918000877F809380001092B6
:101210008D0010928C000895833041F480918000FD
:101220008860809380008FEF9FEF12C090918000C4
:1012300098609093800023E030E0281B3109220F52
:10124000331F8FEF9FEF02C0969587952A95E2F79F
:1012500090938D0080938C00089508950C942D092F
:1012600008950C942E092FE0729FF00111243BE4A5
:10127000839FE00DF11D1124E60FF11DEE0FFF1FFE
:10128000E45BFE4F859194910E94F70A811540E539
:10129000940708F047C0811520E4920708F01BC1AD
:1012A000883E910520F5803E910508F08AC1883A74
:1012B000910578F4853A910508F0A5C08130910533
:1012C00009F47FC108F436C18430910508F079C172
:1012D00031C18D3B910508F4A1C0803C910508F413
:1012E00029C1FC01EE0FFF1FE653F040EEC081154F
:1012F00030E2930758F4811541E0940708F061C18A
:10130000803F910508F416C190650895811520E38A
:10131000920708F0DDC09F70880F991F865B9E4F73
:10132000FC01D3C0811535E5930708F043C0811552
:1013300044E5940708F0E6C0811522E5920708F518
:10134000811531E5930708F0C9C0482F437021E0AB
:1013500030E002C0220F331F4A95E2F73C68AC012F
:1013600064E0569547956A95E1F74370342B8F708A
:101370008695869540E2849FC0011124822B932B91
:101380000895282F26952695AC0143705527811581
:10139000934508F0A8C030E2239FC001112421E04A
:1013A00030E002C0220F331F4A95E2F7822B932BC5
:1013B0009C680895803340E7940790F4803220E7DA
:1013C000920708F0AAC0811536E5930708F49FC07C
:1013D0009C0130562115304108F0ACC09F709BC075
:1013E000813320E7920709F49FC008F49AC0823342
:1013F00040E7940709F49BC08333904709F09AC0F3
:1014000080E093ED0895853A910509F496C0863AF7
:10141000910509F495C083E890E40895883A910510
:1014200009F491C0893A910509F490C08A3A91056E
:1014300009F48FC08B3A910509F48EC08C3A91055E
:1014400009F48DC08B3B910509F48CC08C3B910550
:1014500009F48BC08D3A910509F48AC0803B91054F
:1014600009F489C08E3A910509F488C08F3A910534
:1014700009F487C0813B910509F486C0823B910540
:1014800009F485C0833B910509F484C0843B910530
:1014900009F483C0853B910509F482C0863B910520
:1014A00009F481C0873B910509F480C0883B910510
:1014B00009F47FC0893B910509F47EC08A3B910500
:1014C00009F07DC08AE296E408958591949108958B
:1014D0009927906C08959F70906A0895982F882797
:1014E000816F906A089530E2239FC001112421E0AA
:1014F00030E002C0220F331F4A95E2F7822B932B74
:101500009A680895982F8827846F906A08958F713C
:101510009927982F88279062089580529047946D5C
:10152000089580E091ED089580E090ED089580E0C9
:1015300092ED089580E090E0089581E890E40895A8
:1015400082E890E4089582EE94E4089589EE94E4AC
:1015500008958AEE94E4089585EB94E4089586EB6B
:1015600094E4089583EB94E4089584EB94E408955F
:1015700087EB94E408958CEC94E408958DEC94E466
:10158000089583E895E408958AE895E4089582E94A
:1015900095E4089584E995E4089581E296E4089538
:1015A00083E296E4089584E296E4089585E296E461
:1015B000089586E296E4089587E296E4089580E02F
:1015C00094E4089580E090E008959FE0799FF00111
:1015D00011249BE4899FE00DF11D1124E60FF11DFC
:1015E000EE0FFF1FE45BFE4F8591949108958238C2
:1015F000910549F1B0F48133910509F459C048F4DB
:101600008932910509F44FC08A32910509F455C019
:1016100008958533910509F441C08933910599F006
:101620000895833E910531F138F4803E910591F0A3
:10163000823E9105A9F00895863E910501F1873E0D
:10164000910539F108952091350220FD3BC021FD1F
:1016500039C008958091350280FF34C089E341C0CC
:101660008091350282FF32C08091350284FF2CC008
:1016700080E037C08091350282FD28C0F5CF80918F
:10168000350283FF25C08091350284FDF1CF87EEBE
:1016900028C08091350283FD1BC0F5CF80913502B3
:1016A00085FF18C019C08091350285FF15C012C092
:1016B0008091350286FF12C013C08091350286FFEB
:1016C0000FC00CC080EE0DC083EE0BC082EE09C0CF
:1016D00086EE07C085E305C089E203C081E301C04F
:1016E0008AE290E008950895CF93DF93EC01FB0127
:1016F0008281811102C081E040C080914A01811144
:1017000025C0C531D047B9F70E94730B81E08093A3
:101710004A010E94C61D909349018093480110928E
:101720003D0110923F0110923E0110924101109232
:101730004001109243011092420110924501109213
:101740004401109247011092460116C08091480151
:10175000909149010E94DE1D883C910560F68091C0
:101760003D01E82FF0E0EE0FFF1FE25CFE4FD1835A
:10177000C0838F5F80933D0180E0DF91CF9108951A
:1017800008950895CF93DF9385B7806885BF85B7A7
:10179000806885BFACE1B1E021E030E08D91E82FB9
:1017A000E295EF70F0E041A18F70B90102C0660FC1
:1017B000771F8A95E2F7CB01962F9095492341A395
:1017C00092A1982B92A371E0A132B70739F7ADE04F
:1017D000B1E021E030E08D91E82FE295EF70F0E08C
:1017E00041A18F70B90102C0660F771F8A95E2F799
:1017F000CB01962F9095492341A392A1982B92A3B8
:1018000071E0AC31B70739F7EFE5F1E0C5E5D1E0BC
:10181000ABE4B1E011921192199219921D921D92AE
:1018200081E0E936F807B1F7DF91CF910C94FB081E
:101830004F925F927F928F929F92AF92BF92CF9280
:10184000DF92EF92FF920F931F93CF93DF930CE100
:1018500011E0CBE4D1E0EE24E394F12C99249394AD
:10186000BE01A880B98019821882D8012D918D01FE
:10187000E22FE295EF70F0E081A12F70A70102C086
:10188000440F551F2A95E2F79A01842B81A382A168
:10189000842E8094882182A350EA5A95F1F74DE076
:1018A000442E41E0542E80E090E0D2014D912D0174
:1018B000C42EC2943FE0C322D12CD60190967C90D6
:1018C000C880D9804F70D70102C0AA0FBB1F4A95AC
:1018D000E2F77A2241F4A701082E02C0440F551FF7
:1018E0000A94E2F702C040E050E04C295D29598398
:1018F000488301968F309105C1F681A1882181A38B
:1019000082A1822B82A32296FB0180819181A8165D
:10191000B90641F0909269010E94C61D90936B0137
:1019200080936A01F1E001321F0709F099CF80919D
:1019300069018823B1F080916A0190916B010E9446
:10194000DE1D069770F0EBE4F1E0AFE5B1E08191C8
:1019500091918D939D9341E0E535F407C1F7109285
:1019600069010E94E90881E0DF91CF911F910F91F9
:10197000FF90EF90DF90CF90BF90AF909F908F90AF
:101980007F905F904F900895E82FF0E0EE0FFF1FDB
:10199000E15AFE4F808191810895CF92DF92EF92BC
:1019A000FF920F931F93CF93DF9380E393E00E9406
:1019B0008C06BFE5EB2EB1E0FB2EC0E0D0E01BE2D1
:1019C000C12E13E0D12E02E213E0DF93CF93DF921A
:1019D000CF920E94250788E293E00E948C06F701CF
:1019E000819191917F010E94E41C9F938F931F939B
:1019F0000F930E94250780E293E00E948C062196B7
:101A00008DB79EB708960FB6F8949EBF0FBE8DBFD8
:101A1000C530D105D1F6DF91CF911F910F91FF9085
:101A2000EF90DF90CF90089531B3242F209523239A
:101A300031B3342B4FB7F894FC01680F791FE617C8
:101A4000F70789F0819198E031BB000000C087FF63
:101A500021BB880F000000C000C000C021BB00C037
:101A60009A9591F7ECCF4FBF089520B3242B20BB5C
:101A70009B01220F331F260F371FB9010E94140D3F
:101A800087EC90E00197F1F700C00000089540E472
:101A90000C94350DDF92EF92FF920F931F93CF932B
:101AA000DF93662309F44AC0E42FF0E0AFEFB0E023
:101AB000A61BB109BF01A69FE001A79FD00DB69F4D
:101AC000D00D1124FD2FDD2E7B01ED1AF1080CE362
:101AD00010E0B8010E949528EB01BC01E69EC00110
:101AE000E79E900DF69E900D1124B8010E94952856
:101AF000C230D105B1F040F4209779F0219709F573
:101B00008F2FD42E461B20C0C430D10599F068F029
:101B10002597B9F4842F861B17C08F2FD62EDF0E82
:101B200013C0862F8F0FD42E03C0D42ED61A842F25
:101B30004F2F0AC0842F462F4F0F06C0842FD42E5C
:101B400003C080E0D12C40E0E42FF0E0E65FFA4FE4
:101B50004491ED2DF0E0E65FFA4F9491E82FF0E02C
:101B6000E65FFA4FE491D90111964C9311979C933B
:101B70001296EC93DF91CF911F910F91FF90EF9010
:101B8000DF90089588E090E00C94CB28AB01BC0175
:101B900088E090E00C94E9288091E30180FF08C080
:101BA00088EE94E09F938F930E9425070F900F90EB
:101BB00083E080930B0210920C028FEF80930D0252
:101BC00080930E0260910B0270910C0280910D02C5
:101BD00090910E020C94C60D8091E30180FF08C025
:101BE00081ED94E09F938F930E9425070F900F90B3
:101BF0008091E30180FF0FC080910B0281701F92E2
:101C00008F9384EB94E09F938F930E9425070F900E
:101C10000F900F900F908091E30180FF10C0809192
:101C20000B0286958F731F928F9389E994E09F939F
:101C30008F930E9425070F900F900F900F90809127
:101C4000E30180FF19C090910B02991F9927991FFA
:101C500020910C02822F880F892B27FB222720F945
:101C60002F938F938FE794E09F938F930E94250784
:101C70000F900F900F900F908091E30180FF0EC0A6
:101C800080910D021F928F9385E694E09F938F932E
:101C90000E9425070F900F900F900F908091E30105
:101CA00080FF0EC080910E021F928F938BE494E010
:101CB0009F938F930E9425070F900F900F900F9086
:101CC000089580910B0280FF06C06AE070E083E116
:101CD00092E00C94470DE5E1F2E0DF0111971C92D0
:101CE000DF0112971C921082339682E0E333F807EB
:101CF000A1F7EBCFE5E1F2E0DF0111978C93DF0173
:101D000012976C934083339692E0E333F907A1F77F
:101D10000C94610ECF92DF92EF92FF920F931F937C
:101D2000CF93DF9300D01F92CDB7DEB7F82EC92E28
:101D3000D62EE42E00910B0210910C0220910D0280
:101D400030910E0200930F021093100220931102A3
:101D50003093120280910B0280FF1EC09E012F5F04
:101D60003F4F8F2D0E944A0D80910F02F0FA87F9A4
:101D700080930F02F6942091100220782F29C0FA48
:101D800027F920931002D0921102E09212024B81A7
:101D900069818A810E947A0E0F900F900F90DF91D7
:101DA000CF911F910F91FF90EF90DF90CF9008950A
:101DB0000F931F93CF93DF93C82F192F062FD42F84
:101DC00080910B0280FF65C0982F9E77923029F496
:101DD0008C2F912F0E948A0E1AC0282F26952F73C0
:101DE0009EE3920F9F73943018F4D0910E020FC0AF
:101DF000265C2F73293058F4881F8827881F10917C
:101E00000C02C12FCC0FC82B17FB112710F98091A2
:101E10000B02C0FB87F980930B02C69580910C02E0
:101E200080788C2B10FB87F980930C0200930D02B5
:101E3000D0930E0260910B0270910C0280910D0202
:101E400090910E020E94C60D80910E021F928F93F8
:101E500080910D021F928F9390910B02991F9927E9
:101E6000991F20910C02822F880F892B27FB222794
:101E700020F92F938F9387E493E09F938F930E9491
:101E800025078DB79EB708960FB6F8949EBF0FBE74
:101E90008DBFDF91CF911F910F91089580910B021B
:101EA00080FF31C08178826080930B0260910B02C9
:101EB00070910C0280910D0290910E020E94C60D4D
:101EC00080910B0286958F731F928F938AE993E01E
:101ED0009F938F930E9425070F900F900F900F9064
:101EE00080910B02881F8827881F90910C02292F50
:101EF000220F97FB992790F940910E0260910D02F5
:101F0000822B0C94D80E08958091E3018160809318
:101F1000E30184E394E09F938F930E94250781E07F
:101F200080936C018091E3010F900F9080FF08C0B7
:101F30008EE194E09F938F930E9425070F900F905E
:101F40000E94241D811110C08091E30180FF08C010
:101F500086EF93E09F938F930E9425070F900F9039
:101F60000E94FE1C0E94CC0D0E94C20D60930B02C9
:101F700070930C0280930D0290930E026E77C1F461
:101F80008091E30180FF08C08DEA93E09F938F93D7
:101F90000E9425070F900F900E94CC0D0E94C20D49
:101FA00060930B0270930C0280930D0290930E02CB
:101FB0000E94EC0D80910B0280FF04C086958F7308
:101FC0000C944E0F089581E00C944E0F20910B025B
:101FD000221F2227221F30910C02432F440F842FEF
:101FE000822B37FB992790F90A9668E671E00E94E8
:101FF000A92840910E0260910D020C94D80E2091F8
:102000000B02221F2227221F30910C02432F440F64
:10201000842F822B37FB992790F98A3091051CF485
:10202000825A9E4F01C00A9768E671E00E94A92873
:1020300040910E0260910D020C94D80E60910D0239
:10204000862F90E08F3E910514F46F5E01C06FEF14
:1020500080910B02881F8827881F90910C02292FDE
:10206000220F97FB992790F940910E02822B0C9436
:10207000D80E60910D02862F90E0419714F06151C7
:1020800001C060E080910B02881F8827881F909113
:102090000C02292F220F97FB992790F940910E02ED
:1020A000822B0C94D80E40910E02842F90E08F3E2C
:1020B000910514F44F5E01C04FEF80910B02881F11
:1020C0008827881F90910C02292F220F97FB9927B0
:1020D00090F960910D02822B0C94D80E40910E0263
:1020E000842F90E0419714F0415101C040E080916D
:1020F0000B02881F8827881F90910C02292F220F1E
:1021000097FB992790F960910D02822B0C94D80EC1
:1021100080910B02982F909590FB80F980930B0291
:1021200060910B0270910C0280910D0290910E0251
:102130000E94C60D80910B0281701F928F938CE6D6
:1021400093E09F938F930E94250780910B020F903D
:102150000F900F900F9080FF04C086958F730C94A2
:102160004E0F2FEF80E792E0215080409040E1F742
:1021700000C000000C94610E909372018093710175
:102180000895E0917101F0917201309721F0019072
:10219000F081E02D099480E00895FF920F931F9342
:1021A000CF93DF938C01E0917101F0917201309730
:1021B00099F10280F381E02D09958091E30182FF7E
:1021C0002BC080FF04C082E196E00E948C06E801EB
:1021D00080E2F82E0CE016E08091E30180FF0BC056
:1021E00088811F928F931F930F930E9425070F9052
:1021F0000F900F900F90FA942196F110EDCF8091EF
:10220000E30180FF09C08AE096E0DF91CF911F9142
:102210000F91FF900C948C06DF91CF911F910F913D
:10222000FF90089520916F013091700182179307FC
:1022300071F09093700180936F01E0917101F091C2
:102240007201309721F00680F781E02D09940895FE
:1022500020916D0130916E018217930771F0909378
:102260006E0180936D01E0917101F09172013097E0
:1022700021F00084F185E02D0994089508950C94CF
:102280003E110E94BD1D0E94C20B0E944F1E0E9463
:1022900018200C94840FCF93C82F8091E30182FF04
:1022A0001EC080FF04C08BE296E00E948C068091E5
:1022B000E30180FF0CC01F92CF9326E236E03F93EC
:1022C0002F930E9425070F900F900F900F908091F1
:1022D000E30180FF04C084E296E00E948C068C2F0C
:1022E000CF910C9431095F926F927F928F929F925F
:1022F000AF92BF92CF92DF92EF92FF920F931F9314
:10230000CF93DF93CDB7DEB72A970FB6F894DEBF31
:102310000FBECDBF0E94180C94E7C92E91E0D92EB4
:1023200000E010E0AA24A394B12C502E802F0E942C
:10233000C40C3C01F601E190F1906F01E826F9260A
:10234000E114F104B1F40F5F1F4F0530110569F777
:102350008FEF89838A831B820E94C61D8160782F3C
:102360009D838C8349815A816B818D810E942A12C1
:102370003AC08091E30181FD0E94CD0C20E030E065
:102380004501022E02C0880C991C0A94E2F7C40190
:102390008E219F21892B09F12E835F82682079206D
:1023A00081E0672809F480E088870E94C61D81606B
:1023B000782F9A8789874E815F8168858A850E94F8
:1023C0002A12F801EE0FFF1FEC58FE4F8081918119
:1023D000882599259183808306C02F5F3F4F2F303A
:1023E000310571F6B0CF109173010E94C11018171A
:1023F000D9F00E94C110809373012A960FB6F89409
:10240000DEBF0FBECDBFDF91CF911F910F91FF9027
:10241000EF90DF90CF90BF90AF909F908F907F9084
:102420006F905F900C944B112A960FB6F894DEBF14
:102430000FBECDBFDF91CF911F910F91FF90EF9015
:10244000DF90CF90BF90AF909F908F907F906F90D4
:102450005F900895CF93DF93CDB7DEB72B970FB67C
:10246000F894DEBF0FBECDBF4F83588769877A8748
:102470008B87DE01119686E0FD0111928A95E9F7BE
:1024800085E0FE01379601900D928A95E1F749812A
:102490005A816B817C818D819E810E94D2182B96FE
:1024A0000FB6F894DEBF0FBECDBFDF91CF91089578
:1024B000CF93C82F882309F4CCC0823859F40E94E6
:1024C000C11081FDC6C089E30E94AF1B0E949E1C03
:1024D00089E30CC0833879F40E94C11080FDB9C033
:1024E00083E50E94AF1B0E949E1C83E50E94001C96
:1024F000CF910C949E1C843859F40E94C11082FD27
:10250000A8C087E40E94AF1B0E949E1C87E4EECF08
:102510008CEF8C0F813A48F48C2F0E94CC1F8111D4
:1025200098C08C2F0E94AF1BE3CF80E28C0F8830C5
:1025300048F4C77081E001C0880FCA95EAF70E948D
:10254000551CD6CF8BE58C0F833078F4C53A29F033
:10255000C63A31F482E890E005C081E890E002C01C
:1025600083E890E0CF910C94121188E58C0F8531AF
:1025700008F06FC0C83A61F1C93A69F1CA3A71F11D
:10258000CB3A79F1CC3A81F1CB3B89F1CC3B91F15B
:10259000CD3A99F1C03BA1F1CE3AA9F1CF3AB1F1D0
:1025A000C13BB9F1C23BC1F1C33BC9F1C43BD1F15D
:1025B000C53BD9F1C63BE1F1C73BE9F1C83BF1F1BD
:1025C000C93BF9F1CA3B09F03FC08AE292E03EC044
:1025D00082EE90E03BC089EE90E038C08AEE90E059
:1025E00035C085EB90E032C086EB90E02FC083EBE6
:1025F00090E02CC084EB90E029C087EB90E026C0EF
:102600008CEC90E023C08DEC90E020C083E891E05A
:102610001DC08AE891E01AC082E991E017C084E900
:1026200091E014C081E292E011C083E292E00EC01A
:1026300084E292E00BC085E292E008C086E292E07C
:1026400005C087E292E002C080E090E0CF910C9458
:102650002811CF910895882309F44BC0823859F48A
:102660000E94C11081FF45C089E30E94AF1B0E94F8
:102670009E1C89E30CC0833871F40E94C11080FF56
:1026800038C083E50E94AF1B0E949E1C83E50E9418
:10269000001C0C949E1C843859F40E94C11082FFC7
:1026A00028C087E40E94AF1B0E949E1C87E4EFCFE6
:1026B0009CEF980F913A58F390E2980F983050F4AD
:1026C000877091E001C0990F8A95EAF7892F0E94DF
:1026D0005B1CDFCF9BE5980F933020F480E090E007
:1026E0000C941211885A853120F480E090E00C940B
:1026F00028110895882321F00E94551C0C949E1CDB
:102700000895882321F00E945B1C0C949E1C089560
:102710008F929F92AF92BF92CF92DF92EF92FF92F1
:102720000F931F93CF93DF931F92CDB7DEB74C016A
:10273000A62E472FFC01E580E2948FE0E822F2808C
:10274000FF2021F079830E94721C498149830E94F5
:10275000A81B4981882381F0FF2071F080E28A0D57
:10276000883050F082E00E94911B0E94A81BBB247D
:10277000B394B826498101C0B12CE42FE295EF70E3
:10278000F0E0E859FF4F0C94BD28842F807F142F70
:102790001F70882311F01295107FFF2099F01123EC
:1027A00009F48FC180E28A0D883010F0A11004C0B6
:1027B000812F0E94551C03C0812F0E94651C0E941E
:1027C0009E1C7FC18A2D0E942B13112309F4B6C1D0
:1027D00080E28A0D883010F0A11004C0812F0E9481
:1027E0005B1C03C0812F0E946B1C0E949E1CA6C113
:1027F000242F207F842F8F70203211F08295807FCC
:10280000AA2021F0F1E0AF16B1F021C0FF2041F085
:10281000EE2039F191E0E91224C00E94851C8EC19E
:10282000EE2021F0E1E0EE1609F488C189830E94D0
:10283000881C898100C1FF2029F0F5E0FE1508F40D
:102840007DC10FC094E09E1508F478C1F4C0FF204C
:1028500059F0EE2031F0F401958190FF32C19F7064
:1028600095830E947A136AC1EE2009F4E4C02FC157
:10287000242F26952695237030E02115310521F06F
:102880002130310561F05AC1FF2021F08A2D942FAB
:10289000937002C080E090E00E9412114FC1FF20AF
:1028A00021F08A2D942F937002C080E090E00E9466
:1028B000281144C1842F837009F04EC0F1103EC12D
:1028C0002A2D229526952770220F220F8A2D8F7090
:1028D000C82ED12CE12CF12C022E04C0CC0CDD1C16
:1028E000EE1CFF1C0A94D2F7A4FE10C06FE070E04B
:1028F00080E090E004C0660F771F881F991F2A951B
:10290000D2F7609570958095909503C060E070E077
:10291000CB01242F26952695237030E022303105F7
:1029200069F02330310589F06C297D298E299F2992
:102930002130310571F00E94261A00C16C297D29D1
:102940008E299F290E94401AF9C00E94261AC701A9
:10295000B6010E940C1AF2C0FF2019F0842F81707A
:1029600001C08695882309F4E9C02A2D2295269571
:102970002770220F220F8A2D8F70C82ED12CE12CA8
:10298000F12C022E04C0CC0CDD1CEE1CFF1C0A94A2
:10299000D2F7A4FE10C06FE070E080E090E004C0C9
:1029A000660F771F881F991F2A95D2F7609570953B
:1029B0008095909503C060E070E0CB01242F2695B0
:1029C0002695237030E02230310569F0233031053F
:1029D00089F06C297D298E299F292130310571F0DC
:1029E0000E94FA1AABC06C297D298E299F290E946A
:1029F000141BA4C00E94FA1AC701B6010E94E01A73
:102A00009DC00A2D10E0F801E05EF109E531F10505
:102A100008F053C0E858FF4F0C94BD281A2D1F70C2
:102A2000842F8F71FF2021F00E94791A812F19CFF6
:102A30000E949A1A812F0E94811380C0FF2049F0C2
:102A4000F4E0FE1508F47AC0842F8F710E94BF1A3B
:102A500075C085E08E1508F471C0F6CFFF2039F0FF
:102A6000842F8F710E94791A69C0FF20C9F3842FC7
:102A70008F710E949A1A62C0FF2029F0842F8F71F3
:102A80000E94641A5BC00E945A1A58C0FF2051F07D
:102A9000142F1F71812F0E94791A63E0812F0E94E9
:102AA000881B4CC081E00E94911B91E09E1508F0AC
:102AB00045C082E00E94911B41C0FF2031F0EE2012
:102AC00079F28A2D0E94581239C0EE2081F28A2DA7
:102AD0000E942B1333C04F706A2DC4010E94E20A7A
:102AE0000E947F192BC0F11029C0942F9F70492F8D
:102AF00050E042305105B9F04CF44115510581F0D8
:102B000041305105D9F40E94582018C04330510576
:102B100069F04430510591F48A2D0E94E5200EC0E1
:102B20000E9429200BC00E94872008C00E94AD206F
:102B300005C04F706A2DC4010E943407BB20F1F01C
:102B40000E94841B80FD1AC0F40112820E947E1B29
:102B50000E94791AC4010E94CC150E947E1B0F901E
:102B6000DF91CF911F910F91FF90EF90DF90CF9069
:102B7000BF90AF909F908F900C949A1A0F90DF9116
:102B8000CF911F910F91FF90EF90DF90CF90BF906A
:102B9000AF909F908F9008950F931F93CF93DF93E3
:102BA000EC01288139818B819C81892B31F03F3F59
:102BB00011F080E003C02F3FE1F781E0811113C0E5
:102BC000CE010E946A07882371F0688179818A8129
:102BD0000E947A1B8C010E942E1B0E94011AB801D0
:102BE000CE010E948813DF91CF911F910F9108951C
:102BF0000E94721C0E94821C0E94441C0E949E1C07
:102C000080E090E00E94121180E090E00C94281186
:102C10000E94621C0C94F8150E946F1BE92FE2952C
:102C2000EF70F0E03297EE30F105B8F4E357FF4F64
:102C30000C94BD28803F59F018F4803E70F407C012
:102C4000843F59F404C0803E10F0813F31F481E0AC
:102C5000089593FB882780F9089580E00895CF9325
:102C6000DF9300D000D01F92CDB7DEB70F900F904A
:102C70000F900F900F90DF91CF910895CF93DF9336
:102C800000D000D000D0CDB7DEB726960FB6F894AE
:102C9000DEBF0FBECDBFDF91CF9108951F93CF93BD
:102CA000DF93C0917E0116E080917F01C81799F0F3
:102CB000D0E01C9FF0011D9FF00D1124E058FE4F45
:102CC0004081518162817381848195810E943E1689
:102CD0002196C770E9CFDF91CF911F910895409160
:102CE000B0015091B1016091B2017091B301809136
:102CF000B4019091B5010C943E16CF938091B5012B
:102D000082958F7009F05FC08091B201882309F429
:102D10005AC020917E01A0917F016091B001709115
:102D2000B1018091B3019091B40131E06F3F09F09E
:102D300030E0B32FC6E02A1709F445C0009721F010
:102D40007F3F21F44B2F03C041E001C040E030E061
:102D500040FD35C0C29FF001C39FF00D1124E05823
:102D6000FE4F418174132BC04081641328C04281FF
:102D7000411125C0438154814817590710F441502F
:102D80005109481B590B483C5105C8F48091B501C5
:102D90008F7080618093B50186E0829FF001839FF0
:102DA000F00D1124EB57FE4F80818F70806180837E
:102DB00080EB91E00E94CC15CF910C944E162F5FC2
:102DC0003F4F2770B8CFCF910895CF92DF92EF9207
:102DD000FF920F931F93CF93DF93CDB7DEB7629728
:102DE0000FB6F894DEBF0FBECDBF8C0185E0F801B1
:102DF000DE011D9601900D928A95E1F7D8014C9164
:102E000011965C91119712966C9112971396ED9012
:102E1000FC9014977091B001E091B1012091B30141
:102E20003091B4012115310531F0EF3F31F481E0EB
:102E30007F3F19F403C081E001C080E0B82FB1707A
:102E4000CB2E80FD6CC1D090B201DD2009F4F5C01D
:102E5000F091B501E216F30638F0C701821B930B1F
:102E6000883C910548F09BC0209530952E0D3F1D64
:102E7000283C310508F093C08F2F807F09F052C0A5
:102E8000E51314C0741312C0D62E61110FC0FF7069
:102E9000F061F093B5010E946F1680EB91E00E9403
:102EA000CC158091B501F80185836CC1EF2831F014
:102EB0005F3F31F481E04F3F19F403C081E001C06E
:102EC00080E080FD03C081E0862701C080E0F82F0C
:102ED000F170FF2E80FF1CC080917E0120917F0148
:102EE00036E0821709F428C190E0389FF001399F3D
:102EF000F00D1124E058FE4F7181571306C0708108
:102F0000471303C07281671303C001968770E9CF2E
:102F1000D62E662309F436C18091B5018160809375
:102F2000B50153C0E51308C0741306C0611104C095
:102F3000D8011596FC93AEC04D875E878D859E8522
:102F40006A8B0E940C166A89882329F1D62E662383
:102F500011F12091B501822F82958F7090E0029738
:102F60000CF460C08091B0019091B10198878F837B
:102F70001986FB86EA862C87CE01079651C0E51795
:102F800031F14D875E878D859E856A8B0E940C1678
:102F90006A8981112EC0C8010E94CC15A4C08F2F50
:102FA000807F69F77E2DF98AE88A89890E942F1629
:102FB00080EB91E00E94CC15E0EBF1E086E0DF01D0
:102FC0001D928A95E9F70E946F16D12CDBC074130D
:102FD000D8CF6111D6CFD8011596FC93C8010E94B5
:102FE000CC15E0EBF1E086E0DF011D928A95E9F770
:102FF000C9C0D62E662379F22091B501822F829521
:103000008F7090E0029774F08091B0019091B101BF
:103010009A8389831B82FD82EC822E83CE010196E6
:103020000E94CC1586E0F801A0EBB1E001900D9272
:103030008A95E1F70E947D166FC0E216F30628F02C
:10304000C701821B930B9C0104C0209530952E0D67
:103050003F1D283C310508F052C0D62E662309F4E6
:103060009ACFE5132CC074132AC08091B50180FD5E
:103070001DC0982F92959F70C9F0D80115968C931A
:1030800015979F3039F09F5F9295907F8F70892BB5
:1030900015968C93C8010E94CC1586E0F801A0EB30
:1030A000B1E001900D928A95E1F736C086E0F80113
:1030B000A0EBB1E001900D928A95E1F763C04D87D6
:1030C0005E878D859E850E940C16882379F086E0A8
:1030D000F801A0EBB1E001900D928A95E1F70E9412
:1030E0007D160E946F16DD24D3944CC08091B501EB
:1030F00081608093B501C8010E94CC1543C07E2D2C
:10310000F98AE88A89890E942F16E0EBF1E086E0CF
:10311000DF011D928A95E9F70E946F1633C066237E
:1031200009F439CF4D875E878D859E850E940C16E8
:10313000882309F430CFCBCF4D875E878D859E8560
:103140000E946F1B292F22952F7030E0223031050D
:103150002CF49F7041F0811106C00CC02430310561
:103160002CF49F7049F4805E883020F0C8010E94E2
:10317000CC15CF2CDC2C06C0D80115969C91907FE5
:1031800091F7F8CF8D2D62960FB6F894DEBF0FBE83
:10319000CDBFDF91CF911F910F91FF90EF90DF9006
:1031A000CF9008951F93CF93DF93CDB7DEB72C97C1
:1031B0000FB6F894DEBF0FBECDBF4F835887698727
:1031C0007A878B879C87CE0107960E94E516882315
:1031D000C1F02F8138858A859B85892B31F03F3F4F
:1031E00011F080E003C02F3FE1F781E0811147C07B
:1031F0004F81588569857A858B859C850E943E160E
:103200003EC086E0FE013796DE01119601900D92D8
:103210008A95E1F7FF81E8854A855B85411551056F
:1032200031F0EF3F31F481E0FF3F19F403C081E05A
:1032300001C080E080FD23C020917F0130E0C90102
:1032400001968770992760917E0170E08617970735
:10325000F1F1F983EA835D834C8396E0929FD0017C
:10326000939FB00D1124A058BE4FFE0131960190DE
:103270000D929A95E1F780937F010E944E1616E019
:1032800080917E0190917F01891779F1189FC0018B
:10329000112480589E4F0E94E516882331F1E09159
:1032A0007E011E9FF0011124E058FE4F40815181A4
:1032B00062817381848195810E943E1680917E0196
:1032C00090E001968770992780937E01D9CF0E9464
:1032D000081610927F0110927E01E0EBF1E086E08B
:1032E000DF011D928A95E9F7CACF2C960FB6F894A4
:1032F000DEBF0FBECDBFDF91CF911F910895EF923A
:10330000FF920F931F93CF93DF939C01009709F4D3
:1033100071C0F12CEE24E394E9012196F901849126
:10332000843740F4843008F056C0813081F0823018
:1033300021F160C0853709F449C0C0F19CE7980FBE
:10334000903708F057C08F770E942B1346C0890131
:103350000E5F1F4FFE01849190E2980F983050F459
:103360008770FE2D01C0FF0F8A95EAF78F2F0E940C
:10337000751C15C00E94581214C089010E5F1F4FA2
:10338000FE01849190E2980F983068F48770FE2DCA
:1033900001C0FF0F8A95EAF78F2F0E947B1C0E94C5
:1033A0009E1CE8011AC00E942B13FBCF2E5F3F4FDB
:1033B000FE01C491CC2341F08FE99FE00197F1F722
:1033C00000C00000C150F6CFE90107C0FE01F49033
:1033D000E901229602C00E9458128F2D882341F0E5
:1033E000EFE9FFE03197F1F700C000008150F6CF20
:1033F0009E0192CFDF91CF911F910F91FF90EF909F
:10340000089508956093BA017093BB018093BC0145
:103410009093BD010C94F8150F931F930091BA017E
:103420001091BB012091BC013091BD01062B172BDF
:10343000282B392B0093BA011093BB012093BC01B8
:103440003093BD011F910F910C94F8150F931F93AA
:103450000091BA011091BB012091BC013091BD01D6
:1034600006231723282339230093BA011093BB01A5
:103470002093BC013093BD011F910F910C94F8155E
:103480000F931F930091BA011091BB012091BC01D1
:103490003091BD0106271727282739270093BA0145
:1034A0001093BB012093BC013093BD011F910F917C
:1034B0000C94F8151092B6011092B7011092B80151
:1034C0001092B9010C94F81541E050E060E070E012
:1034D00004C0440F551F661F771F8A95D2F740938B
:1034E000B6015093B7016093B8017093B9010C9481
:1034F000F81541E050E060E070E004C0440F551F53
:10350000661F771F8A95D2F78091B6019091B70117
:10351000A091B801B091B901842B952BA62BB72BA4
:103520008093B6019093B701A093B801B093B9010D
:103530000C94F81541E050E060E070E004C0440FE6
:10354000551F661F771F8A95D2F740955095609555
:1035500070958091B6019091B701A091B801B0919A
:10356000B90184239523A623B7238093B6019093B2
:10357000B701A093B801B093B9010C94F81541E0DC
:1035800050E060E070E004C0440F551F661F771FD5
:103590008A95D2F78091B6019091B701A091B801B8
:1035A000B091B90184279527A627B7278093B60144
:1035B0009093B701A093B801B093B9010C94F8159A
:1035C0000F931F930091B6011091B7012091B8019C
:1035D0003091B901062B172B282B392B0093B601FC
:1035E0001093B7012093B8013093B9011F910F9147
:1035F0000C94F8150F931F930091B6011091B70129
:103600002091B8013091B9010623172328233923CB
:103610000093B6011093B7012093B8013093B9011C
:103620001F910F910C94F8150F931F930091B60101
:103630001091B7012091B8013091B90106271727E1
:10364000282739270093B6011093B7012093B801BA
:103650003093B9011F910F910C94F8150895CF92F2
:10366000DF92EF92FF920F931F93CF93DF93EC01C2
:10367000C090BA01D090BB01E090BC01F090BD01B8
:103680008091B6019091B701A091B801B091B901B4
:10369000C82AD92AEA2AFB2A0FE110E0B701A601BD
:1036A000002E04C076956795579547950A94D2F7F2
:1036B00040FD05C00150110988F780E007C0BE0138
:1036C000802F0E9433090197A9F3802FDF91CF91BA
:1036D0001F910F91FF90EF90DF90CF900895CF93BF
:1036E000DF93EC010E942F1BBE010E943309DF9182
:1036F000CF910895CB010E946F1B08958091BE0168
:1037000085958595859508958091BE01877008956A
:1037100098E0899F90011124622B6093BE010C9464
:10372000791A4091BE01809584238093BE01982F21
:10373000977069F450E0282F332727FD3095421702
:10374000530729F08595859585950C949A1A0895C7
:103750009091BE01977081E009F480E00895909106
:103760000C01992361F19091350297FF28C0982FA1
:103770009695969596959F3188F4E0910001F09189
:103780000101E90FF11D877021E030E001C0220F37
:103790008A95EAF78181822B818308959091E301D4
:1037A00090FF2DC01F928F938CE596E09F938F938F
:1037B0000E9425070F900F900F900F900895409151
:1037C00000015091010120E030E09FEFFA01E20F8B
:1037D000F31F6281681799F09F3F19F4611101C0CE
:1037E000922F2F5F3F4F2E31310581F79F3F39F0E8
:1037F000FA01E90FF11D97FDFA9582830895089566
:1038000090910C01992369F19091350297FF29C09D
:10381000982F9695969596959F3190F4E09100019A
:10382000F0910101E90FF11D877021E030E001C046
:10383000220F8A95EAF72095818128232183089514
:103840009091E30190FF1FC01F928F938EE396E04B
:103850009F938F930E9425070F900F900F900F90CA
:103860000895409100015091010120E030E0FA01FB
:10387000E20FF31F9281981301C012822F5F3F4F16
:103880002E313105A1F7089581E090E0E09100012B
:10389000F0910101E80FF91F108201968032910525
:1038A000A9F708958091E20108959091E201982B83
:1038B0009093E201089580959091E201982390936E
:1038C000E20108951092E20108959091E101982B90
:1038D0009093E101089580959091E1019823909350
:1038E000E10108951092E10108959091E001982B73
:1038F0009093E001089580959091E0019823909332
:10390000E00108951092E00108958093BF010895A9
:103910001092BF010895409100015091010120E0F3
:1039200030E080E0FA01E20FF31F918191118F5F87
:103930002F5F3F4F2F313105A9F70895E091000126
:10394000F09101018091E2018083E0910001F0910A
:10395000010180819091E101892B8083E091000138
:10396000F091010180819091E001892B80839091F9
:10397000BF01992361F0E0910001F0910101808184
:10398000892B80830E948B1C81111092BF01809132
:103990000001909101010C94CD1090933701809318
:1039A000360108958295982F9C7C96959695837301
:1039B00044E0849F90011124922B892F8A7A869566
:1039C0009575990F892B08951F93CF93DF931F92BD
:1039D000CDB7DEB799830E94D21C182F9981892F09
:1039E0000E94D21C212F30E0322F2227A901482B20
:1039F000CA010F90DF91CF911F9108956DEE7EEF78
:103A000080E090E00E94F52860E082E090E00E9473
:103A1000D72860E083E090E00E94D72860E084E04F
:103A200090E00E94D72860E085E090E00E94D728CF
:103A300060E086E090E00E94D72840E050E0BA01C4
:103A400088E090E00C94E92880E090E00E94D12882
:103A500021E08D3E9E4F09F020E0822F089582E004
:103A600090E00C94C32883E090E00C94C32884E099
:103A700090E00C94C328682F84E090E00C94D72841
:103A800086E090E00C94C328682F86E090E00C94C8
:103A9000D72880913C02843039F11092E40120E46F
:103AA00088E190E00FB6F894A895809360000FBE6F
:103AB0002093600080E00E94FF0880E00E943109AE
:103AC00083B7817F846083BF83B7816083BF78942D
:103AD000889583B78E7F83BF88E10FB6F894809373
:103AE0006000109260000FBE089508950895CF936E
:103AF0000E94751D0E94180C0E94761DC0E08C2F3C
:103B00000E94C40C892B29F4CF5FC530C1F780E037
:103B100001C081E0CF9108950E9408160E941820EC
:103B20000E94C1100C9431091F920F920FB60F9290
:103B300011248F939F93AF93BF938091E4018111E0
:103B400013C08091310290913202A0913302B09162
:103B500034024196A11DB11D80933102909332022F
:103B6000A0933302B0933402BF91AF919F918F9194
:103B70000F900FBE0F901F90189582E084BD93E0C8
:103B800095BD9AEF97BD80936E0008952FB7F89476
:103B90008091310290913202A0913302B0913402AF
:103BA0002FBF08952FB7F8946091310270913202BF
:103BB00080913302909134022FBF0895CF92DF920B
:103BC000EF92FF920F931F932FB7F8944091310219
:103BD0005091320260913302709134022FBF6A011A
:103BE0007B01EE24FF248C0120E030E0C016D106DA
:103BF000E206F30610F441505109481B590BCA0163
:103C00001F910F91FF90EF90DF90CF9008951F923A
:103C10000F920FB60F9211248F939F93AF93BF9380
:103C20008091310290913202A0913302B09134021E
:103C30000196A11DB11D8093310290933202A09391
:103C40003302B0933402BF91AF919F918F910F9047
:103C50000FBE0F901F9018950E949525F8942FEF96
:103C600087EA91E6215080409040E1F700C00000D3
:103C700087E090EBDC018093450290934602A0938D
:103C80004702B09348022CE088E190E00FB6F89428
:103C9000A895809360000FBE20936000FFCF0E9424
:103CA000241D811102C00E94FE1C0E942F1D8093C2
:103CB000E3010E94371D90E0909336028093350215
:103CC0000E94331D682F70E080E090E00C94021A8F
:103CD000CF93C82F1F928F9320E836E03F932F9306
:103CE0000E94250761E070E080E090E004C0660F6C
:103CF000771F881F991FCA95D2F70E94021A0F904A
:103D00000F900F900F90CF910C940816CF9387329D
:103D1000A8F58E3108F02EC1803109F49DC0F8F469
:103D2000873009F465C0A8F4863009F029C1809174
:103D3000E301817F8E7F8093E30189E198E00E9417
:103D40008C068EE69AE00E948C0681E08093E50165
:103D50004DC08B30F1F18E3009F46BC011C186314A
:103D600009F4ADC020F4813109F4EDC009C18931F5
:103D700009F48EC08B3109F449C002C1883349F17E
:103D800050F4893209F4F8C0853309F4F5C087325C
:103D900009F4F2C0F5C0833409F4EEC028F48A3384
:103DA00008F4EEC08953E9C0883409F0E9C00E94E4
:103DB000081682E59AE00E948C062FEF83ED90E3CF
:103DC000215080409040E1F700C000000E942C1E6E
:103DD0000DC084E398E059C089E39AE00E948C0604
:103DE0008091E301897F877F8093E301C1E0CDC0AB
:103DF0008091E301C82FC095C170C0FB80F980930A
:103E0000E301CC2349F386E49AE0AEC08091E3015C
:103E100081FBCC27C0F991E0C927C0FB81F98093D1
:103E2000E301CC2319F08CE29AE025C08EE19AE000
:103E30002CC08091E30182FBCC27C0F991E0C92717
:103E4000C0FB82F98093E301CC2319F08FE09AE064
:103E500012C08FEF99E019C08091E30183FBCC275A
:103E6000C0F991E0C927C0FB83F98093E301CC231B
:103E700051F083EF99E00E948C068091E30181600C
:103E80008093E30182C086EE99E00E948C06AECF5B
:103E90008AE098E00E948C0689ED97E00E948C06EB
:103EA00082EA97E00E948C0683E697E00E948C06E7
:103EB00081E397E00E948C0686E097E0E6CF88EFEA
:103EC00096E00E948C060E94C1101F928F938EED87
:103ED00096E09F938F930E94250780910C011F927B
:103EE0008F9387EC96E09F938F930E942507809194
:103EF0000A021F928F9384EB96E09F938F930E9408
:103F000025078091350287FB882780F91F928F93C0
:103F10008CE996E09F938F930E9425070E94D21D03
:103F20009F938F937F936F9385E896E09F938F93F2
:103F30000E9425078DB79EB746960FB6F8949EBF90
:103F40000FBE8DBF53CF0E9408168091350287FBAC
:103F5000CC27C0F991E0C927C0FB87F980933502CF
:103F6000CC2329F08CED99E00E948C060EC081EDE7
:103F700099E08BCF8D5101C080E00E94681E36CF42
:103F80008FEC99E00E948C06C0E08C2FCF910895B1
:103F900080E0089580E00895CF93C82F8091E501D7
:103FA000882319F0813049F03BC0E0910001F09185
:103FB000010180818232B1F507C0E0910001F091EA
:103FC00001018081823249F48C2F0E94C81F811127
:103FD00024C08C2F0E94861E21C08C2F0E94CA1FD5
:103FE00081111BC0C43189F018F4CB3029F010C006
:103FF000C93259F0C83361F489E198E00E948C0617
:104000008CE796E00E948C0608C01092E5010CC077
:104010008AE796E00E948C0607C081E0817006C0A6
:104020001092E50180E002C080E0F8CFCF910895C2
:104030000E94241D811102C00E94FE1C0E94401D8E
:104040008093370280FF02C0869501C080E00C9407
:10405000FF0820913702322F3695832F90E0039787
:1040600044F491E0930F990F822F8170892B8093F4
:104070003702809137028160809337020E94441D8D
:104080008091E30180FF0FC08091370286951F92D7
:104090008F9384EB9AE09F938F930E9425070F9054
:1040A0000F900F900F908091370286950C94FF0827
:1040B00080913702982F969591F09158990F8170C1
:1040C000892B809337028E7F91E009F490E08091F4
:1040D000370290FB80F9809337020E94441D809143
:1040E000E30180FF0FC08091370286951F928F9366
:1040F0008CE99AE09F938F930E9425070F900F9071
:104100000F900F908091370286950C94FF08809154
:104110003702982F909590FB80F9809337020E9488
:10412000441D8091E30180FF0FC0809137028170B0
:104130001F928F9386E89AE09F938F930E942507A2
:104140000F900F900F900F908091370280FF02C068
:10415000869501C080E00C94FF0830913702232F30
:1041600026952F5F2F77822F90E0317004972CF4E3
:10417000220F232B2093370202C030933702809105
:1041800037028E7F91E009F490E08091370290FB36
:1041900080F9809337020E94441D8091E30180FFE3
:1041A0000FC08091370286951F928F9382E79AE025
:1041B0009F938F930E9425070F900F900F900F9061
:1041C0008091370286950C94FF0820913702922F38
:1041D00096959827990F822F8170892B80933702AB
:1041E0008E7F91E009F490E08091370290FB80F996
:1041F000809337020E94441D8091370286950C946B
:10420000FF0880910902089508959FB7F8941092CD
:10421000E8019FBF90913C02943009F058C0909102
:10422000E9009F702091EC0020FF02C020E801C04F
:1042300020E0292B93E09093E9009091EB0090FF10
:1042400043C09091EE0097FF3FC09091E601992303
:1042500021F09091E80095FF37C01092E60196E0BA
:104260003091E80035FD15C030913C02343061F5E5
:104270003091EB0035FD28C0915021F481E080930E
:10428000E60122C0EFE9FFE03197F1F700C000003E
:10429000E7CF8093F1008091E80085FD0AC080910E
:1042A000E80080FFFCCF8091E8008E778093E800E3
:1042B00006C08FB7F89491E09093E8018FBF2F70FC
:1042C0002093E90080E008952F702093E9008FEF9C
:1042D0000895CF93DF9300D01F92CDB7DEB7209122
:1042E0003C02243021F523E029839B838A8382E0EA
:1042F0008093E9008FEF9091E800815095FD06C012
:1043000095ED9A95F1F700008111F5CF8091E800C5
:1043100085FF0DC040E050E063E070E0CE01019603
:104320000E9403248091E8008E778093E8000F902C
:104330000F900F90DF91CF910895CF93DF9300D02E
:104340001F92CDB7DEB720913C02243029F522E040
:104350002983805891099B838A832093E9008FEFFA
:104360009091E800815095FD06C095ED9A95F1F782
:1043700000008111F5CF8091E80085FF0DC040E07D
:1043800050E063E070E0CE0101960E94032480912A
:10439000E8008E778093E8000F900F900F90DF91E8
:1043A000CF910895CF93DF93EC0180913C0284304C
:1043B00009F046C090910C019923D9F090913502F3
:1043C00097FF17C08093E9008FEF9091E80081502C
:1043D00095FD06C095E19A95F1F700008111F5CFA2
:1043E0008091E80085FF2CC040E050E060E270E082
:1043F00017C081E08093E9008FEF9091E800815031
:1044000095FD06C095ED9A95F1F700008111F5CF65
:104410008091E80085FF14C040E050E068E070E063
:10442000CE010E9403248091E8008E778093E800FB
:1044300080E2FE01A9EEB1E001900D928A95E1F7CC
:10444000DF91CF91089581EF9AE00E948C068091D0
:104450003B02811109C00E9495250E94F22580919E
:10446000E20084608093E20008958DEE9AE00E945D
:104470008C0610923B02089589EE9AE00C948C060B
:1044800085EE9AE00C948C0681EE9AE00E948C06F0
:104490000C948C1D8091E7018F5F8093E70162E3AC
:1044A0000E948928911135C01092E7018091E8019E
:1044B000882379F180913C02843049F58091E900AC
:1044C0008F709091EC0090FF02C090E801C090E0E6
:1044D000982B83E08093E9008091EB0080FF14C06B
:1044E0008091EE0087FF10C08091E80085FF03C037
:1044F0001092F100F9CF8091E80080FF05C0809113
:10450000E8008E778093E8009F709093E900109206
:10451000E801089542E061EC81E00E940F2542E04D
:1045200061EC82E00E940F2542E261EC83E00E9490
:104530000F2542E261EC84E00C940F2580913E024D
:10454000833009F455C030F4813071F0823009F4C1
:104550008EC008958A3009F47AC08B3009F460C0A7
:10456000893009F09CC020C080913D02813A09F059
:1045700096C08091E800877F8093E8008091410297
:1045800090914202892B21F060E080E090E003C02E
:1045900060E289EE91E070E00E944C248091E80096
:1045A0008B778093E800089580913D02813209F075
:1045B00076C08091410290914202009719F00397D2
:1045C00009F06DC08091E800877F8093E8008091BA
:1045D000E80082FD05C080913C028111F8CF5FC0E8
:1045E0008091F100809309028091E8008B7753C09D
:1045F00080913D02813A09F052C080914102909130
:104600004202892B09F04BC08091E800877F80939C
:10461000E8008091E80080FFFCCF80910C0136C05B
:1046200080913D028132D9F5809141029091420200
:10463000892BA9F58091E800877F8093E8000E948C
:10464000442580913F0280930C010C9408168091C0
:104650003D02813221F58091E800877F8093E80058
:104660000E9444258091400280930A02089580911F
:104670003D02813AA1F48091E800877F8093E800B1
:104680008091E80080FFFCCF80910A028093F100C6
:104690008091E8008E778093E8000C94442508957B
:1046A00084B7877F84BF88E10FB6F8948093600059
:1046B000109260000FBE80E880936100109261004C
:1046C0000E943F110E9495250E94F2258091E200F0
:1046D00084608093E20085E091E20E94CD1C789492
:1046E0000E946C280E94411182E091E00E94BC105F
:1046F00080ED9AE00E948C0680913C02853089F41E
:104700008CEC9AE00E948C060E94491D80913A022E
:10471000882391F30E94771D882371F30E94ED2373
:10472000EBCF0E947311E8CF292F332723303105B7
:10473000A9F06CF42130310509F442C02230310572
:1047400009F043C084E790E02DE13BE042C0213214
:104750003105C9F02232310519F137C0992781306E
:10476000910541F08230910541F0892B71F5E9E125
:10477000FBE005C0E7E0FBE002C0E5EFFAE0849172
:1047800090E09F0126C0643000F5E62FF0E0EE0FC8
:10479000FF1FE35DFE4F2081318189E090E019C069
:1047A000643098F4E62FF0E0DF01AA0FBB1FAB5D89
:1047B000BE4F2D913C91EF5DFE4F808190E009C08E
:1047C00082E190E021E93BE004C080E090E020E05D
:1047D00030E0FA0131832083089580E189BD82E1D0
:1047E00089BD09B400FEFDCF8091D8008F7D8093F4
:1047F000D8008091E00082608093E0008091E0002A
:1048000081FDFCCF0895CF92DF92EF92FF920F933C
:104810001F93CF93DF937C018B01EA010E946525F2
:10482000811131C0209731F088819981081B190BC3
:10483000E80EF91EC12CD12C0115110519F180913A
:10484000E80085FD14C08091E8008E778093E80031
:10485000209741F0888199818C0D9D1D99838883D3
:1048600085E011C00E946525882331F30CC0F70153
:1048700081917F018093F10001501109FFEFCF1A60
:10488000DF0ADACF80E0DF91CF911F910F91FF9087
:10489000EF90DF90CF900895209143023091440231
:1048A0002617370748F06115710539F42091E800A3
:1048B0002E772093E80001C0B901FC0120E06115CA
:1048C0007105B9F180913C02882309F440C085301C
:1048D00009F43FC08091E80083FD3DC08091E8006D
:1048E00082FF06C08091E80082FF26C080E0089524
:1048F0008091E80080FFE3CF2091F3008091F200E7
:1049000090E0922B6115710551F08830910538F4D3
:1049100021912093F100615071090196F3CF21E0BC
:10492000089709F020E08091E8008E778093E800F6
:10493000C6CF2111C7CFD6CF80913C02882339F052
:10494000853039F08091E80083FFCCCF04C082E04D
:10495000089583E0089581E0089520914302309105
:1049600044022617370748F06115710539F4209184
:10497000E8002E772093E80001C0B901FC0120E097
:1049800061157105C1F180913C02882309F441C091
:10499000853009F440C08091E80083FD3EC08091DD
:1049A000E80082FF06C08091E80082FF27C080E017
:1049B00008958091E80080FFE3CF2091F30080917B
:1049C000F20090E0922B6115710559F08830910545
:1049D00040F424912093F1003196615071090196C1
:1049E000F2CF21E0089709F020E08091E8008E776F
:1049F0008093E800C5CF2111C6CFD5CF80913C026E
:104A0000882339F0853039F08091E80083FFCBCFDF
:104A100004C082E0089583E0089581E00895982F0E
:104A2000973058F59093E900981739F07091EC00A1
:104A30002091ED005091F00003C0242F762F50E01C
:104A400021FF19C03091EB003E7F3093EB00309195
:104A5000ED003D7F3093ED003091EB0031603093FD
:104A6000EB007093EC002093ED005093F000209148
:104A7000EE0027FF07C09F5FD3CF8F708093E900C0
:104A800081E0089580E0089580913D0287FD05C092
:104A90008091E80080FF0EC012C08091E80082FD86
:104AA00005C080913C028111F8CF08958091E80003
:104AB0008B7708C080913C028111EACF08958091E4
:104AC000E8008E778093E80008958091E40090914B
:104AD000E50045E62091EC0020FF21C02091E80090
:104AE00020FD21C020913C02222389F0253089F04D
:104AF0002091EB0025FD0FC02091E4003091E500EE
:104B00002817390739F3415041F0C901E3CF82E05A
:104B1000089583E0089581E0089584E00895209148
:104B2000E80022FFDFCF80E008950E9403260E9464
:104B30000B26E0EEF0E0808181608083E8EDF0E01C
:104B400080818F77808319BCA7EDB0E08C918E7F38
:104B50008C9380818F7E808310923B0208950F9307
:104B60001F93CF93DF930E9403260E940B26C8ED6C
:104B7000D0E088818F778883888180688883888166
:104B80008F7D888319BC10923C02109238021092DB
:104B90003A021092390200EE10E0F80180818B7F1A
:104BA000808388818160888342E060E080E00E94A9
:104BB0000F25E1EEF0E080818E7F8083E2EEF0E071
:104BC000808181608083808188608083F80180811A
:104BD0008E7F8083888180618883DF91CF911F9150
:104BE0000F910895E8EDF0E080818F7E8083E7EDFE
:104BF000F0E080818160808384E082BF81E08093E7
:104C00003B020C94AF25E8EDF0E080818E7F80833D
:104C10001092E20008951092DA001092E1000895D7
:104C20001F920F920FB60F9211242F933F934F9321
:104C30005F936F937F938F939F93AF93BF93EF9304
:104C4000FF938091E10082FF0BC08091E20082FF20
:104C500007C08091E1008B7F8093E1000E944A228F
:104C60008091DA0080FF1FC08091D80080FF1BC0B8
:104C70008091DA008E7F8093DA008091D90080FFE6
:104C80000DC080E189BD82E189BD09B400FEFDCF80
:104C900081E080933C020E94232205C019BC10923F
:104CA0003C020E9435228091E10080FF19C0809172
:104CB000E20080FF15C08091E2008E7F8093E200C9
:104CC0008091E20080618093E2008091D800806250
:104CD0008093D80019BC85E080933C020E9440225A
:104CE0008091E10084FF30C08091E20084FF2CC0FD
:104CF00080E189BD82E189BD09B400FEFDCF8091CC
:104D0000D8008F7D8093D8008091E1008F7E8093C2
:104D1000E1008091E2008F7E8093E2008091E200CA
:104D200081608093E20080913802882311F084E052
:104D300007C08091E30087FF02C083E001C081E0EB
:104D400080933C020E9444228091E10083FF29C0AD
:104D50008091E20083FF25C08091E100877F8093EE
:104D6000E10082E080933C02109238028091E100E1
:104D70008E7F8093E1008091E2008E7F8093E2003D
:104D80008091E20080618093E20042E060E080E098
:104D90000E940F258091F00088608093F0000E94AF
:104DA0003C22FF91EF91BF91AF919F918F917F91A5
:104DB0006F915F914F913F912F910F900FBE0F9088
:104DC0001F9018951F920F920FB60F9211242F93D8
:104DD0003F934F935F936F937F938F939F93AF9383
:104DE000BF93CF93EF93FF93C091E900CF70809171
:104DF000EC001092E9008091F000877F8093F00032
:104E000078940E941E271092E9008091F00088603B
:104E10008093F000C093E900FF91EF91CF91BF9193
:104E2000AF919F918F917F916F915F914F913F9142
:104E30002F910F900FBE0F901F9018951F93CF9337
:104E4000DF93CDB7DEB7AA970FB6F894DEBF0FBEDB
:104E5000CDBFEDE3F2E08091F100819322E0E534F3
:104E6000F207C9F70E949E228091E80083FF1CC1CF
:104E700020913D0230913E02832F90E08A309105CF
:104E800008F012C1FC01E556FF4F0C94BD282038F4
:104E900081F0223809F008C1809141028F7080931F
:104EA000E9008091EB0085FB882780F91092E900EA
:104EB00006C08091390290913A02911182609091DE
:104EC000E800977F9093E8008093F1001092F10042
:104ED000C5C0822F8D7F09F0E7C0222319F0223050
:104EE00061F0E2C080913F02813009F0DDC03330D3
:104EF00009F080E080933A0228C080913F0281113E
:104F000024C0209141022F7009F4CEC02093E90003
:104F10008091EB0080FF19C08091EB00333011F4D9
:104F2000806211C080618093EB0081E090E0022EEE
:104F300001C0880F0A94EAF78093EA001092EA0011
:104F40008091EB0088608093EB001092E9008091E3
:104F5000E800877F86C02111A7C010913F021F770C
:104F60008091E3008078812B8093E3008091E800BA
:104F7000877F8093E8000E9444258091E80080FFAD
:104F8000FCCF8091E30080688093E300112311F04F
:104F900083E001C082E080933C0286C0205822302A
:104FA00008F082C080913F02909140028C3D23E046
:104FB000920779F583E08A838AE289834FB7F89470
:104FC000DE01139620E03EE051E2E32FF0E0509343
:104FD0005700E49120FF03C0E295EF703F5FEF7050
:104FE0008E2F90E0EA3010F0C79601C0C0968D93E6
:104FF0009D932F5F243149F74FBF8091E800877F51
:105000008093E8006AE270E0CE0101960E944C2491
:1050100014C0AE014F5F5F4F609141020E94942324
:10502000009709F441C02091E800277F2093E80011
:10503000BC0189819A810E94AD248091E8008B7720
:105040008093E80031C0203879F58091E800877FAF
:105050008093E800809138028093F1008091E8000D
:105060008E778093E8000E9444251EC021111CC049
:1050700090913F029230C0F48091E800877F809346
:10508000E800909338020E944425809138028111F3
:1050900004C08091E30087FF02C084E001C081E08A
:1050A00080933C020E948A228091E80083FF0AC01C
:1050B0008091E800877F8093E8008091EB00806218
:1050C0008093EB00AA960FB6F894DEBF0FBECDBF5B
:1050D000DF91CF911F910895CF9380913C02882357
:1050E000B1F08091E9008F709091EC0090FF02C0C8
:1050F00090E801C090E0C92FC82B1092E900809180
:10510000E80083FD0E941E27CF70C093E900CF9175
:105110000895991B79E004C0991F961708F0961B13
:10512000881F7A95C9F780950895AA1BBB1B51E18A
:1051300007C0AA1FBB1FA617B70710F0A61BB70B07
:10514000881F991F5A95A9F780959095BC01CD01AC
:10515000089597FB072E16F4009407D077FD09D029
:105160000E94952807FC05D03EF4909581959F4FAD
:105170000895709561957F4F0895EE0FFF1F05907C
:10518000F491E02D0994F999FECF92BD81BDF89A72
:10519000992780B50895A6E1B0E044E050E00C9472
:1051A000FD28A8E1B0E042E050E00C94FD28262F55
:1051B000F999FECF92BD81BDF89A019700B402160D
:1051C00039F01FBA20BD0FB6F894FA9AF99A0FBEBB
:1051D00008950396272F0E94D8280E94D728252FAC
:1051E0000E94D828242F0C94D8280196272F0E949B
:1051F000D8280C94D728DC01CB01FC01F999FECF0B
:1052000006C0F2BDE1BDF89A319600B40D9241504E
:0A5210005040B8F70895F894FFCF5E
:10521A00C0010121D22104219D216921019091928D
:10522A009395366667F1F0C6333231303534979646
:10523A009440362239340CFE0BDC0BA30B2F0B489F
:06524A000B610B810B005B
:00000001FF
